:1000000044C1000073C1000071C100006FC1000055
:100010006DC100006BC1000069C1000067C1000034
:1000200065C1000063C1000061C100005FC1000044
:100030005DC100005BC1000059C1000057C1000054
:1000400055C1000053C1000051C100004FC1000064
:100050004DC100004BC1000049C100000C94741157
:1000600045C100000C94FD0A0C94D40A3FC1000065
:100070003DC100003BC1000039C1000037C1000094
:1000800035C1000033C1000031C100002FC10000A4
:100090002DC100002BC1000029C1000027C10000B4
:1000A00025C1000023C1000021C100001FC10000C4
:1000B0001DC100001BC1000019C1000017C10000D4
:1000C00015C1000013C1000011C100000FC10000E4
:1000D0000DC100000BC1000009C1000007C10000F4
:1000E00005C10000440C470C360C3A0C3E0C7E0C4B
:1000F0004B0C4F0C550C590C5D0C630C670C6B0CC6
:100100007E0C710C750C790CB80CBD0CC20CCC0CAF
:10011000D60C4F0DE00CE80CF00CFA0C040D0E0D93
:100120001D0D270D4F0D310D3B0D450D0D0A4F5384
:100130004320646964206E6F74207374617274006C
:100140000D0A58424F58204C6962726172792053EF
:10015000746172746564000001000800020004000C
:10016000200010004000800000000001000200207C
:100170000010004000800004000800000203040595
:100180000100000A0B02090C0D0E08070304010010
:10019000000000000000000000000000000000005F
:1001A000000000000000000000000000001211101C
:1001B000000000000000000000000000000000003F
:1001C0000000000000000000002200250028002B95
:1001D000002E003100340002010000050108010B6F
:1001E0000100002100240027002A002D00300033E8
:1001F0000001010000040107010A010505050507CA
:100200000508080808020202020A0A080804040491
:1002100004010101010101010103030303030303BD
:1002200003040707070C0C0C0C0C0C0C0C0202024C
:100230000206060606060606060B0B0B0B0B0B0B3F
:100240000B010210202008081020401020408002DE
:10025000010201080402010102040810204080800C
:100260004020100804020180040201804020100890
:100270000402010804020101020408102040800168
:100280000204081020408000C01811241FBECFEFC8
:10029000D1E2DEBFCDBF00E00CBF12E0A0E0B2E0D3
:1002A000E4EAF8E300E00BBF02C007900D92A2352C
:1002B000B107D9F724E0A2E5B2E001C01D92AC3449
:1002C000B207E1F711E0C5E4D1E000E006C02197F4
:1002D0000109802FFE010E943D1CC434D10780E03B
:1002E0000807A9F70E94A9140C94501C89CECF933B
:1002F000DF93EC018A819B81DC01ED91FC9104800C
:10030000F581E02D6A8519958A85813439F4EA8171
:10031000FB81EA58FF4F8081846080831A861B86A8
:100320001C861D861E861F86188A80E0DF91CF916D
:10033000089581E0693009F080E00895FC0182852C
:100340000895DF92EF92FF920F931F93CF93DF9365
:10035000EC01E62EF12C85E0689FB0011124FE012E
:10036000E60FF71F8085182F177086FF20C001E069
:1003700085E0D82E8FEF800F8F3008F001E0FE016E
:10038000D09EE00DF11D1124808586958695869579
:100390008770811304C0602FCE01D3DFEBCF0F5FD6
:1003A000003169F78D81811302C011501D8385E0F2
:1003B0008E9DF0018F9DF00D1124EC0FFD1F108616
:1003C00081E0818712862296D783C683DF91CF9101
:1003D0001F910F91FF90EF90DF900895FC01613421
:1003E000C1F43F969C01265A3F4F61E0AC014E5F3D
:1003F0005F4FDF0112971C9211966C931082139736
:100400004D935C933596E217F30799F7FC0115823B
:1004100008953D9621E03081361302C0622F91CFBE
:100420002F5F35962031B9F70895CF93DF93FC0104
:10043000862F807809F051C0283008F04FC044233F
:1004400021F09581973009F449C0EF012D96A0E085
:10045000B0E011969881911103C0662331F021C05C
:100460002596AF30B105A9F739C085E08A9FE00134
:100470008B9FD00D1124CE0FDF1F442331F081E478
:10048000888785818F5F858302C081E0888725E02A
:100490002A9FC0012B9F900D1124E80FF91F808522
:1004A0001DC06770660F660F660F442341F06064DD
:1004B00085818F5F85838770687F682B03C0277075
:1004C000687B622B25E02A9FC0012B9F900D112491
:1004D000E80FF91F6087862F01C080E0DF91CF9180
:1004E0000895611102C006960895FC013D9621E031
:1004F0003081361307C035E0239F800D911D1124F4
:10050000069608952F5F3596203191F780E090E0B0
:100510000895089580E090E0089581E0089580E0D6
:10052000089580E00895089580E0089580E008959A
:1005300080E0089580E0089580E00895FC01208126
:100540002EBDDC0131969C01260F371FE217F30701
:1005500041F051910DB407FEFDCF4EB55EBD4D93F8
:10056000F5CF61507109FC01E60FF71F0DB407FECE
:10057000FDCF8EB5808308952898089508958EBD87
:1005800000000DB407FEFDCF8EB508958CBD9DBD56
:1005900008950F931F93CF93DF932115310569F0D1
:1005A000E901042F162F9DDFFC01892B41F01283F6
:1005B000D183C083038380E003C088ED01C086ED52
:1005C000DF91CF911F910F910895289A08950F936D
:1005D0001F93CF93DF93C82FD62F8A0180E591E038
:1005E000D5DFCADF8C2F8260CADFCD2FD0E0209705
:1005F00019F0BE01C801A2DFC00FD11FE6DFCE0196
:10060000DF91CF911F910F9108951F93CF93DF93A7
:1006100000D0CDB7DEB7182F80E591E06B83B6DF51
:10062000ABDF126019836B816A8362E070E0CE01F8
:10063000019684DFCADF0F900F900F90DF91CF916A
:100640001F9108959F92AF92BF92CF92DF92EF9247
:10065000FF920F931F93CF93DF937C01C42F122F30
:10066000992493946C01C60ED11CC60ED11C86E54C
:10067000C80ED11CA42EB12CABE2AA0EB11CAA0C40
:10068000BB1CAE0CBF1CF60180819181DC01ED9199
:10069000FC910280F381E02D202F412F6C2F1995C2
:1006A000803EC1F4C1110AC061E088EEAEDF66E6AB
:1006B00070E080E090E00E94580D16C0F501808146
:1006C0009181DC01ED91FC910284F385E02D612F95
:1006D00019950AC08D3031F49FEF990D933008F0D1
:1006E0003FC016C081113CC0F60180819181DC01C0
:1006F000ED91FC910190F081E02D202F412F6C2F86
:100700001995D82F8D3061F48FEF890D833050F417
:1007100064E670E080E090E00E94580D9394B3CFBF
:100720008823E9F0C1110AC061E088EE6EDF66E659
:1007300070E080E090E00E94580D11C0EC2FF0E0D6
:10074000BB96EE0FFF1FEE0DFF1D80819181DC0136
:10075000ED91FC910284F385E02D612F19958D2F89
:10076000DF91CF911F910F91FF90EF90DF90CF908D
:10077000BF90AF909F9008952F923F924F925F92BB
:100780006F927F928F929F92AF92BF92CF92DF92A1
:10079000EF92FF920F931F93CF93DF93CDB7DEB706
:1007A00066970FB6F894DEBF0FBECDBF1B8A38E048
:1007B0003C8B3CE33D8B8A3F3FEF930711F486ED82
:1007C000EAC0122F442E562E7C01DC011696CD90E5
:1007D000DC901797CE01439617969C938E931697AD
:1007E0001A962C939E012F5F3F4F42E150E060E04C
:1007F000C7010E94B113F701D782C6828111CBC015
:1008000089849A846B847C843D813E8B2E80670131
:1008100086E5C80ED11C5601312CD5018D919C91D5
:10082000009789F1DC01ED91FC910084F185E02DC8
:100830001995811128C0F50180819181DC01ED912C
:10084000FC910088F189E02D622D19958823D9F05B
:10085000F50180819181DC01ED91FC910484F585A5
:10086000E02DA301B4011995811180C0F5018081AB
:100870009181DC01ED91FC910684F785E02D6E8974
:100880001995811173C03394B2E0AB0EB11CE0E155
:100890003E12C3CFB12CD6018D919C91009799F156
:1008A000DC01ED91FC910084F185E02D1995811119
:1008B0002AC0F60180819181DC01ED91FC910088D4
:1008C000F189E02D622D1995882309F459C0F601AC
:1008D00080819181DC01ED91FC910484F585E02D0E
:1008E000A301B401199581110EC0F6018081918197
:1008F000DC01ED91FC910684F785E02D6E89199558
:10090000882309F43DC0B394B2E0CB0ED11CE0E1E2
:10091000BE12C1CFD70116968D919C911797892B46
:10092000F9F01A961C93242D40E0652DC7017DDD5A
:10093000D82E8823B9F0682FC701D3DD009709F4BA
:100940003ECFFC0114834D2D60E0C7010E9482134D
:10095000182F882349F06D2DC70140DD812F1BC062
:1009600087ED19C084ED17C080E015C0012F242D3C
:10097000452D632DC70166DE813D09F484CF0BC090
:10098000012F242D452D6B2DC7015CDE982F977FFD
:10099000913D09F4B8CF66960FB6F894DEBF0FBE4E
:1009A000CDBFDF91CF911F910F91FF90EF90DF901E
:1009B000CF90BF90AF909F908F907F906F905F90FF
:1009C0004F903F902F9008951F93CF93DF931F92E6
:1009D000CDB7DEB7182F80E591E0D8DDCDDD812FD2
:1009E000CEDD80E0CCDD8983F0DD89810F90DF9161
:1009F000CF911F9108958F929F92AF92BF92CF9205
:100A0000DF92EF92FF920F931F93CF93DF93862E87
:100A1000942E59010E943F0F6B017C0128E8C20E01
:100A200023E1D21EE11CF11C00E010E0D0E0C0E0A8
:100A300098280E943F0FDC01CB018C199D09AE095B
:100A4000BF09B7FF29C0692D80EFDFDD0E943F0F8E
:100A5000DC01CB018C199D09AE09BF09B7FF07C0A6
:100A600088ECB2DF87FFF2CF60E888ECCEDD88EF5C
:100A7000ABDFC82FCF70C43019F0CE3051F00CC0AE
:100A80000F5F1F4FA114B104A1F20A151B0589F6CF
:100A900003C0DF5FD33069F68C2FDF91CF911F91B8
:100AA0000F91FF90EF90DF90CF90BF90AF909F900D
:100AB0008F9008952F923F924F925F926F927F9204
:100AC0008F929F92AF92BF92CF92DF92EF92FF925E
:100AD0000F931F93CF93DF9300D01F921F92CDB738
:100AE000DEB77D836C835A016901FB0121808FEFA2
:100AF000820D803408F06DC00E943F0F2B013C0135
:100B0000F8E84F0EF3E15F1E611C711CEC81FD8162
:100B1000828180FD02C060E401C060E888EE75DD7E
:100B200020E0312CC114D10409F444C076012C1406
:100B30003D0408F47101EA82A8016E2D80E147DDD1
:100B40006E2D88E362DDEC81FD816081606280EF63
:100B50005CDD88EC39DF87FFFCCF60E888EC55DD91
:100B600088EF32DF282F2F70812C912C19822223BD
:100B700061F02B830E943F0FDC01CB0184199509A2
:100B8000A609B7092B81B7FD05C0CE18DF080E0DE9
:100B90001F1DC8CF2630F9F02E3009F44CC0243088
:100BA00049F4FFEF8F1A9F0AA114B10441F18A148E
:100BB0009B0429F588EF2B8307DF85FB882780F9C5
:100BC000EC81FD81928180FB90F992832B81822FB1
:100BD00038C08AED36C088EFF7DE85FB882780F9BC
:100BE00091E08927EC81FD81928180FB90F99283CD
:100BF00090FD02C060E401C060E888EE06DD60E0C0
:100C000088E303DDF801608180E1FFDC6A8188E32D
:100C1000FCDCEC81FD816081606280EFF6DC88ECB9
:100C2000D3DE87FFFCCF60E888ECEFDC88EFCCDE1A
:100C3000282F2F709CCF89818F5F89838330F9F6AD
:100C4000B9CF0F900F900F900F900F90DF91CF9131
:100C50001F910F91FF90EF90DF90CF90BF90AF90DA
:100C60009F908F907F906F905F904F903F902F90CC
:100C700008952F923F924F925F926F927F928F9240
:100C80009F92AF92BF92CF92DF92EF92FF920F931B
:100C90001F93CF93DF93CDB7DEB729970FB6F894A4
:100CA000DEBF0FBECDBF1C01798768875B834A8397
:100CB0006901D9018D909C901197FB01F181F98315
:100CC0001D921C92DB0112968C9181FD02C060E1A5
:100CD00001C060E288EE99DC8E2D90E0A0E0B0E0EB
:100CE0008C839D83AE83BF83482C2A813B81A8855A
:100CF000B9854C9160E0C1017EDEF82EB6E08B1321
:100D000014C088EF61DE8295817091E08927E885C3
:100D1000F985928180FB91F9928391FD02C060E197
:100D200001C060E288EE71DCE0CF81115AC088EC2E
:100D30004BDE82FF54C080E347DE582E90E08816D9
:100D4000990608F4542CD6018D919C91652C712C38
:100D5000F401E81BF90BCF01F7FF02C080E090E03F
:100D60005301861597050CF45C0180E591E00EDCDB
:100D700003DC88E004DCA50160E070E0C8010E94AB
:100D8000491CA114B10419F0B501C801D7DB0A0D43
:100D90001B1D1BDC64E088EC38DCD6018D919C9136
:100DA0001197680E791E6D927C92B9815B1618F0CE
:100DB0006814790458F088EF07DE82958170E88521
:100DC000F985928180FB91F992830BC0EE2009F4A2
:100DD0008CCF6C817D818E819F816AD686CF80EF9A
:100DE000F82E8F2D29960FB6F894DEBF0FBECDBF1B
:100DF000DF91CF911F910F91FF90EF90DF90CF90F7
:100E0000BF90AF909F908F907F906F905F904F902A
:100E10003F902F9008958F929F92AF92BF92CF9262
:100E2000DF92EF920F931F93CF93DF9300D01F9227
:100E3000CDB7DEB76C01590148011C821B821A82B2
:100E400019828E010F5F1F4F9E012D5F3F4F0E9441
:100E50000C13811108C049815A816B817C81840106
:100E60009501C60106DF0F900F900F900F90DF9154
:100E7000CF911F910F91EF90DF90CF90BF90AF90E7
:100E80009F908F900895CF92DF92EF92FF920F93F1
:100E90001F93CF93DF93CDB7DEB72E970FB6F8949D
:100EA000DEBF0FBECDBFFC012089211102C010E0C2
:100EB0007DC06C01E4D7F60104851585268537854C
:100EC000DC01CB01801B910BA20BB30BB7FDEFCF65
:100ED00081E090E09E878D87E12C8E010F5F1F4F90
:100EE0009E01235F3F4F41E062858281938193DFC2
:100EF00081114FC001E082E0F82E89818F21C1F07D
:100F000019861A861B861C86AE01475F5F4F602FCD
:100F1000C6010E94011481110BC0AE01475F5F4FF3
:100F2000602FC6010E94BE11813B89F1811131C041
:100F3000FF0C0F5F083009F701E0F6018385801789
:100F400030F119861A861B861C86AE01475F5F4FFB
:100F5000602FC6010E940114811117C089859A85EE
:100F6000877091708130914081F48B859C85816080
:100F70009C878B87AE01475F5F4F602FC6010E9441
:100F8000BE11813B21F0811104C00F5FD6CF10E06C
:100F900001C0182F74D7DC01CB018C599F4FAF4F84
:100FA000BF4FF60184879587A687B787812F2E9636
:100FB0000FB6F894DEBF0FBECDBFDF91CF911F916A
:100FC0000F91FF90EF90DF90CF9008952F923F9276
:100FD0004F925F926F927F928F929F92AF92BF9249
:100FE000CF92DF92EF92FF920F931F93CF93DF93F5
:100FF000CDB7DEB762970FB6F894DEBF0FBECDBF98
:101000003C01F42E322E202E5C2D48A459A4CAA4F3
:10101000DBA41E861D861C861B868E01055F1F4F66
:101020009E01235F3F4F598B0E940C1359898111F8
:1010300097C039822A82EB825C83BE82AD82988619
:101040008F82AE014F5F5F4F68E080E2C0DA2B8590
:101050003C854F2D60E1C301CEDC182F81117CC08F
:10106000232C221C2224221CC114D10409F468C0A0
:10107000ED85FE858281222009F454C0826082833E
:10108000540133243394A114B10409F448C05A869E
:1010900049864B855C856D857E85E12C86019E01A8
:1010A000275F3F4FC301E5DD182F8630A9F42D855A
:1010B0003E8588EF298B3A8B87DC85FB882780F972
:1010C000832529893A89D90112969C91129780FB30
:1010D00091F912969C93D7CF81113EC0ECA5FDA546
:1010E0003097A1F00190F081E02D0190F081E02D8A
:1010F000C4018A199B09988B8F8769857A859E011F
:10110000215F3F4FA6018CA59DA5199589859A85DC
:10111000A81AB90A8415950508F0B5CF11C01111A8
:101120001BC013C0816082834B855C858601920160
:10113000BF01C301BFDC811113C02B853C850EC0EC
:101140002B853C85211003C009C02B853C8560EAB6
:101150004F2DC30150DC04C0812F02C060E8F8CFDE
:1011600062960FB6F894DEBF0FBECDBFDF91CF9170
:101170001F910F91FF90EF90DF90CF90BF90AF90B5
:101180009F908F907F906F905F904F903F902F90A7
:1011900008953F924F925F926F927F928F929F92AB
:1011A000AF92BF92CF92DF92EF92FF920F931F9375
:1011B000CF93DF93CDB7DEB7E8970FB6F894DEBFD5
:1011C0000FBECDBFDC011296ED90FC9013971A96DE
:1011D0003C9131110FC1822E342E962E3C01D70145
:1011E000ED91FC910190F081E02D60E0C70119952F
:1011F0008C01009709F400C1FC01C080D180C114AA
:10120000D10409F4FBC05301F4E0AF0EB11CDC01C2
:101210001196BC92AE9214968C92FE0131962F01DB
:101220009F0148E050E060E0D30112968D919C91BF
:1012300013970E94B113F80114828111E5C08980CF
:101240008D81893009F0DCC0D701ED91FC910280DD
:10125000F381E02D232D41E0692DC7011995F3019C
:101260008287882309F4CEC098859583482F60E053
:10127000828193810E948213982E882391F0D80155
:10128000CD92DC92D701ED91FC910480F581E02DA7
:10129000D3011A966C91C7011995F3011286192D85
:1012A000B7C0482D413208F040E2D801CD92DC921F
:1012B00041110AC0950142E0F30162858281938168
:1012C00068D98111A4C00FC050E09201D3011A96D1
:1012D0006C911A9712968D919C9113970E94B1135D
:1012E000811195C0E7CF1F921F925F924F921F927C
:1012F00088E08F9388E0882E912CA12CB12C99E264
:10130000C92EE12C06E020EA40E0F30162858281EB
:1013100093815CDE182F0F900F900F900F900F901D
:101320000F90811175C08B81D3011B968C931B97F5
:10133000820120E048E050E01A966C911A971296CC
:101340008D919C9113970E940B1A811160C04B8163
:101350005C8120E0F3016285828193810E940B1AF7
:10136000811155C0498150E08E010F5D1F4F20E073
:10137000D3011A966C911A9712968D919C9113979E
:101380000E940B1A811143C01F921F921F921F923D
:101390001F921F92812C912CC12CEE8009E020E03D
:1013A00040E0F30162858281938110DE182F0F9057
:1013B0000F900F900F900F900F90811129C001E0B6
:1013C000D3011B968C911B97801738F0402F68E053
:1013D000C3010E942D140F5FF3CF1296ED91FC9183
:1013E0001397EA58FF4F80818460808381E0509694
:1013F0008C930EC019ED0CC016ED0AC017ED08C095
:1014000011ED06C014ED04C0F801D182C082182F7E
:10141000812FE8960FB6F894DEBF0FBECDBFDF91E7
:10142000CF911F910F91FF90EF90DF90CF90BF90E1
:10143000AF909F908F907F906F905F904F903F9074
:1014400008951F93CF93DF9300D0CDB7DEB7182F49
:1014500080E591E06B839AD88FD8126019836B81F5
:101460006A8362E070E0CE01019668D8AED80F9032
:101470000F900F90DF91CF911F9108951F93CF93FD
:10148000DF931F92CDB7DEB7182F80E591E07ED8AD
:1014900073D8812F74D880E072D8898396D88981D7
:1014A0000F90DF91CF911F910895FC01538D448DD2
:1014B000252F30E0842F90E0821B930B541710F0FF
:1014C000CF9608950197089585E692E0EED021E049
:1014D000892B09F420E0822F0895EF92FF920F9359
:1014E0001F93CF93DF93EC0181E0888F9B8D8C8DD0
:1014F000981305C0E889F989808185FD23C0F62EFF
:101500000B8D10E00F5F1F4F0F731127E02E8C8D96
:10151000E8120BC00FB607FCFACFE889F989808181
:1015200085FFF5CFCE0160D1F2CF8B8DFE01E80FA4
:10153000F11DE35AFF4FF0820B8FEA89FB8980810E
:10154000806207C0EE89FF896083E889F98980811C
:101550008064808381E090E0DF91CF911F910F91B3
:10156000FF90EF900895CF93DF93EC01888D88234F
:10157000C1F0EA89FB89808185FD05C0A889B98908
:101580008C9186FD0EC00FB607FCF5CF808185FFDC
:10159000F2CFA889B9898C9185FFEDCFCE0124D1F6
:1015A000E8CFDF91CF9108951F920F920FB60F925F
:1015B00011240BB60F922F933F934F935F936F932A
:1015C0007F938F939F93AF93BF93EF93FF9385E6A2
:1015D00092E00AD1FF91EF91BF91AF919F918F91CE
:1015E0007F916F915F914F913F912F910F900BBE23
:1015F0000F900FBE0F901F9018951F920F920FB66D
:101600000F9211240BB60F922F938F939F93EF930A
:10161000FF93E0917502F09176028081E0917B0268
:10162000F0917C0282FD12C0908180917E028F5FDA
:101630008F7320917F02821751F0E0917E02F0E0DB
:10164000EB59FD4F958F80937E0201C08081FF9101
:10165000EF919F918F912F910F900BBE0F900FBE26
:101660000F901F901895FC01918D828D981761F055
:10167000828DDF01A80FB11D5D968C91928D9F5FC9
:101680009F73928F90E008958FEF9FEF0895FC0174
:10169000918D828D981731F0828DE80FF11D858D27
:1016A00090E008958FEF9FEF0895FC01918D228DBA
:1016B000892F90E0805C9F4F821B91098F7399273F
:1016C000089580E090E0892B19F0FEDE811125C09D
:1016D00080E090E0892B41F080E090E0892B21F0C0
:1016E0000E94000081111CC080E090E0892B41F035
:1016F00080E090E0892B21F00E940000811113C04E
:1017000080E090E0892BA1F080E090E0892B81F0CF
:101710000E94000081110AC008950E940000D8CFE5
:101720000E940000E1CF0E940000EACF0C9400006C
:1017300008953FB7F8948091600290916102A09162
:101740006202B091630226B5A89B05C02F3F19F035
:101750000196A11DB11D3FBFBA2FA92F982F882731
:10176000820F911DA11DB11DBC01CD0142E0660F8C
:10177000771F881F991F4A95D1F70895CF93DF935C
:10178000EC011A821B821C821D821E828F81988529
:10179000DC01ED91FC910480F581E02D69851995BE
:1017A00019861FA280E0DF91CF9108956E3584E005
:1017B000780739F06D3A9BE1790719F06E3276417E
:1017C00041F481E0493197E0590729F0413952400D
:1017D00011F080E008950895FC0187A10895FC01AF
:1017E000818508950E94451CFC01848DDF01A80FAE
:1017F000B11DA35ABF4F2C91848D90E001968F7339
:101800009927848FA689B7892C93A089B1898C9157
:1018100080648C93938D848D981306C00288F3891D
:10182000E02D80818F7D80830895362F90E0FC012C
:10183000EF57FE4F4491FC01EF5BFD4F2491FC01FB
:10184000E550FE4F9491992309F46BC0442309F4A9
:1018500055C050E0FA013197E231F10508F04EC071
:101860008827EE58FF4F8F4F0C943D1C80918000CD
:101870008F7707C0809180008F7D03C080918000AA
:10188000877F809380003AC084B58F7702C084B58B
:101890008F7D84BD33C08091B0008F7703C080916D
:1018A000B0008F7D8093B00029C0809190008F7729
:1018B00007C0809190008F7D03C080919000877F4A
:1018C000809390001BC08091A0008F7707C080910B
:1018D000A0008F7D03C08091A000877F8093A0002F
:1018E0000DC0809120018F7707C0809120018F7DEE
:1018F00003C080912001877F80932001E92FF0E0D1
:10190000EE0FFF1FE953FE4FA591B4918FB7F894E6
:10191000EC91311103C020952E2301C02E2B2C9366
:101920008FBF08951F93CF93DF93182FEB0155D6E8
:10193000209711F460E004C0CF3FD10531F461E09D
:10194000812FDF91CF911F9170CFE12FF0E0EF5702
:10195000FE4FE4914E2F50E0FA013197E231F1054C
:1019600008F09DC08827EC57FF4F8F4F0C943D1C0B
:1019700084B5806884BDC7BD97C084B5806284BDCE
:10198000C8BD92C080918000806880938000D09311
:101990008900C093880088C0809180008062809315
:1019A0008000D0938B00C0938A007EC0809180001D
:1019B000886080938000D0938D00C0938C0074C0A9
:1019C0008091B00080688093B000C093B3006CC079
:1019D0008091B00080628093B000C093B40064C076
:1019E00080919000806880939000D0939900C0937C
:1019F00098005AC080919000806280939000D093AC
:101A00009B00C0939A0050C08091900088608093A2
:101A10009000D0939D00C0939C0046C08091A00090
:101A200080688093A0008091A0008F7B8093A000AD
:101A3000D093A900C093A80037C08091A000806215
:101A40008093A000D093AB00C093AA002DC08091DA
:101A5000A00088608093A000D093AD00C093AC003C
:101A600023C080912001806880932001D0932901B8
:101A7000C093280119C080912001806280932001C9
:101A8000D0932B01C0932A010FC080912001886060
:101A900080932001D0932D01C0932C0105C0C03844
:101AA000D1050CF04CCF46CFDF91CF911F91089517
:101AB0008F929F92AF92BF92CF92DF92EF92FF925E
:101AC0006B017C0136DE4B015C01C114D104E104E1
:101AD000F104E9F02EDEDC01CB0188199909AA098D
:101AE000BB09883E9340A105B10578F321E0C21AF5
:101AF000D108E108F10888EE880E83E0981EA11C49
:101B0000B11CC114D104E104F10421F7DECFFF9030
:101B1000EF90DF90CF90BF90AF909F908F900895FF
:101B20008F929F92AF92BF92CF92DF92EF92FF92ED
:101B30000F931F93CF93DF93EC01022FEF80F88474
:101B4000D701ED91FC910190F081E02D6985C701ED
:101B500019956C01892B11F486ED8BC06CE271E054
:101B600080E090E0A5DF498560E08F819885CAD547
:101B7000182F882319F0F601148273C0D601149629
:101B80001C92D701ED91FC910190F081E02D6985C7
:101B9000C7011995009701F3FC0104836E01FAE077
:101BA000CF0ED11C960141E069858F8198850E94F6
:101BB000C902182F811155C0FF24F394FD8633E02C
:101BC00027E090E29E8784E08F87F88A998B8A8B42
:101BD0003B8B9C8B8D8B3E8B9F8B888F35E0398F19
:101BE0009A8F8B8F3C8F9D8F8E8F2F8F98A389A379
:101BF0002AA39BA38CA3960149E069858F819885D0
:101C00000E94C902182F81112CC068EC70E080E09E
:101C100090E04EDF1F921F921F921F921F921F9201
:101C2000812C912CA12CB12CC12CEE24E39409E041
:101C300020E04A8569858F819885C8D9182F0F9033
:101C40000F900F900F900F900F9081110AC0FA82A1
:101C5000FFA2CC57DF4F188219821A821B8280E0C4
:101C600008C0E881F9810480F581E02DCE01199545
:101C7000812FDF91CF911F910F91FF90EF90DF9017
:101C8000CF90BF90AF909F908F9008956F927F926A
:101C90009F92AF92BF92CF92DF92EF92FF920F93FB
:101CA0001F93CF93DF93CDB7DEB762970FB6F8944B
:101CB000DEBF0FBECDBFDC011796AD90BC9018976C
:101CC00019963C9131116CC0122F942E062F7C0175
:101CD000D501ED91FC910190F081E02D60E0C5010E
:101CE00019956C01009709F45DC0FC01608071805A
:101CF0006114710409F458C0C7010A969183808366
:101D000014839E012F5F3F4F42E150E060E0D70116
:101D100017968D919C91189724D5182FF6017182F2
:101D2000608281112EC089859A852B853C858E35F0
:101D3000F4E09F0739F08D3A4BE1940719F08E32A9
:101D4000964119F52931B7E03B0719F021393240A6
:101D5000E1F4D501ED91FC910280F381E02D292D74
:101D600040E0602FC5011995F70181878823F1F0C4
:101D70008885838764E170E080E090E099DE80EE02
:101D800016C08D3019F011EE01C011EDD701ED91A3
:101D9000FC910480F581E02DC7011995812F07C0C2
:101DA00089ED05C086ED03C087ED01C084ED629624
:101DB0000FB6F894DEBF0FBECDBFDF91CF911F915C
:101DC0000F91FF90EF90DF90CF90BF90AF909F90DA
:101DD0007F906F900895CF92DF92FF920F931F93A1
:101DE000CF93DF9300D01F92CDB7DEB78C01F62ED4
:101DF00019821A821B821C82462F61E1D8D44F2D92
:101E000060E1C801D4D44F2D64E0C80126D583E039
:101E1000C82ED12CAE014F5F5F4F6F2DC801F1D49A
:101E20008823C9F04F2D64E1C801C1D44F2D60E172
:101E3000C801BDD464E170E080E090E039DE0F902D
:101E40000F900F900F90DF91CF911F910F91FF9006
:101E5000DF90CF90089589819A81AB81BC819D7F6D
:101E600083309140A041B105E9F264E670E080E082
:101E700090E01EDE81E0C81AD10861F6D3CF2FB7FB
:101E8000F89460915C0270915D0280915E02909185
:101E90005F022FBF08952F923F924F925F926F92F1
:101EA0007F928F929F92AF92BF92CF92DF92EF92EA
:101EB000FF920F931F93CF93DF93CDB7DEB7A29717
:101EC0000FB6F894DEBF0FBECDBFDC0197962C9104
:101ED000222309F4EFC16C018C010C571F4FF8014C
:101EE00080819181A281B381892B8A2B8B2B09F46C
:101EF00097C1C5DFD8018D909D90AD90BC90DC015D
:101F0000CB0188199909AA09BB09893B9B40A10506
:101F1000B10508F085C11601F0E72F0E311C5601FE
:101F200003E0A00EB11C360118E2610E711C4601DF
:101F300020E5820E911CF12C81E0260138E8430E49
:101F4000511CD601A757BF4FB887AF83F601E257A0
:101F5000FF4FFA87E987860101571F4F1C870B87C0
:101F6000960120573F4F3E872D871896B88BAF8735
:101F70003596FA8BE98B0D5F1F4F1C8B0B8B2B5FFC
:101F80003F4F3E8B2D8B1396B88FAF8B3496FA8FC5
:101F9000E98F0C5F1F4F1C8F0B8F2C5F3F4F3E8FC5
:101FA0002D8F20E230E03A83298390E0FC01EE0F90
:101FB000FF1F8E0F9F1FF601E80FF91FE12C820112
:101FC0009E012F5F3F4F4285D60119966C9119975C
:101FD00017968D919C9118970E940B0789819A8181
:101FE000892B09F400C14114510409F4FCC0F20129
:101FF0008081883009F03CC0AF81B8858C91F501B3
:1020000090818917A9F18083882309F4ECC0D60157
:102010009596ED91FC919697309711F01995E3C044
:10202000FF2049F0B1E0FB1649F0E2E0FE1649F06E
:10203000E4E0F0E008C0E1E0F0E005C0E2E0F0E05C
:1020400002C0E3E0F0E0E558FE4FE491A6014855F8
:102050005F4FDA011C9211961C9288E011968C93C6
:102060001196EC5FE064EC936F2DC60120D4BBC0E9
:10207000EF81F8858081811113C0F601E557FF4F8C
:102080002081822F837109F4AEC031968081823223
:1020900008F4A9C090E0922BD1018D939C93A3C02A
:1020A000813009F0A0C0F5018081811102C080E873
:1020B0008083A985BA852C91EB85FC85808190E091
:1020C000A0E0B0E0DC0199278827B22BED85FE85E2
:1020D000408150E0542F4427EF85F8892081422B1E
:1020E00060E070E0842B952BA62BB72BF301808347
:1020F0009183A283B383E989FA89208130E0322F6A
:102100002227EB89FC894081242BF4013183208331
:10211000ED89FE89208130E0322F2227EF89F88D6A
:102120004081242BF40133832283E98DFA8D2081B1
:1021300030E0322F2227EB8DFC8D4081242BF401DF
:1021400035832483ED8DFE8D208130E0322F2227D0
:10215000F601E856FF4F4081242BF4013783268394
:10216000F301408951896289738984179507A6070D
:10217000B707C9F1EE24E394F501EB58FF4FE08275
:10218000F101B8978A019B01009510952095309533
:102190008901222733270F8F18A329A33AA38D0182
:1021A000222733270B831C832D833E8398010F8DB9
:1021B00018A12023312331832083411106C08823B5
:1021C00021F0F501E358FF4FE082511107C0992338
:1021D00029F021E0F501E758FF4F2083F301808BC0
:1021E000918BA28BB38BF394F4E0FF1609F462C0D9
:1021F000B1E0FB1629F0E2E0FE1621F087E003C013
:1022000083E001C085E0F2E02F0E311C0FEFA01A31
:10221000B00A14E0610E711C28E0820E911CC1CE40
:102220002EDED8016D937D938D939C931397F601C9
:1022300087A1882309F46FCE760138EAE30EF11CFA
:1022400088E0D7018C933601B9EA6B0E711CF3015B
:1022500010824601FAEA8F0E911C8FE0D4018C9314
:102260005601BBEAAB0EB11C80ECF501808310E097
:10227000A701612FC6011BD31F5F1430C9F7D70117
:102280001C92F3011082D4011C9280E4F50180833A
:102290005601F3E0AF0EB11C10E0D5018D915D0148
:1022A000882321F0A701612FC60101D31F5F1430DD
:1022B000A1F731CE80E0A2960FB6F894DEBF0FBE34
:1022C000CDBFDF91CF911F910F91FF90EF90DF90E5
:1022D000CF90BF90AF909F908F907F906F905F90C6
:1022E0004F903F902F9008951F920F920FB60F922C
:1022F00011242F933F938F939F93AF93BF9380911C
:102300005C0290915D02A0915E02B0915F023091FB
:102310005B0223E0230F2D3720F40196A11DB11D90
:1023200005C026E8230F0296A11DB11D20935B0274
:1023300080935C0290935D02A0935E02B0935F0273
:102340008091600290916102A0916202B09163025B
:102350000196A11DB11D8093600290936102A0932C
:102360006202B0936302BF91AF919F918F913F91B1
:102370002F910F900FBE0F901F901895CF92DF9264
:10238000EF92FF920F931F93CF938C01C62F7A0188
:10239000FA0180819181A281B3818130F3E09F07AE
:1023A000F1E0AF07B105E1F060F48115E1E09E07CF
:1023B000AE07B10551F181309140A140B10581F0E6
:1023C00087C0833021E0920720E1A207B10509F41C
:1023D00063C083309340A041B10509F45DC078C06B
:1023E00080915A02811174C04C2F61E1C801DFD184
:1023F0004C2F60E1C801DBD14C2F64E0C8012DD225
:1024000081E080935A0281EB64C0462F61E1C801EC
:10241000CED14C2F60E1C801CAD110925A02D80126
:102420001A968C911A978770C770880F880F880F3B
:10243000C82B1296ED90FC901397CC2309F448C05A
:102440006701B6E5CB0ED11C00E010E0F6018191EA
:1024500091916F010097D1F0DC01ED91FC91008426
:10246000F185E02D19958C1311C0055D1F4F000FEC
:10247000111FF701E00FF11F80819181DC01ED91C7
:10248000FC910480F581E02D199522C00F5F1F4F4C
:1024900000311105D9F61CC04C2F64E1C80187D169
:1024A0004C2F60E1C80183D164E170E080E090E0EE
:1024B000FFDAF8016285D70111962C9126952170DB
:1024C00067704C2F828193810E94BC0310925A0244
:1024D00080E0CF911F910F91FF90EF90DF90CF9010
:1024E0000895CF92DF92EF92FF920F931F93CF93B5
:1024F000DF936C017A018B01C0E0D0E0CE15DF05DF
:1025000089F0D8016D918D01D601ED91FC9101907A
:10251000F081E02DC6011995892B11F47E0102C0CE
:102520002196ECCFC701DF91CF911F910F91FF90C2
:10253000EF90DF90CF9008950F931F93CF93DF9389
:102540008C01C0E0D0E0F801EC0FFD1F6491662320
:1025500071F0E0916502F09166020190F081E02D4A
:1025600085E692E01995892B11F02196ECCFCE01EA
:10257000DF91CF911F910F91089588EF0E943E0A3D
:10258000807C8034A1F018F4882301F1089580380C
:1025900019F0803CB9F0089588ED0E943E0A81FD53
:1025A0000BC069EC88ED0E94210A82E00CC088ED26
:1025B0000E943E0A81FDF5CF6BEC88ED0E94210A56
:1025C00083E001C081E080936402089561ED88EDAD
:1025D0000E94210A10926402089590E0FC01EF5BD2
:1025E000FD4F2491FC01E550FE4F8491882399F022
:1025F00090E0880F991FFC01EF51FE4FA591B49117
:10260000FC01E953FE4F859194918FB7F894EC91BA
:10261000E22BEC938FBF08958F929F92BF92CF923F
:10262000DF92EF92FF920F931F93CF93DF931F924E
:10263000CDB7DEB74C01B62E690149830E94710205
:102640007C014981009709F44BC0DC01ED91FC91BC
:102650001197309709F446C013969C9180E0891732
:1026600031F02081241729F033968F5FF8CFE0E016
:10267000F0E0D601ED93FC933097B1F122812695DD
:10268000269530E02031310514F02FE030E081E074
:1026900090E0A0E0B0E004C0880F991FAA1FBB1F04
:1026A0002A95D2F70197F801918380836B2D80EEF4
:1026B0000E94050388ED0E94E404682FD701149658
:1026C0008C91882339F0F401EA58FF4F80818260B1
:1026D000682B01C0697F88ED0E94050380E005C07A
:1026E00086ED03C087ED01C08BED0F90DF91CF9198
:1026F0001F910F91FF90EF90DF90CF90BF909F9030
:102700008F9008958F929F92AF92BF92CF92EF9247
:102710000F93CF931F921F921F921F921F921F928F
:10272000812C912CA12CB12CC12CE42E05E020E0B1
:1027300040E00E94E607C82F6CE271E080E090E084
:10274000B7D90F900F900F900F900F900F908C2F84
:10275000CF910F91EF90CF90BF90AF909F908F90BF
:1027600008958F929F92AF92BF92CF92EF920F9364
:102770001F921F923F932F935F934F934A01A12C77
:10278000B12CCC24C394E12C06E020E840E00E9468
:10279000E6070F900F900F900F900F900F900F91F2
:1027A000EF90CF90BF90AF909F908F9008958F92B1
:1027B0009F92AF92BF92CF92EF920F93A42EB12C23
:1027C0001F921F921F921F921F921F92812C912C79
:1027D000C12CE62E01E023E240E0FC01628582810B
:1027E00093810E94E6070F900F900F900F900F902B
:1027F0000F900F91EF90CF90BF90AF909F908F90E0
:1028000008958F929F92AF92BF92CF92EF920F93C3
:10281000A62EB12C1F921F925F934F931F9224E01C
:102820002F9324E0822E912CC12CE12C00E023EA8E
:1028300040E0FC016285828193810E94E6070F904F
:102840000F900F900F900F900F900F91EF90CF90EF
:10285000BF90AF909F908F9008958F929F92AF926C
:10286000BF92CF92EF920F93A42EB12C1F921F9282
:102870001F921F921F921F92812C912CC12CE62E29
:1028800003E023E240E0FC016285828193810E94A3
:10289000E6070F900F900F900F900F900F900F91F1
:1028A000EF90CF90BF90AF909F908F900895CF9270
:1028B000DF92EF92FF920F931F93CF93DF9300D09D
:1028C0001F92CDB7DEB7613039F050F0623031F091
:1028D000633091F528E005C024E003C026E001C084
:1028E00022E07A01DC0130E0F901EE0FFF1F2E0F2C
:1028F0003F1FFD01E20FF31F428519966C91199756
:102900001796CD90DC9018971C821B821A82198230
:102910008E010F5F1F4F9E012D5F3F4FC6017CDE72
:1029200081110AC049815A816B817C81870124E031
:1029300030E0C6010E945A050F900F900F900F9043
:10294000DF91CF911F910F91FF90EF90DF90CF908B
:102950000895CF93DF9300D000D0CDB7DEB7789441
:1029600084B5826084BD84B5816084BD85B5826094
:1029700085BD85B5816085BD80916E008160809345
:102980006E001092810080918100826080938100AE
:1029900080918100816080938100809180008160BE
:1029A000809380008091B10084608093B100809119
:1029B000B00081608093B00080919100826080932C
:1029C00091008091910081608093910080919000AE
:1029D0008160809390008091A10082608093A1002B
:1029E0008091A10081608093A1008091A00081600E
:1029F0008093A000809121018260809321018091C9
:102A00002101816080932101809120018160809368
:102A1000200180917A00846080937A0080917A000E
:102A2000826080937A0080917A00816080937A003E
:102A300080917A00806880937A001092C100E091C2
:102A40007502F091760282E08083E0917102F0914C
:102A500072021082E0917302F091740280E180832F
:102A600010927D02E0917902F0917A0286E08083F3
:102A7000E0917702F0917802808180618083E0911B
:102A80007702F0917802808188608083E0917702FC
:102A9000F0917802808180688083E0917702F091E4
:102AA000780280818F7D8083209A0E94E5021FB783
:102AB000F89480915202811121C0E0E3F2E0849108
:102AC000E6E7F2E09491E82FF0E0EE0FFF1FEF5100
:102AD000FE4FA591B491EC91E92321F461E085E3E7
:102AE0000E94150C85E379DD8CB580618CBD8CB5B9
:102AF00080648CBD84E371DD83E36FDD80915202DD
:102B00008F5F809352021FBF209A0E94E5026E9849
:102B100068E188E80E94210A60E288E70E94210AB1
:102B200060E088E70E94210A01E010E0011511052C
:102B300009F422C388E60E943E0A0F5F1F4F80FF00
:102B4000F5CF61EC88ED0E94210A60E680ED0E94DD
:102B5000210A64E088EE0E94210A88EE0E943E0A63
:102B600082FFFBCF0ADD60E288EC0E94210A61E06F
:102B700080E80E94210A80E491E0DEDC2224239494
:102B8000312C66990CC088EC0E94E40485FF03C0D8
:102B9000F4DC60E201C060E088EC0E9405038091F3
:102BA0006402813041F058F0823091F0833049F571
:102BB000FF24F3940EC023E12093020322C08091EE
:102BC0000203807F8031E9F031E13093020319C0C4
:102BD000F12C80910203807F8031A1F450D9DC0177
:102BE000CB0188539F4FAF4FBF4F809354029093B8
:102BF0005502A0935602B093570280E280930203DD
:102C000001C0F12C8AE1C82E84E0D82E8601D801BB
:102C10008D919D918D01009739F0DC01ED91FC9132
:102C20000680F781E02D1995B4E00A331B0779F788
:102C300080910203803409F443C050F4803231F1B2
:102C40008033C1F1813109F089C010923A040AC081
:102C5000813509F45DC0803809F46EC0803509F013
:102C60007DC03FC0F601819191916F01009739F0CD
:102C7000DC01ED91FC910480F581E02D1995BAE31A
:102C8000CB16B4E0DB0671F782E166C0F8D800919C
:102C90005402109155022091560230915702DC01E6
:102CA000CB01801B910BA20BB30BB7FD57C080E388
:102CB0008093020361E088EE0E94050380E44CC02B
:102CC00088EE0E94E40480FD49C088ED0E94E4047F
:102CD000682F686088ED0E940503E0E5E093020339
:102CE0003DC088EC0E94E40486FF38C081E58093F3
:102CF0000203C5D8DC01CB014496A11DB11D809310
:102D0000540290935502A0935602B093570226C0E6
:102D1000B6D800915402109155022091560230917C
:102D20005702DC01CB01801B910BA20BB30BB7FD4B
:102D300015C080E8809302032F2D40E060E084EC12
:102D400093E00E94BC03882331F0823D39F08093E8
:102D5000530280EA01C080E9809302032091670357
:102D6000309168032D34FDE13F07ACF0C901330F0A
:102D7000AA0BBB0B9C01AD012C543D4141095109EB
:102D8000AFEFB0E0A5D423EB32E640E050E084D4CE
:102D9000CA01B9011CC0243B42EE3407E4F4C90166
:102DA000330FAA0BBB0B9C01AD01215030484F4F94
:102DB0005F4FAFEFB0E08CD423EB32E640E050E061
:102DC0006BD4CA01B9016F5F71098109910951D3AF
:102DD0006B017C0103C0C12CD12C760120916B03C7
:102DE00030916C032D345DE13507ACF0C901330F30
:102DF000AA0BBB0B9C01AD012C543D41410951096B
:102E0000AFEFB0E065D423EB32E640E050E044D4CD
:102E1000CA01B9011CC0243B62EE3607E4F4C901C3
:102E2000330FAA0BBB0B9C01AD01215030484F4F13
:102E30005F4FAFEFB0E04CD423EB32E640E050E020
:102E40002BD4CA01B9016F5F71098109910911D3AE
:102E50004B015C0103C0812C912C540160913D0316
:102E600080913E036B3028F070E080E090E0FFD26C
:102E70000AC0682F70E0719561957109072E000CEA
:102E8000880B990BF6D269837A838B839C83E7E561
:102E9000F1E08591949120915D0330915E03AC0146
:102EA00040955095DA01A223B323BE83AD838223DC
:102EB0009323892B01F14090040250900502609009
:102EC00006027090070220E030E040E85FE3C301B3
:102ED000B201C9D287FF0FC02DEC3CEC4CEC5DE396
:102EE000C301B20131D46093040270930502809350
:102EF000060290930702EBE5F1E0859194918C0135
:102F000000951095ED81FE810E231F238E239F23B4
:102F1000892BF9F04090040250900502609006025F
:102F20007090070220E030E0A901C301B201A1D4F2
:102F300018167CF42DEC3CEC4CEC5DE3C301B201C3
:102F400002D460930402709305028093060290936A
:102F50000702E9E5F1E0859194919C012095309577
:102F6000A901402351235E834D8308231923012B9C
:102F700001F14090000250900102609002027090B6
:102F8000030220E030E040E85FE3C301B2016BD20E
:102F900087FF0FC020E030E040EA50E4C301B201F7
:102FA000D3D3609300027093010280930202909346
:102FB0000302EDE5F1E0859194919C012095309517
:102FC0006D817E812623372330935E0320935D033A
:102FD00086239723892BF9F040900002509001023C
:102FE000609002027090030220E030E0A901C3016A
:102FF000B2013FD418167CF420E030E040EA50E4FF
:10300000C301B201A0D360930002709301028093C8
:103010000202909303028091580290915902019606
:10302000843191052CF490935902809358029BC0EF
:1030300010925902109258024090040250900502DA
:103040006090060270900702A3019201C501B401CD
:103050006FD24B015C01A3019201C701B60168D296
:103060009058D6D38B0177FF09C030920403209289
:10307000030300271127061B170B04C0109204033B
:10308000109203036091030380910D030E94150CBD
:10309000B80180910F030E94920C6091030380910C
:1030A00011030E94150CB801809113030E94920C29
:1030B000C501B401ADD38B0177FF09C03092040381
:1030C0002092030300271127061B170B04C0109240
:1030D00004031092030360910303809111030E9483
:1030E000150CB801809113030E94920C69817A81BA
:1030F0008B819C818DD36B017C015B0177FF09C0C3
:10310000309204032092030300271127061B170B9C
:1031100005C010920403109203038B016091030316
:10312000809105030E94150CB801809107030E944D
:10313000920CB7FE09C03092040320920303AA2424
:10314000BB24AC18BD0804C0109204031092030302
:1031500060910303809109030E94150CB5018091D1
:103160000B030E94920C61E070E080E090E00E940E
:10317000580D0E94610B05CD8CE291E0DDD9FFCFA7
:10318000CF93DF93109268021092670288EE93E06B
:10319000A0E0B0E08093690290936A02A0936B0272
:1031A000B0936C028CE092E090936602809365028B
:1031B00085EC90E0909372028093710284EC90E031
:1031C000909374028093730280EC90E09093760267
:1031D0008093750281EC90E090937802809377025F
:1031E00082EC90E090937A028093790286EC90E0F2
:1031F00090937C0280937B0210927E0210927F0259
:103200001092800210928102809104018460809368
:103210000401809105018460809305018CE492E0B3
:103220009093C5038093C4031092C9031092CC03FA
:1032300081E08093CD031092CE0386EC93E09093CF
:10324000CB038093CA031092C60388E08093C70320
:103250008CE38093C80380E090E041E026EC33E00B
:10326000FC01EC53FC4F158646871786348723876D
:1032700005968B349105A1F710923A0481E1809371
:10328000020386E392E090933C0480933B0484EC39
:1032900093E090933E0480933D0410924504109275
:1032A0004604109247041092480410924904109268
:1032B0004A0410924B0410923F0488E0809340042B
:1032C0009CE39093410491E09093420480934304E3
:1032D00084E080934404EAE1F4E080E090E021910E
:1032E0003191232B51F4880F991FFC01E65EFB4FAF
:1032F0008BE394E09183808304C001968031910533
:1033000071F78EE192E0909316038093150384EC9D
:1033100093E090931D0380931C0310921E03109260
:103320003C03A0E2B3E080E090E0FD013197108221
:10333000009711F428E001C020E02C93FC01EE0F6F
:10334000FF1FEF01C80FD91FCF5DDC4F28812E7FF3
:103350002D7F2883009711F42FE001C021E0E80FB2
:10336000F91FEF5DFC4F220F220F30813370232BAA
:1033700020830196139689309105B9F6EAE1F4E0CD
:1033800080E090E021913191232B51F4880F991F17
:10339000FC01E65EFB4F85E193E09183808304C0EE
:1033A00001968031910571F7109204031092030386
:1033B00086E190E0909306038093050382E090E01D
:1033C000909308038093070388E190E090930A03A9
:1033D0008093090383E090E090930C0380930B03A8
:1033E00088E290E090930E0380930D038BE090E0D1
:1033F0009093100380930F0386E290E09093120362
:10340000809311038AE090E0909314038093130358
:10341000DF91CF9108958F929F92AF92BF92CF92FA
:10342000EF920F931F931F921F921F930F935F931F
:103430004F934A01A12CB12C32E0C32EE22E06E0BC
:1034400020E840E00E94E6070F900F900F900F9049
:103450000F900F901F910F91EF90CF90BF90AF9072
:103460009F908F90089540D008F481E00895E894EB
:1034700009C097FB3EF490958095709561957F4FBC
:103480008F4F9F4F9923A9F0F92F96E9BB2793956A
:10349000F695879577956795B795F111F8CFFAF47A
:1034A000BB0F11F460FF1BC06F5F7F4F8F4F9F4FAB
:1034B00016C0882311F096E911C0772321F09EE809
:1034C000872F762F05C0662371F096E8862F70E06F
:1034D00060E02AF09A95660F771F881FDAF7880F49
:1034E0009695879597F90895990F0008550FAA0B9F
:1034F000E0E8FEEF16161706E807F907C0F0121607
:103500001306E407F50798F0621B730B840B950B09
:1035100039F40A2661F0232B242B252B21F408955E
:103520000A2609F4A140A6958FEF811D811D0895FB
:103530000BD078C069D028F06ED018F0952309F030
:103540005AC05FC01124A2C07ED0A0F3959FD1F3D2
:10355000950F50E0551F629FF001729FBB27F00D41
:10356000B11D639FAA27F00DB11DAA1F649F662796
:10357000B00DA11D661F829F2227B00DA11D621FE5
:10358000739FB00DA11D621F839FA00D611D221F9F
:10359000749F3327A00D611D231F849F600D211D83
:1035A000822F762F6A2F11249F5750408AF0E1F026
:1035B00088234AF0EE0FFF1FBB1F661F771F881F6F
:1035C00091505040A9F79E3F510570F014C05EC065
:1035D0005F3FECF3983EDCF3869577956795B7955A
:1035E000F795E7959F5FC1F7FE2B880F911D969584
:1035F000879597F9089597F99F6780E870E060E0F4
:1036000008959FEF80EC089500240A94161617067B
:1036100018060906089500240A94121613061406C3
:1036200005060895092E0394000C11F4882352F026
:10363000BB0F40F4BF2B11F460FF04C06F5F7F4FDE
:103640008F4F9F4F089557FD9058440F551F59F0C5
:103650005F3F71F04795880F97FB991F61F09F3F7F
:1036600079F087950895121613061406551FF2CFA8
:103670004695F1DF08C0161617061806991FF1CFF8
:1036800086957105610508940895E894BB2766271F
:103690007727CB0197F90895052E97FB16F4009430
:1036A0000FD057FD05D01ED007FC02D046F408C04D
:1036B00050954095309521953F4F4F4F5F4F08955E
:1036C00090958095709561957F4F8F4F9F4F08958E
:1036D0002BD0A59F900DB49F900DA49F800D911DA0
:1036E00011240895A1E21A2EAA1BBB1BFD010DC0D7
:1036F000AA1FBB1FEE1FFF1FA217B307E407F507A2
:1037000020F0A21BB30BE40BF50B661F771F881F7D
:10371000991F1A9469F760957095809590959B0113
:10372000AC01BD01CF010895A29FB001B39FC001BC
:10373000A39F700D811D1124911DB29F700D811DDD
:103740001124911D08955058BB27AA270ED06ACF87
:103750005BDF30F060DF20F031F49F3F11F41EF4A6
:1037600050CF0EF4E095E7FB46CFE92F6CDF80F3F6
:10377000BA17620773078407950718F071F49EF56E
:1037800084CF0EF4E0950B2EBA2FA02D0B01B901BA
:1037900090010C01CA01A0011124FF27591B99F0C7
:1037A000593F50F4503E68F11A16F040A22F232FD3
:1037B000342F4427585FF3CF469537952795A79523
:1037C000F0405395C9F77EF41F16BA0B620B730BCA
:1037D000840BBAF09150A1F0FF0FBB1F661F771F3B
:1037E000881FC2F70EC0BA0F621F731F841F48F4F0
:1037F000879577956795B795F7959E3F08F0B3CF76
:103800009395880F08F09927EE0F9795879508955F
:1038100004D06894B1113ACF08951DDF88F09F5706
:1038200090F0B92F9927B751A0F0D1F0660F771F0C
:10383000881F991F1AF0BA95C9F712C0B13081F0EC
:1038400024DFB1E0089521CF672F782F8827B85F54
:1038500039F0B93FCCF3869577956795B395D9F74D
:103860003EF490958095709561957F4F8F4F9F4F57
:1038700008953ADE08F48FEF0895EE0FFF1F881FBA
:103880008BBF0790F691E02D199481E090E0F894B9
:1038900007C0DC0101C06D9341505040E0F708952E
:0438A000F894FFCFCA
:1038A400000020420000803F000000006D0A7112F9
:1038B400550AB30A550B330B470B00000000900D5B
:1038C400460EBE0B4B0FEF0B9302D60B8F028D02ED
:1038D400EC0B00000000C9089A02770143079E011F
:1038E400EB0E910299018D02000000007102150295
:0238F400EE01E3
:020000023000CC
:10E000000D9489F10D94B2F10D94B2F10D94B2F129
:10E010000D94B2F10D94B2F10D94B2F10D94B2F1F0
:10E020000D94B2F10D94B2F10D94B2F10D94B2F1E0
:10E030000D94B2F10D94B2F10D94B2F10D94B2F1D0
:10E040000D94B2F10D94B2F10D94B2F10D94B2F1C0
:10E050000D94B2F10D94B2F10D94B2F10D94B2F1B0
:10E060000D94B2F10D94B2F10D94B2F10D94B2F1A0
:10E070000D94B2F10D94B2F10D94B2F10D94B2F190
:10E080000D94B2F10D94B2F10D94B2F10D94B2F180
:10E090000D94B2F10D94B2F10D94B2F10D94B2F170
:10E0A0000D94B2F10D94B2F10D94B2F10D94B2F160
:10E0B0000D94B2F10D94B2F10D94B2F10D94B2F150
:10E0C0000D94B2F10D94B2F10D94B2F10D94B2F140
:10E0D0000D94B2F10D94B2F10D94B2F10D94B2F130
:10E0E0000D94B2F141546D656761323536300041AF
:10E0F000726475696E6F206578706C6F72657220DE
:10E1000073746B3530305632206279204D4C530099
:10E11000426F6F746C6F616465723E004875683F52
:10E1200000436F6D70696C6564206F6E203D200048
:10E130004350552054797065202020203D20005FF9
:10E140005F4156525F415243485F5F3D2000415658
:10E1500052204C696243205665723D20004743437C
:10E160002056657273696F6E203D20004350552024
:10E1700049442020202020203D20004C6F7720663D
:10E18000757365202020203D20004869676820665F
:10E190007573652020203D200045787420667573D6
:10E1A00065202020203D20004C6F636B2066757336
:10E1B000652020203D20004D617220203720323024
:10E1C000313300312E362E3800342E332E350056A2
:10E1D00023202020414444522020206F7020636F70
:10E1E00064652020202020696E73747275637469E1
:10E1F0006F6E2061646472202020496E74657272B3
:10E20000757074006E6F20766563746F7200726A49
:10E210006D702020006A6D70200057686174207056
:10E220006F72743A00506F7274206E6F7420737541
:10E2300070706F72746564004D7573742062652030
:10E2400061206C6574746572002000577269747483
:10E25000696E672045450052656164696E672045B7
:10E26000450045452065727220636E743D00504F35
:10E27000525400303D5A65726F2061646472003FF1
:10E280003D43505520737461747300403D454550C3
:10E29000524F4D207465737400423D426C696E6B41
:10E2A000204C454400453D44756D70204545505215
:10E2B0004F4D00463D44756D7020464C415348001B
:10E2C000483D48656C70004C3D4C69737420492F83
:10E2D0004F20506F72747300513D51756974005234
:10E2E0003D44756D702052414D00563D73686F7707
:10E2F00020696E7465727275707420566563746FF0
:10E30000727300593D506F727420626C696E6B00BD
:10E310002A0011241FBECFEFD1E2DEBFCDBF01E046
:10E320000CBF12E0A0E0B2E0EEE1FDEF03E00BBFB6
:10E3300002C007900D92A030B107D9F712E0A0E01B
:10E34000B2E001C01D92AE30B107E1F70F9460F367
:10E350000D948DFE01E20EBF0FEF0DBF11241FBE05
:10E360000D9460F30D9400F020E030E040ED57E0B4
:10E3700005C0FA013197F1F72F5F3F4F2817390792
:10E38000C0F308959C01260F311DC901A0E0B0E043
:10E390002F5F3F4FABBFFC018791882361F08093D3
:10E3A000C6008091C00086FFFCCF8091C0008064D1
:10E3B0008093C000EACF08958DE08093C6008091DD
:10E3C000C00086FFFCCF8091C00080648093C000B5
:10E3D0008AE08093C6008091C00086FFFCCF8091C8
:10E3E000C00080648093C00008950F94C2F10F9420
:10E3F000DCF10895FC019081992359F09093C600B7
:10E400008091C00086FFFCCF8091C0008064809323
:10E41000C0003196992379F70895282F982F929567
:10E420009F70892F805D8A3308F0895F8093C600D2
:10E430008091C00086FFFCCF8091C00080648093F3
:10E44000C000822F8F70982F905D9A3308F0995FEB
:10E450009093C6008091C00086FFFCCF8091C000E1
:10E4600080648093C00008959C01FB01853691056E
:10E470001CF46330710594F0C90164E670E00F94F8
:10E480002EFE605D7F4F6093C6008091C00086FFC6
:10E49000FCCF8091C00080648093C0002B30310598
:10E4A00014F43297B4F0C90164E670E00F942EFEC4
:10E4B0006AE070E00F942EFE605D7F4F6093C600AF
:10E4C0008091C00086FFFCCF8091C0008064809363
:10E4D000C000C9016AE070E00F942EFEC0968093E0
:10E4E000C6008091C00086FFFCCF8091C000806490
:10E4F0008093C00008951F93182F8EE692EE60E07F
:10E500000F94C2F11093C6008091C00086FFFCCF2B
:10E510008091C00080648093C0000F94DCF11F9153
:10E5200008952F923F924F925F926F927F928F92B7
:10E530009F92AF92BF92CF92DF92EF92FF920F9392
:10E540001F93DF93CF93CDB7DEB762970FB6F894E2
:10E55000DEBF0FBECDBF382E622ECA01DB015C01CB
:10E560006D01772420E2222E2E010894411C511CBB
:10E570008BC081E0A81680E0B80681E0C80680E084
:10E58000D80628F0C601AA27BB270F940DF2BB2797
:10E59000AD2D9C2D8B2D0F940DF28A2D0F940DF225
:10E5A0002092C6008091C00086FFFCCF8091C00001
:10E5B00080648093C0009DE29093C6008091C0006B
:10E5C00086FFFCCF8091C00080648093C0002092C1
:10E5D000C6008091C00086FFFCCF8091C00080649F
:10E5E0008093C00019828601750188249924A1E0D6
:10E5F0003A1651F03A1620F0B2E03B1661F409C029
:10E600000BBFF701779007C0C7010F9477FE782EF4
:10E6100002C0F7017080872D0F940DF22092C60082
:10E620008091C00086FFFCCF8091C0008064809301
:10E63000C000872D8052F401EF70F0708F3520F408
:10E64000E40DF51D708204C0E40DF51D8EE280839B
:10E650000894E11CF11C011D111D0894811C911CE2
:10E6600090E18916910409F0C2CF80E190E0A0E02A
:10E67000B0E0A80EB91ECA1EDB1E198AC2010F9493
:10E68000FAF10F94DCF16A94662009F072CF629679
:10E690000FB6F894DEBF0FBECDBFCF91DF911F91B3
:10E6A0000F91FF90EF90DF90CF90BF90AF909F9031
:10E6B0008F907F906F905F904F903F902F90089534
:10E6C0002F923F924F925F926F927F928F929F9282
:10E6D000AF92BF92CF92DF92EF92FF920F931F9370
:10E6E000DF93CF93CDB7DEB7CD53D1400FB6F894BB
:10E6F000DEBF0FBECDBF01E20EBF0FEF0DBF94B75F
:10E70000F894A89514BE80916000886180936000A1
:10E7100010926000789493FF05C0E0910002F091A0
:10E7200001021995279A2F9A8091C00082608093E8
:10E73000C00080E18093C40088E18093C1000000A4
:10E74000EE24FF24870144E0A42EB12CCC24DD2448
:10E7500024C0C5010197F1F70894E11CF11C011DCB
:10E76000111D21E2E2162EE4F20620E0020720E06D
:10E77000120718F031E0C32ED12CC801B70127ECE5
:10E780003BE140E050E00F9441FE611571058105C9
:10E79000910519F485B1805885B98091C00087FD35
:10E7A00003C0C114D104A9F2A6014F5F5F4FC25E3E
:10E7B000DE4F59834883CE51D140C25EDE4F8881FF
:10E7C0009981CE51D140019711F00D9410FEC05D9A
:10E7D000DE4F19821882C053D14060E0C15DDE4F28
:10E7E0001882CF52D14088249924C35DDE4F19820C
:10E7F0001882CD52D140C05EDE4F188219821A8233
:10E800001B82C052D140CE5CDE4F188219821A8220
:10E810001B82C253D140EE24FF2487010BBFF701B6
:10E8200007911691C45CDE4F19830883CC53D14005
:10E830000D940BFEC25EDE4F28813981CE51D1404E
:10E840002130310509F52091C600C25EDE4F1982E4
:10E850001882CE51D14022C02F5F3F4F4F4F5F4FA4
:10E86000213082E138078AE7480780E0580780F0C6
:10E87000C45CDE4FE881F981CC53D140EF5FFF4F9C
:10E8800019F0EE27FF27099420E030E040E050E047
:10E890008091C00087FFE0CF2091C600C35DDE4FAE
:10E8A00048815981CD52D1404F5F5F4FC35DDE4FEC
:10E8B00059834883CD52D140213209F063C64A3092
:10E8C000510508F05FC60894811C911C53E0851621
:10E8D000910409F059C600E010E018C081E280936D
:10E8E000C6008091C00086FFFCCF8091C00080648C
:10E8F0008093C0002F5F3F4F2931310579F70F9486
:10E90000DCF10F5F1F4F0530110519F020E030E0FA
:10E91000E5CF10920A0210920B0210920C02109294
:10E920000D02109206021092070210920802109235
:10E930000902109202021092030210920402109235
:10E9400005028FEE90EE60E00F94F5F180E191EE1C
:10E9500060E00F94C2F18091C00087FFFCCF9091DE
:10E96000C600903608F09F759032B8F09093C600BC
:10E970008091C00086FFFCCF8091C00080648093AE
:10E98000C000A0E2A093C6008091C00086FFFCCF2B
:10E990008091C00080648093C000983409F4D7C18E
:10E9A0009934B8F4923409F459C1933458F490333B
:10E9B00019F1903308F4E3C59F33A1F1903409F0C5
:10E9C000DEC5BDC0953409F470C1963409F0D7C5D1
:10E9D00098C1923509F42BC2933538F49C3409F46C
:10E9E000F5C1913509F0CBC518C2963509F445C279
:10E9F000993509F0C4C567C483E792EE62E00F94CD
:10EA0000F5F110920602109207021092080210927D
:10EA1000090210920A0210920B0210920C0210923C
:10EA20000D0213C18FE792EE62E00F94F5F18FEEC5
:10EA300090EE60E00F94F5F181E291EE60E00F94CA
:10EA4000C2F187EB91EE60E00F94F5F180E391EE77
:10EA500060E00F94C2F184EE90EE60E00F94F5F167
:10EA60008FE391EE60E00F94C2F186E090E061E008
:10EA700070E00F9434F20F94DCF18DE591EE60E0DC
:10EA80000F94C2F189EC91EE60E00F94F5F18EE401
:10EA900091EE60E00F94C2F183EC91EE60E00F9490
:10EAA000F5F18CE691EE60E00F94C2F18EE10F94E7
:10EAB0000DF288E90F940DF281E00F940DF20F949E
:10EAC000DCF18BE791EE60E00F94C2F119E0E0E039
:10EAD000F0E010935700E4918E2F0F940DF20F94F5
:10EAE000DCF18AE891EE60E00F94C2F1E3E0F0E03F
:10EAF00010935700E4918E2F0F940DF20F94DCF1D8
:10EB000089E991EE60E00F94C2F1E2E0F0E0109349
:10EB10005700E4918E2F0F940DF20F94DCF188EAE8
:10EB200091EE60E00F94C2F1E1E0F0E01093570045
:10EB30001491812F0F940DF20F94DCF107CF8BE825
:10EB400092EE62E00F94F5F18BE492EE60E00F94A8
:10EB5000F5F10F94DCF100E010E019C0C8016F2D51
:10EB60000F947FFEFF2031F489E492EE60E00F9471
:10EB7000C2F10BC0F092C6008091C00086FFFCCFAE
:10EB80008091C00080648093C0000F5F1F4FC80158
:10EB900081519F41A0E0B0E0ABBFFC01F790BAE229
:10EBA000FB1621F0E2E000301E07C1F60F94DCF105
:10EBB0000F94DCF187E592EE60E00F94F5F10F948D
:10EBC000DCF1CC24DD2400E010E01EC0C8010F946D
:10EBD00077FEF82E882331F489E492EE60E00F94FA
:10EBE000C2F10BC08093C6008091C00086FFFCCFAD
:10EBF0008091C00080648093C000FE1419F00894D6
:10EC0000C11CD11C0F5F1F4FC80181519F41A0E063
:10EC1000B0E0ABBFFC01E790FAE2EF1621F022E092
:10EC20000030120799F60F94DCF10F94DCF182E6C4
:10EC300092EE60E00F94C2F1C60161E070E00F94C3
:10EC400034F20F94DCF10F94DCF110920202109276
:10EC50000302109204021092050278CE89E992EE26
:10EC600062E00F94F5F1279A2F9A16C02F9880E052
:10EC700090E0E0EDF7E03197F1F7019684369105E9
:10EC8000C1F72F9A80E090E0E0EDF7E03197F1F7DF
:10EC9000019684369105C1F78091C00087FFE6CFC9
:10ECA0008091C00087FFFCCF64C485EA92EE62E0E9
:10ECB0000F94F5F140910202509103026091040219
:10ECC0007091050281E020E10F9491F2809102029F
:10ECD00090910302A0910402B091050280509F4FD1
:10ECE000AF4FBF4F8093020290930302A0930402A0
:10ECF000B093050280509041A040B04008F426CE69
:10ED0000A4CF83EB92EE62E00F94F5F140910602FE
:10ED100050910702609108027091090280E020E1A1
:10ED20000F9491F28091060290910702A09108023F
:10ED3000B091090280509F4FAF4FBF4F80930602A2
:10ED400090930702A0930802B0930902FFCD80ECD4
:10ED500092EE62E00F94F5F183E792EE60E00F949B
:10ED6000F5F18FE792EE60E00F94F5F18BE892EE0B
:10ED700060E00F94F5F189E992EE60E00F94F5F10F
:10ED800085EA92EE60E00F94F5F183EB92EE60E09D
:10ED90000F94F5F180EC92EE60E00F94F5F187ECC2
:10EDA00092EE60E00F94F5F188ED92EE60E00F9442
:10EDB000F5F18FED92EE60E00F94F5F18AEE92EEB0
:10EDC00060E00F94F5F183E093EEBDCD87EC92EE19
:10EDD00062E00F94F5F181E40F947BF282E40F94EA
:10EDE0007BF283E40F947BF284E40F947BF285E45E
:10EDF0000F947BF286E40F947BF287E40F947BF20E
:10EE000088E40F947BF28AE40F947BF28BE40F94F6
:10EE10007BF28CE40F947BF299CD88ED92EE62E068
:10EE20000F94F5F1772473948824992409C48FED05
:10EE300092EE62E00F94F5F140910A0250910B02BC
:10EE400060910C0270910D0282E020E10F9491F22A
:10EE500080910A0290910B02A0910C02B0910D02D8
:10EE600080509F4FAF4FBF4F80930A0290930B0289
:10EE7000A0930C02B0930D0269CD8AEE92EE62E08F
:10EE80000F94F5F184EE90EE60E00F94F5F18FECC5
:10EE900091EE60E00F94F5F1662477244301CC5D98
:10EEA000DE4F19821882C452D140D401C301B695F5
:10EEB000A79597958795CA5DDE4F88839983AA8326
:10EEC000BB83C652D140CC5DDE4FA881B981C4520C
:10EED000D1401196CC5DDE4FB983A883C452D14096
:10EEE000CD0162E070E00F9434F2B0E2B093C6005E
:10EEF0008091C00086FFFCCF8091C0008064809329
:10EF0000C000EDE2E093C6008091C00086FFFCCF18
:10EF10008091C00080648093C000F0E2F093C6004E
:10EF20008091C00086FFFCCF8091C00080648093F8
:10EF3000C000CA5DDE4FE880F9800A811B81C6529D
:10EF4000D140BB27A12F902F8F2D0F940DF2CA5DBA
:10EF5000DE4F8881C652D1400F940DF2B0E2FB2EF5
:10EF6000F092C6008091C00086FFFCCF8091C00067
:10EF700080648093C0000DE30093C6008091C000C0
:10EF800086FFFCCF8091C00080648093C00010E2B7
:10EF90001093C6008091C00086FFFCCF8091C00016
:10EFA00080648093C0008BBEF3012791C65DDE4F65
:10EFB0002883CA52D140A22EBB24CC24DD2408943D
:10EFC000611C711C811C911C8BBEF3018791282E42
:10EFD0003324442455240894611C711C811C911C09
:10EFE0008BBEF3013791C55DDE4F3883CB52D140E4
:10EFF0000894611C711C811C911C8BBEF30147910C
:10F00000C45DDE4F4883CC52D140ADEFEA2EAFEF66
:10F01000FA2EAFEF0A2FAFEF1A2F6E0C7F1C801E57
:10F02000911E142D032DF22CEE24EA0CFB1C0C1D5A
:10F030001D1D0F940DF220E22093C6008091C000A8
:10F0400086FFFCCF8091C00080648093C000C65DC5
:10F05000DE4F8881CA52D1400F940DF230E23093D6
:10F06000C6008091C00086FFFCCF8091C000806404
:10F070008093C000C45DDE4F8881CC52D1400F9494
:10F080000DF240E24093C6008091C00086FFFCCFA5
:10F090008091C00080648093C000C55DDE4F888190
:10F0A000CB52D1400F940DF250E25093C6008091A4
:10F0B000C00086FFFCCF8091C00080648093C000B8
:10F0C0008FEFE8168FEFF80680E0080780E018075A
:10F0D00031F484E092EE60E00F94C2F1DFC0D80119
:10F0E000C7018070907CA070B0708050904CA040A0
:10F0F000B040D1F52FEF3FE340E050E0E222F322B1
:10F1000004231523CA5DDE4FA880B980CA80DB8046
:10F11000C652D140AE0CBF1CC01ED11EAA0CBB1CD7
:10F12000CC1CDD1C8EE092EE60E00F94C2F1BB2798
:10F13000A12F902F8F2D0F940DF28E2D0F940DF285
:10F1400030E23093C6008091C00086FFFCCF8091F2
:10F15000C00080648093C0004EE34093C60080915D
:10F16000C00086FFFCCF87C08EE09EEFA0E0B0E03D
:10F17000E822F9220A231B239CE0E91694E9F90608
:10F1800090E0090790E0190709F088C0C45DDE4FE0
:10F19000A881CC52D140EA2EFF2400E010E0102FCD
:10F1A0000F2DFE2CEE24C55DDE4FB881CB52D14031
:10F1B000EB0EF11C011D111DD601C501817090706F
:10F1C000A070B070DC0199278827E80EF91E0A1F8D
:10F1D0001B1F20EF30E040E050E0A222B322C42207
:10F1E000D52241E1AA0CBB1CCC1CDD1C4A95D1F7F1
:10F1F000EA0CFB1C0C1D1D1D81E090E0A0E0B0E0BE
:10F20000282239224A225B2235E1220C331C441C7D
:10F21000551C3A95D1F7E20CF31C041D151D57013E
:10F220006801AA0CBB1CCC1CDD1C85E192EE60E0E1
:10F230000F94C2F1C801AA27BB270F940DF2BB2778
:10F24000A12F902F8F2D0F940DF28E2D0F940DF274
:10F2500090E29093C6008091C00086FFFCCF809121
:10F26000C00080648093C000AEE3A093C60080918C
:10F27000C00086FFFCCF8091C00080648093C000F6
:10F28000C601AA27BB270F940DF2BB27AD2D9C2DDD
:10F290008B2D0F940DF28A2D0F940DF20F94DCF14B
:10F2A000CC5DDE4FE881F981C452D140F99709F471
:10F2B0004DCBF4E0EF2EF12C012D112D6E0C7F1CA7
:10F2C000801E911EF2CD83E093EE62E00F94F5F183
:10F2D0008AE192EE60E00F94C2F18091C00087FF56
:10F2E000FCCF1091C6001F751093C6008091C0001E
:10F2F00086FFFCCF8091C00080648093C0000F9493
:10F30000DCF1812F81548A3108F036C1163409F4BA
:10F3100095C0173490F4133409F44EC0143430F40B
:10F320001134F1F0123409F01DC130C0143409F465
:10F3300059C0153409F016C16BC01A3409F4C4C0A1
:10F340001B3438F4173409F48FC0183409F00AC19B
:10F35000A1C01B3409F4D2C01C3409F003C1E8C0B9
:10F360008FEF81B90DC082B1809582B980E090E0C5
:10F37000E0EDF7E03197F1F70196883C9105C1F790
:10F380008091C00087FFEFCF12B8EFC08FEF84B934
:10F390000DC085B1809585B980E090E0E0EDF7E0A3
:10F3A0003197F1F70196883C9105C1F78091C00033
:10F3B00087FFEFCF15B8D9C08FEF87B90DC088B1DF
:10F3C000809588B980E090E0E0EDF7E03197F1F7C3
:10F3D0000196883C9105C1F78091C00087FFEFCF6F
:10F3E00018B8C3C08FEF8AB90DC08BB180958BB9A7
:10F3F00080E090E0E0EDF7E03197F1F70196883C8E
:10F400009105C1F78091C00087FFEFCF1BB8ADC059
:10F410008FEF8DB90DC08EB180958EB980E090E0F0
:10F42000E0EDF7E03197F1F70196883C9105C1F7DF
:10F430008091C00087FFEFCF1EB897C08FEF80BBD1
:10F440000DC081B3809581BB80E090E0E0EDF7E0F6
:10F450003197F1F70196883C9105C1F78091C00082
:10F4600087FFEFCF11BA81C08FEF83BB0DC084B38C
:10F47000809584BB80E090E0E0EDF7E03197F1F714
:10F480000196883C9105C1F78091C00087FFEFCFBE
:10F4900014BA6BC08FEF809301010FC080910201FD
:10F4A00080958093020180E090E0E0EDF7E03197F5
:10F4B000F1F70196883C9105C1F78091C00087FF64
:10F4C000EDCF1092020151C08FEF809304010FC065
:10F4D0008091050180958093050180E090E0E0ED4A
:10F4E000F7E03197F1F70196883C9105C1F78091DB
:10F4F000C00087FFEDCF1092050137C08FEF8093DA
:10F5000007010FC08091080180958093080180E079
:10F5100090E0E0EDF7E03197F1F70196883C910536
:10F52000C1F78091C00087FFEDCF109208011DC088
:10F530008FEF80930A010FC080910B01809580931B
:10F540000B0180E090E0E0EDF7E03197F1F70196F4
:10F55000883C9105C1F78091C00087FFEDCF1092E4
:10F560000B0103C085E292EEEEC98091C00087FFD7
:10F57000FCCF8091C600EAC988E392EEE4C98CE131
:10F5800091EEE1C988249924933011F1943028F444
:10F59000913089F09230B8F408C0953061F195301F
:10F5A000F0F0963009F048C043C02B3109F042C951
:10F5B00091E06BE13FC96227C15DDE4F2883CF52E6
:10F5C000D14092E037C9B22FA0E0622793E032C960
:10F5D000822F90E0A82BB92B622794E02BC92E3004
:10F5E00009F039C3622795E0C05DDE4F19821882A9
:10F5F000C053D1401FC9E1E0F0E0EC0FFD1FC05D3A
:10F60000DE4F08811981C053D140E00FF11F2083E4
:10F610000F5F1F4FC05DDE4F19830883C053D14079
:10F6200062270A171B0709F005C9D80196E002C92D
:10F63000261709F010C303C0973009F0FBC87724E0
:10F640009981933109F412C19431C8F4963009F4C8
:10F65000D8C0973050F4923009F406C1933009F4C1
:10F660006DC0913009F059C253C0913109F477C08F
:10F67000923108F0BBC0903109F04FC2F5C098310B
:10F6800009F487C0993150F4953109F4EFC09531F0
:10F6900008F4C6C1963109F040C2C2C19A3109F4DA
:10F6A0006CC09A3108F491C09B3109F45BC09D3164
:10F6B00009F033C29D81903359F48F81882311F46E
:10F6C0009EE11CC0813011F091E018C098E916C08D
:10F6D000892F807591F0903539F4E0E0F0E089E011
:10F6E0008093570094910AC0983539F4E3E0F0E034
:10F6F00089E080935700949101C090E01A821B82A8
:10F700008D818C831D829E831F8227E030E009C299
:10F710001A8288E08B8381E48C8386E58D8382E581
:10F720008E8389E48F8383E5888780E589878FE5E9
:10F730008A8782E38B872BE030E0F3C18A818139AD
:10F7400041F0823941F0803911F48FE005C080E04A
:10F7500003C082E001C08AE01A828B8344C0772410
:10F76000739482C08D81882311F48EE12CC0813086
:10F7700011F081E028C088E926C01A82E1E0F0E0BB
:10F7800089E08093570084918B831C8224E030E0D1
:10F79000C8C18B81803589F48C81883039F4E2E0EE
:10F7A000F0E089E08093570084910DC0E0E0F0E044
:10F7B00089E080935700849106C0E3E0F0E089E09F
:10F7C0008093570084911A82DFCF8D81836C99E0FA
:10F7D000E1E0F0E0082E90935700E89507B600FCB2
:10F7E000FDCF1A821B8223E030E09BC180EC8A832C
:10F7F000CE5CDE4F188219821A821B82C253D1401E
:10F800008EC18A8190E0A0E0B0E0582F44273327D2
:10F8100022278B8190E0A0E0B0E0DC0199278827C7
:10F82000282B392B4A2B5B2B8D8190E0A0E0B0E098
:10F83000282B392B4A2B5B2B8C8190E0A0E0B0E089
:10F84000BA2FA92F982F8827282B392B4A2B5B2BCF
:10F85000220F331F441F551FC05EDE4F288339839C
:10F860004A835B83C052D1401A8259C13A81C95C34
:10F87000DE4F3883C753D140CA5CDE4F1882C6536F
:10F88000D1408B81C82EDD24CA5CDE4F488159816E
:10F89000C653D140C42AD52A933109F082C0CE5C28
:10F8A000DE4F88819981AA81BB81C253D1408050AB
:10F8B000904CA340B04030F583E0CE5CDE4FE88052
:10F8C000F9800A811B81C253D140F70100935B008C
:10F8D00080935700E89507B600FCFDCFCE5CDE4F65
:10F8E000088119812A813B81C253D14000501F4FAA
:10F8F0002F4F3F4FCE5CDE4F088319832A833B8313
:10F90000C253D140C05EDE4F488159816A817B81FC
:10F91000C052D140DE011B9631E08C9111962C91A2
:10F9200011971296C75CDE4F2883C953D140C85C3B
:10F93000DE4F1882C853D14090E0C85CDE4FE881AA
:10F94000F981C853D1408E2B9F2B0C01FA01609393
:10F950005B0030935700E89511244E5F5F4F6F4F67
:10F960007F4F0EEFE02E0FEFF02ECE0CDF1CC114F8
:10F97000D10499F685E0C05EDE4F088119812A81A5
:10F980003B81C052D140F80120935B008093570027
:10F99000E89507B600FCFDCF81E180935700E8951C
:10F9A00035C0C05EDE4F88819981AA81BB81C0527B
:10F9B000D140B695A795979587957C018601ABE0D8
:10F9C000AA2EB12CAC0EBD1E0BC0D5016D915D01F0
:10F9D000C7010F947FFE0894E11CF11C01501040F8
:10F9E0000115110591F7A60160E070E0440F551F65
:10F9F000661F771FC05EDE4FE880F9800A811B8199
:10FA0000C052D1404E0D5F1D601F711F1A82C05E33
:10FA1000DE4F488359836A837B83C052D1407FC0C5
:10FA2000FA80C55CDE4FF882CB53D140C65CDE4F16
:10FA30001882CA53D1408B81C82EDD24C65CDE4FAC
:10FA400008811981CA53D140C02AD12A1A828981DA
:10FA5000BE016D5F7F4F843121F59601C05EDE4FA0
:10FA6000E880F9800A811B81C052D1400BBFF701A9
:10FA700087919691DB018C9311969C936E5F7F4FDB
:10FA8000D801C7010296A11DB11DC05EDE4F88835B
:10FA90009983AA83BB83C052D14022503040F1F6F3
:10FAA00036C0C05EDE4F288139814A815B81C052F9
:10FAB000D1400894C108D108760100E010E0089414
:10FAC000C11CD11C0894E11CF11C011D111DE20E8A
:10FAD000F31E041F151F21BDBB27A52F942F832FB5
:10FAE00082BD2F5F3F4F4F4F5F4FF89A80B5DB01CC
:10FAF0008D93BD012E153F054007510761F7C05E8C
:10FB0000DE4F288339834A835B83C052D1409601FC
:10FB10002D5F3F4FFB01108204C080EC8A8322E0FE
:10FB200030E08BE18093C6008091C00086FFFCCF5F
:10FB30008091C00080648093C000C15DDE4FF88179
:10FB4000CF52D140F093C6008091C00086FFFCCF19
:10FB50008091C00080648093C000432F3093C60022
:10FB60008091C00086FFFCCF8091C00080648093AC
:10FB7000C000922F2093C6008091C00086FFFCCF6A
:10FB80008091C00080648093C0008EE08093C600A6
:10FB90008091C00086FFFCCF8091C000806480937C
:10FBA000C00065E1C15DDE4FE880CF52D1406E25D7
:10FBB00069276427FE01319610C090819093C6009A
:10FBC0008091C00086FFFCCF31968091C000806498
:10FBD0008093C0006927215030402115310569F715
:10FBE0006093C6008091C00086FFFCCF8091C0006A
:10FBF00080648093C00085B1805885B9772081F4F6
:10FC0000C15DDE4F0881CF52D1400F5FC15DDE4F35
:10FC10000883CF52D14090E0A0E0B0E00D941AF4F8
:10FC200027982F9880E090E020ED37E0F901319798
:10FC3000F1F7019684369105C9F700008091C00064
:10FC40008D7F8093C00081E180935700E895EE2777
:10FC5000FF270994FFCF90E00D941AF497FB092E2B
:10FC600007260AD077FD04D02ED006D000201AF443
:10FC7000709561957F4F0895F6F7909581959F4F08
:10FC80000895A1E21A2EAA1BBB1BFD010DC0AA1FDD
:10FC9000BB1FEE1FFF1FA217B307E407F50720F0F5
:10FCA000A21BB30BE40BF50B661F771F881F991F70
:10FCB0001A9469F760957095809590959B01AC01B9
:10FCC000BD01CF010895AA1BBB1B51E107C0AA1FAC
:10FCD000BB1FA617B70710F0A61BB70B881F991FED
:10FCE0005A95A9F780959095BC01CD010895F99991
:10FCF000FECF92BD81BDF89A992780B50895262F31
:10FD0000F999FECF1FBA92BD81BD20BD0FB6F89400
:0EFD1000FA9AF99A0FBE01960895F894FFCF63
:040000033000E000E9
:00000001FF