:1000000044C1000073C1000071C100006FC1000055
:100010006DC100006BC1000069C1000067C1000034
:1000200065C1000063C1000061C100005FC1000044
:100030005DC100005BC1000059C1000057C1000054
:1000400055C1000053C1000051C100004FC1000064
:100050004DC100004BC1000049C100000C942811A3
:1000600045C100000C94B2120C9489123FC10000EB
:100070003DC100003BC1000039C1000037C1000094
:1000800035C1000033C1000031C100002FC10000A4
:100090000C9460120C94371229C1000027C1000093
:1000A00025C1000023C1000021C100001FC10000C4
:1000B0001DC100001BC1000019C1000017C10000D4
:1000C00015C1000013C1000011C100000FC10000E4
:1000D0000DC100000BC1000009C1000007C10000F4
:1000E00005C100004C0C4F0C3E0C420C460C860C1B
:1000F000530C570C5D0C610C650C6B0C6F0C730C86
:10010000860C790C7D0C810CC00CC50CCA0CD40C6F
:10011000DE0C570DE80CF00CF80C020D0C0D160D52
:10012000250D2F0D570D390D430D4D0D0002030404
:10013000050100000A0B02090C0D0E08070304015B
:1001400000000000000000000000000000000000AF
:10015000000000000000000000000000000012117C
:10016000100000000000000000000000000000007F
:1001700000000000000000000D0A4F534320646996
:1001800064206E6F74207374617274000D0A58429B
:100190004F58204C69627261727920537461727495
:1001A0006564000001000800020004002000100047
:1001B000400080000000000100020020001000400C
:1001C0000080000400080000002200250028002B09
:1001D000002E003100340002010000050108010B6F
:1001E0000100002100240027002A002D00300033E8
:1001F0000001010000040107010A010505050507CA
:100200000508080808020202020A0A080804040491
:1002100004010101010101010103030303030303BD
:1002200003040707070C0C0C0C0C0C0C0C0202024C
:100230000206060606060606060B0B0B0B0B0B0B3F
:100240000B010210202008081020401020408002DE
:10025000010201080402010102040810204080800C
:100260004020100804020180040201804020100890
:100270000402010804020101020408102040800168
:100280000204081020408000731911241FBECFEF14
:10029000D1E2DEBFCDBF00E00CBF12E0A0E0B2E0D3
:1002A000ECE9FAE300E00BBF02C007900D92A23523
:1002B000B107D9F724E0A2E5B2E001C01D92AF3E3C
:1002C000B207E1F711E0C5E4D1E000E006C02197F4
:1002D0000109802FFE010E94391DC434D10780E03E
:1002E0000807A9F70E9430150C944C1D89CECF93B6
:1002F000DF93EC018A819B81DC01ED91FC9104800C
:10030000F581E02D6A8519958A85813439F4EA8171
:10031000FB81EA58FF4F8081846080831A861B86A8
:100320001C861D861E861F86188A80E0DF91CF916D
:10033000089581E0693009F080E00895FC0182852C
:100340000895DF92EF92FF920F931F93CF93DF9365
:10035000EC01E62EF12C85E0689FB0011124FE012E
:10036000E60FF71F8085182F177086FF20C001E069
:1003700085E0D82E8FEF800F8F3008F001E0FE016E
:10038000D09EE00DF11D1124808586958695869579
:100390008770811304C0602FCE01D3DFEBCF0F5FD6
:1003A000003169F78D81811302C011501D8385E0F2
:1003B0008E9DF0018F9DF00D1124EC0FFD1F108616
:1003C00081E0818712862296D783C683DF91CF9101
:1003D0001F910F91FF90EF90DF900895FC01613421
:1003E000C1F43F969C01265A3F4F61E0AC014E5F3D
:1003F0005F4FDF0112971C9211966C931082139736
:100400004D935C933596E217F30799F7FC0115823B
:1004100008953D9621E03081361302C0622F91CFBE
:100420002F5F35962031B9F70895CF93DF93FC0104
:10043000862F807809F051C0283008F04FC044233F
:1004400021F09581973009F449C0EF012D96A0E085
:10045000B0E011969881911103C0662331F021C05C
:100460002596AF30B105A9F739C085E08A9FE00134
:100470008B9FD00D1124CE0FDF1F442331F081E478
:10048000888785818F5F858302C081E0888725E02A
:100490002A9FC0012B9F900D1124E80FF91F808522
:1004A0001DC06770660F660F660F442341F06064DD
:1004B00085818F5F85838770687F682B03C0277075
:1004C000687B622B25E02A9FC0012B9F900D112491
:1004D000E80FF91F6087862F01C080E0DF91CF9180
:1004E0000895611102C006960895FC013D9621E031
:1004F0003081361307C035E0239F800D911D1124F4
:10050000069608952F5F3596203191F780E090E0B0
:100510000895089580E090E0089581E0089580E0D6
:10052000089580E00895089580E0089580E008959A
:1005300080E0089580E0089580E00895FC01208126
:100540002EBDDC0131969C01260F371FE217F30701
:1005500041F051910DB407FEFDCF4EB55EBD4D93F8
:10056000F5CF61507109FC01E60FF71F0DB407FECE
:10057000FDCF8EB5808308952898089508958EBD87
:1005800000000DB407FEFDCF8EB508958CBD9DBD56
:100590000895CF92DF92FF920F931F93CF93DF9333
:1005A00000D01F92CDB7DEB78C01F62E19821A82C9
:1005B0001B821C82462F61E10E945E144F2D60E178
:1005C000C8010E945E144F2D64E0C8010E94B4145B
:1005D00083E0C82ED12CAE014F5F5F4F6F2DC80155
:1005E0000E9488148823E1F04F2D64E1C8010E9425
:1005F0005E144F2D60E1C8010E945E1464E170E05A
:1006000080E090E00E94600D0F900F900F900F908F
:10061000DF91CF911F910F91FF90DF90CF900895C0
:1006200089819A81AB81BC819D7F83309140A041BB
:10063000B105D1F264E670E080E090E00E94600DC8
:1006400081E0C81AD10839F6CFCF0F931F93CF930B
:10065000DF932115310569F0E901042F162F41DFE1
:10066000FC01892B41F01283D183C083038380E096
:1006700003C088ED01C086EDDF91CF911F910F91EE
:100680000895289A08950F931F93CF93DF93C82F4F
:10069000D62F8A0180E591E079DF6EDF8C2F8260B2
:1006A0006EDFCD2FD0E0209719F0BE01C80146DFE4
:1006B000C00FD11FE6DFCE01DF91CF911F910F91C7
:1006C00008951F93CF93DF9300D0CDB7DEB7182FD7
:1006D00080E591E06B835ADF4FDF126019836B81F5
:1006E0006A8362E070E0CE01019628DFCADF0F90D6
:1006F0000F900F90DF91CF911F9108959F92AF922D
:10070000BF92CF92DF92EF92FF920F931F93CF93FE
:10071000DF937C01C42F122F992493946C01C60E91
:10072000D11CC60ED11C86E5C80ED11CA42EB12C3E
:10073000ABE2AA0EB11CAA0CBB1CAE0CBF1CF6018E
:1007400080819181DC01ED91FC910280F381E02DAB
:10075000202F412F6C2F1995803EC1F4C1110AC082
:1007600061E088EEAEDF66E670E080E090E00E9437
:10077000600D16C0F50180819181DC01ED91FC9145
:100780000284F385E02D612F19950AC08D3031F474
:100790009FEF990D933008F03FC016C081113CC007
:1007A000F60180819181DC01ED91FC910190F08155
:1007B000E02D202F412F6C2F1995D82F8D3061F40B
:1007C0008FEF890D833050F464E670E080E090E0B4
:1007D0000E94600D9394B3CF8823E9F0C1110AC041
:1007E00061E088EE6EDF66E670E080E090E00E94F7
:1007F000600D11C0EC2FF0E0BB96EE0FFF1FEE0D69
:10080000FF1D80819181DC01ED91FC910284F385D3
:10081000E02D612F19958D2FDF91CF911F910F91B1
:10082000FF90EF90DF90CF90BF90AF909F90089592
:100830002F923F924F925F926F927F928F929F92F0
:10084000AF92BF92CF92DF92EF92FF920F931F93DE
:10085000CF93DF93CDB7DEB766970FB6F894DEBFC0
:100860000FBECDBF1B8A38E03C8B3CE33D8B8A3FFB
:100870003FEF930711F486EDEAC0122F442E562E57
:100880007C01DC011696CD90DC901797CE01439643
:1008900017969C938E9316971A962C939E012F5F12
:1008A0003F4F42E150E060E0C7010E943814F70179
:1008B000D782C6828111CBC089849A846B847C8460
:1008C0003D813E8B2E80670186E5C80ED11C560106
:1008D000312CD5018D919C91009789F1DC01ED912E
:1008E000FC910084F185E02D1995811128C0F50156
:1008F00080819181DC01ED91FC910088F189E02DEE
:10090000622D19958823D9F0F50180819181DC0150
:10091000ED91FC910484F585E02DA301B4011995B6
:10092000811180C0F50180819181DC01ED91FC9104
:100930000684F785E02D6E891995811173C0339473
:10094000B2E0AB0EB11CE0E13E12C3CFB12CD60138
:100950008D919C91009799F1DC01ED91FC910084BF
:10096000F185E02D199581112AC0F60180819181D0
:10097000DC01ED91FC910088F189E02D622D199543
:10098000882309F459C0F60180819181DC01ED9141
:10099000FC910484F585E02DA301B4011995811122
:1009A0000EC0F60180819181DC01ED91FC910684FD
:1009B000F785E02D6E891995882309F43DC0B3941D
:1009C000B2E0CB0ED11CE0E1BE12C1CFD70116962A
:1009D0008D919C911797892BF9F01A961C93242DD1
:1009E00040E0652DC70121DDD82E8823B9F0682F9E
:1009F000C70177DD009709F43ECFFC0114834D2D2C
:100A000060E0C7010E940914182F882349F06D2D5A
:100A1000C701E4DC812F1BC087ED19C084ED17C02E
:100A200080E015C0012F242D452D632DC70166DE02
:100A3000813D09F484CF0BC0012F242D452D6B2D52
:100A4000C7015CDE982F977F913D09F4B8CF669679
:100A50000FB6F894DEBF0FBECDBFDF91CF911F91CF
:100A60000F91FF90EF90DF90CF90BF90AF909F904D
:100A70008F907F906F905F904F903F902F90089550
:100A80001F93CF93DF931F92CDB7DEB7182F80E56A
:100A900091E07CDD71DD812F72DD80E070DD898386
:100AA000F0DD89810F90DF91CF911F9108958F9292
:100AB0009F92AF92BF92CF92DF92EF92FF920F93ED
:100AC0001F93CF93DF93862E942E59010E94F30E2D
:100AD0006B017C0128E8C20E23E1D21EE11CF11C4F
:100AE00000E010E0D0E0C0E098280E94F30EDC01A6
:100AF000CB018C199D09AE09BF09B7FF29C0692D2B
:100B000080EFDFDD0E94F30EDC01CB018C199D0923
:100B1000AE09BF09B7FF07C088ECB2DF87FFF2CF8D
:100B200060E888ECCEDD88EFABDFC82FCF70C43033
:100B300019F0CE3051F00CC00F5F1F4FA114B1045B
:100B4000A1F20A151B0589F603C0DF5FD33069F6F1
:100B50008C2FDF91CF911F910F91FF90EF90DF903D
:100B6000CF90BF90AF909F908F9008952F923F921B
:100B70004F925F926F927F928F929F92AF92BF92AD
:100B8000CF92DF92EF92FF920F931F93CF93DF9359
:100B900000D01F921F92CDB7DEB77D836C835A01C0
:100BA0006901FB0121808FEF820D803408F06DC058
:100BB0000E94F30E2B013C01F8E84F0EF3E15F1E9B
:100BC000611C711CEC81FD81828180FD02C060E4AA
:100BD00001C060E888EE75DD20E0312CC114D1043D
:100BE00009F444C076012C143D0408F47101EA8232
:100BF000A8016E2D80E147DD6E2D88E362DDEC817A
:100C0000FD816081606280EF5CDD88EC39DF87FF09
:100C1000FCCF60E888EC55DD88EF32DF282F2F709D
:100C2000812C912C1982222361F02B830E94F30ED8
:100C3000DC01CB0184199509A609B7092B81B7FD01
:100C400005C0CE18DF080E0D1F1DC8CF2630F9F0E5
:100C50002E3009F44CC0243049F4FFEF8F1A9F0A5C
:100C6000A114B10441F18A149B0429F588EF2B8368
:100C700007DF85FB882780F9EC81FD81928180FB6D
:100C800090F992832B81822F38C08AED36C088EF8D
:100C9000F7DE85FB882780F991E08927EC81FD81CB
:100CA000928180FB90F9928390FD02C060E401C0C4
:100CB00060E888EE06DD60E088E303DDF80160812E
:100CC00080E1FFDC6A8188E3FCDCEC81FD816081EE
:100CD000606280EFF6DC88ECD3DE87FFFCCF60E853
:100CE00088ECEFDC88EFCCDE282F2F709CCF898139
:100CF0008F5F89838330F9F6B9CF0F900F900F90F3
:100D00000F900F90DF91CF911F910F91FF90EF9077
:100D1000DF90CF90BF90AF909F908F907F906F901B
:100D20005F904F903F902F9008952F923F924F9257
:100D30005F926F927F928F929F92AF92BF92CF926B
:100D4000DF92EF92FF920F931F93CF93DF93CDB774
:100D5000DEB729970FB6F894DEBF0FBECDBF1C01DA
:100D6000798768875B834A836901D9018D909C905C
:100D70001197FB01F181F9831D921C92DB01129600
:100D80008C9181FD02C060E101C060E288EE99DCD7
:100D90008E2D90E0A0E0B0E08C839D83AE83BF8376
:100DA000482C2A813B81A885B9854C9160E0C1011E
:100DB0007EDEF82EB6E08B1314C088EF61DE8295DC
:100DC000817091E08927E885F985928180FB91F90E
:100DD000928391FD02C060E101C060E288EE71DCA7
:100DE000E0CF81115AC088EC4BDE82FF54C080E313
:100DF00047DE582E90E08816990608F4542CD60148
:100E00008D919C91652C712CF401E81BF90BCF019D
:100E1000F7FF02C080E090E05301861597050CF4BF
:100E20005C0180E591E0B2DBA7DB88E0A8DBA501EF
:100E300060E070E0C8010E94451DA114B10419F0E2
:100E4000B501C8017BDB0A0D1B1D1BDC64E088ECCF
:100E500038DCD6018D919C911197680E791E6D92A8
:100E60007C92B9815B1618F06814790458F088EF09
:100E700007DE82958170E885F985928180FB91F982
:100E800092830BC0EE2009F48CCF6C817D818E8122
:100E90009F8116D686CF80EFF82E8F2D29960FB61C
:100EA000F894DEBF0FBECDBFDF91CF911F910F91A0
:100EB000FF90EF90DF90CF90BF90AF909F908F907A
:100EC0007F906F905F904F903F902F9008958F92FA
:100ED0009F92AF92BF92CF92DF92EF920F931F93A8
:100EE000CF93DF9300D01F92CDB7DEB76C015901CD
:100EF00048011C821B821A8219828E010F5F1F4FCC
:100F00009E012D5F3F4F0E949313811108C04981BC
:100F10005A816B817C8184019501C60106DF0F90A7
:100F20000F900F900F90DF91CF911F910F91EF9045
:100F3000DF90CF90BF90AF909F908F900895CF9209
:100F4000DF92EF92FF920F931F93CF93DF93CDB772
:100F5000DEB72E970FB6F894DEBF0FBECDBFFC01F3
:100F60002089211102C010E07DC06C013CD7F60140
:100F70000485158526853785DC01CB01801B910B07
:100F8000A20BB30BB7FDEFCF81E090E09E878D877A
:100F9000E12C8E010F5F1F4F9E01235F3F4F41E009
:100FA00062858281938193DF81114FC001E082E0ED
:100FB000F82E89818F21C1F019861A861B861C861E
:100FC000AE01475F5F4F602FC6010E9488148111F8
:100FD0000BC0AE01475F5F4F602FC6010E947211C8
:100FE000813B89F1811131C0FF0C0F5F083009F797
:100FF00001E0F6018385801730F119861A861B8679
:101000001C86AE01475F5F4F602FC6010E948814A7
:10101000811117C089859A858770917081309140C0
:1010200081F48B859C8581609C878B87AE01475FAF
:101030005F4F602FC6010E947211813B21F0811128
:1010400004C00F5FD6CF10E001C0182FCCD6DC0152
:10105000CB018C599F4FAF4FBF4FF60184879587C7
:10106000A687B787812F2E960FB6F894DEBF0FBEE6
:10107000CDBFDF91CF911F910F91FF90EF90DF9047
:10108000CF9008952F923F924F925F926F927F92EE
:101090008F929F92AF92BF92CF92DF92EF92FF9288
:1010A0000F931F93CF93DF93CDB7DEB762970FB641
:1010B000F894DEBF0FBECDBF3C01F42E322E202EA1
:1010C0005C2D48A459A4CAA4DBA41E861D861C86D8
:1010D0001B868E01055F1F4F9E01235F3F4F598B7B
:1010E0000E9493135989811197C039822A82EB8219
:1010F0005C83BE82AD8298868F82AE014F5F5F4F68
:1011000068E080E2C0DA2B853C854F2D60E1C301A9
:10111000CEDC182F81117CC0232C221C2224221CFF
:10112000C114D10409F468C0ED85FE8582812220B6
:1011300009F454C082608283540133243394A1148F
:10114000B10409F448C05A8649864B855C856D8593
:101150007E85E12C86019E01275F3F4FC301E5DDBF
:10116000182F8630A9F42D853E8588EF298B3A8B80
:1011700087DC85FB882780F9832529893A89D9016D
:1011800012969C91129780FB91F912969C93D7CF5F
:1011900081113EC0ECA5FDA53097A1F00190F08132
:1011A000E02D0190F081E02DC4018A199B09988BF4
:1011B0008F8769857A859E01215F3F4FA6018CA5A7
:1011C0009DA5199589859A85A81AB90A841595054A
:1011D00008F0B5CF11C011111BC013C0816082830C
:1011E0004B855C8586019201BF01C301BFDC811183
:1011F00013C02B853C850EC02B853C85211003C078
:1012000009C02B853C8560EA4F2DC30150DC04C02A
:10121000812F02C060E8F8CF62960FB6F894DEBF67
:101220000FBECDBFDF91CF911F910F91FF90EF9037
:10123000DF90CF90BF90AF909F908F907F906F90F6
:101240005F904F903F902F9008953F924F925F9202
:101250006F927F928F929F92AF92BF92CF92DF92C6
:10126000EF92FF920F931F93CF93DF93CDB7DEB72B
:10127000E8970FB6F894DEBF0FBECDBFDC01129623
:10128000ED90FC9013971A963C9131110FC1822E6C
:10129000342E962E3C01D701ED91FC910190F08106
:1012A000E02D60E0C70119958C01009709F400C199
:1012B000FC01C080D180C114D10409F4FBC05301EA
:1012C000F4E0AF0EB11CDC011196BC92AE92149604
:1012D0008C92FE0131962F019F0148E050E060E0C2
:1012E000D30112968D919C9113970E943814F801A6
:1012F00014828111E5C089808D81893009F0DCC0BC
:10130000D701ED91FC910280F381E02D232D41E086
:10131000692DC7011995F3018287882309F4CEC08E
:1013200098859583482F60E0828193810E940914FB
:10133000982E882391F0D801CD92DC92D701ED91BF
:10134000FC910480F581E02DD3011A966C91C701C0
:101350001995F3011286192DB7C0482D413208F0B6
:1013600040E2D801CD92DC9241110AC0950142E0E1
:10137000F30162858281938168D98111A4C00FC075
:1013800050E09201D3011A966C911A9712968D91A2
:101390009C9113970E943814811195C0E7CF1F923A
:1013A0001F925F924F921F9288E08F9388E0882E61
:1013B000912CA12CB12C99E2C92EE12C06E020EA57
:1013C00040E0F3016285828193815CDE182F0F90EB
:1013D0000F900F900F900F900F90811175C08B811F
:1013E000D3011B968C931B97820120E048E050E0CC
:1013F0001A966C911A9712968D919C9113970E9450
:10140000071B811160C04B815C8120E0F301628584
:10141000828193810E94071B811155C0498150E050
:101420008E010F5D1F4F20E0D3011A966C911A9721
:1014300012968D919C9113970E94071B811143C0B6
:101440001F921F921F921F921F921F92812C912C0C
:10145000C12CEE8009E020E040E0F301628582814A
:10146000938110DE182F0F900F900F900F900F9018
:101470000F90811129C001E0D3011B968C911B971D
:10148000801738F0402F68E0C3010E94B4140F5F4A
:10149000F3CF1296ED91FC911397EA58FF4F80819C
:1014A0008460808381E050968C930EC019ED0CC04F
:1014B00016ED0AC017ED08C011ED06C014ED04C00A
:1014C000F801D182C082182F812FE8960FB6F894C8
:1014D000DEBF0FBECDBFDF91CF911F910F91FF9067
:1014E000EF90DF90CF90BF90AF909F908F907F90C4
:1014F0006F905F904F903F9008951F93CF93DF932D
:1015000000D0CDB7DEB7182F80E591E06B833ED8D1
:1015100033D8126019836B816A8362E070E0CE0178
:1015200001960CD8AED80F900F900F90DF91CF910D
:101530001F9108951F93CF93DF931F92CDB7DEB70E
:10154000182F80E591E022D817D8812F18D880E095
:1015500016D8898396D889810F90DF91CF911F91FA
:101560000895FC01538D448D252F30E0842F90E0A9
:10157000821B930B541710F0CF960895019708958E
:10158000FC01918D828D981761F0828DDF01A80F8B
:10159000B11D5D968C91928D9F5F9F73928F90E0AD
:1015A00008958FEF9FEF0895FC01918D828D98171C
:1015B00031F0828DE80FF11D858D90E008958FEF59
:1015C0009FEF0895FC01918D228D892F90E0805C22
:1015D0009F4F821B91098F739927089580E090E0B7
:1015E000892B19F03BD7811120C080E090E0892B36
:1015F00019F02BD781111CC080E090E0892B41F0BD
:1016000080E090E0892B21F00E940000811113C03E
:1016100080E090E0892BA1F080E090E0892B81F0C0
:101620000E94000081110AC008950E940000DDCFD1
:101630000E940000E1CF0E940000EACF0C9400005D
:1016400008953FB7F8948091580290915902A09163
:101650005A02B0915B0226B5A89B05C02F3F19F036
:101660000196A11DB11D3FBFBA2FA92F982F882722
:10167000820F911DA11DB11DBC01CD0142E0660F7D
:10168000771F881F991F4A95D1F70895CF93DF934D
:10169000EC011A821B821C821D821E828F8198851A
:1016A000DC01ED91FC910480F581E02D69851995AF
:1016B00019861FA280E0DF91CF9108956E3584E0F6
:1016C000780739F06D3A9BE1790719F06E3276416F
:1016D00041F481E0493197E0590729F041395240FE
:1016E00011F080E008950895FC0187A10895FC01A0
:1016F000818508950E94411DFC01A089B1898C91CA
:10170000A689B78982FD0FC09C91818D8F5F8F73F1
:10171000228D821749F0218DDF01A20FB11D5D9648
:101720009C93818F08958C910895FC01848DDF0135
:10173000A80FB11DA35ABF4F2C91848D90E0019644
:101740008F739927848FA689B7892C93A089B18933
:101750008C9180648C93938D848D981306C002883D
:10176000F389E02D80818F7D80830895EF92FF9231
:101770000F931F93CF93DF93EC0181E0888F9B8DB4
:101780008C8D981305C0E889F989808185FD23C077
:10179000F62E0B8D10E00F5F1F4F0F731127E02EF9
:1017A0008C8DE8120BC00FB607FCFACFE889F989D7
:1017B000808185FFF5CFCE01B8DFF2CF8B8DFE01A2
:1017C000E80FF11DE35AFF4FF0820B8FEA89FB8986
:1017D0008081806207C0EE89FF896083E889F9898A
:1017E00080818064808381E090E0DF91CF911F91C0
:1017F0000F91FF90EF900895CF93DF93EC01888DC8
:101800008823C1F0EA89FB89808185FD05C0A8890C
:10181000B9898C9186FD0EC00FB607FCF5CF80818B
:1018200085FFF2CFA889B9898C9185FFEDCFCE01D4
:101830007CDFE8CFDF91CF910895362F90E0FC0157
:10184000EE5CFE4F4491FC01EF5BFD4F2491FC01E7
:10185000E550FE4F9491992309F46BC0442309F499
:1018600055C050E0FA013197E231F10508F04EC061
:101870008827EE58FF4F8F4F0C94391D80918000C0
:101880008F7707C0809180008F7D03C0809180009A
:10189000877F809380003AC084B58F7702C084B57B
:1018A0008F7D84BD33C08091B0008F7703C080915D
:1018B000B0008F7D8093B00029C0809190008F7719
:1018C00007C0809190008F7D03C080919000877F3A
:1018D000809390001BC08091A0008F7707C08091FB
:1018E000A0008F7D03C08091A000877F8093A0001F
:1018F0000DC0809120018F7707C0809120018F7DDE
:1019000003C080912001877F80932001E92FF0E0C0
:10191000EE0FFF1FE953FE4FA591B4918FB7F894D6
:10192000EC91311103C020952E2301C02E2B2C9356
:101930008FBF08951F93CF93DF93182FEB01B7D676
:10194000209711F460E004C0CF3FD10531F461E08D
:10195000812FDF91CF911F9170CFE12FF0E0EE5CEE
:10196000FE4FE4914E2F50E0FA013197E231F1053C
:1019700008F09DC08827EC57FF4F8F4F0C94391DFE
:1019800084B5806884BDC7BD97C084B5806284BDBE
:10199000C8BD92C080918000806880938000D09301
:1019A0008900C093880088C0809180008062809305
:1019B0008000D0938B00C0938A007EC0809180000D
:1019C000886080938000D0938D00C0938C0074C099
:1019D0008091B00080688093B000C093B3006CC069
:1019E0008091B00080628093B000C093B40064C066
:1019F00080919000806880939000D0939900C0936C
:101A000098005AC080919000806280939000D0939B
:101A10009B00C0939A0050C0809190008860809392
:101A20009000D0939D00C0939C0046C08091A00080
:101A300080688093A0008091A0008F7B8093A0009D
:101A4000D093A900C093A80037C08091A000806205
:101A50008093A000D093AB00C093AA002DC08091CA
:101A6000A00088608093A000D093AD00C093AC002C
:101A700023C080912001806880932001D0932901A8
:101A8000C093280119C080912001806280932001B9
:101A9000D0932B01C0932A010FC080912001886050
:101AA00080932001D0932D01C0932C0105C0C03834
:101AB000D1050CF04CCF46CFDF91CF911F91089507
:101AC0008F929F92AF92BF92CF92DF92EF92FF924E
:101AD0006B017C01B6DD4B015C01C114D104E10452
:101AE000F104E9F0AEDDDC01CB0188199909AA09FE
:101AF000BB09883E9340A105B10578F321E0C21AE5
:101B0000D108E108F10888EE880E83E0981EA11C38
:101B1000B11CC114D104E104F10421F7DECFFF9020
:101B2000EF90DF90CF90BF90AF909F908F900895EF
:101B30008F929F92AF92BF92CF92DF92EF92FF92DD
:101B40000F931F93CF93DF93EC01022FEF80F88464
:101B5000D701ED91FC910190F081E02D6985C701DD
:101B600019956C01892B11F486ED8BC06CE271E044
:101B700080E090E0A5DF498560E08F81988549D6B7
:101B8000182F882319F0F601148273C0D601149619
:101B90001C92D701ED91FC910190F081E02D6985B7
:101BA000C7011995009701F3FC0104836E01FAE067
:101BB000CF0ED11C960141E069858F8198850E94E6
:101BC0002503182F811155C0FF24F394FD8633E0BF
:101BD00027E090E29E8784E08F87F88A998B8A8B32
:101BE0003B8B9C8B8D8B3E8B9F8B888F35E0398F09
:101BF0009A8F8B8F3C8F9D8F8E8F2F8F98A389A369
:101C00002AA39BA38CA3960149E069858F819885BF
:101C10000E942503182F81112CC068EC70E080E031
:101C200090E04EDF1F921F921F921F921F921F92F1
:101C3000812C912CA12CB12CC12CEE24E39409E031
:101C400020E04A8569858F8198851CDA182F0F90CE
:101C50000F900F900F900F900F9081110AC0FA8291
:101C6000FFA2CC57DF4F188219821A821B8280E0B4
:101C700008C0E881F9810480F581E02DCE01199535
:101C8000812FDF91CF911F910F91FF90EF90DF9007
:101C9000CF90BF90AF909F908F9008956F927F925A
:101CA0009F92AF92BF92CF92DF92EF92FF920F93EB
:101CB0001F93CF93DF93CDB7DEB762970FB6F8943B
:101CC000DEBF0FBECDBFDC011796AD90BC9018975C
:101CD00019963C9131116CC0122F942E062F7C0165
:101CE000D501ED91FC910190F081E02D60E0C501FE
:101CF00019956C01009709F45DC0FC01608071804A
:101D00006114710409F458C0C7010A969183808355
:101D100014839E012F5F3F4F42E150E060E0D70106
:101D200017968D919C911897A3D5182FF601718263
:101D3000608281112EC089859A852B853C858E35E0
:101D4000F4E09F0739F08D3A4BE1940719F08E3299
:101D5000964119F52931B7E03B0719F02139324096
:101D6000E1F4D501ED91FC910280F381E02D292D64
:101D700040E0602FC5011995F70181878823F1F0B4
:101D80008885838764E170E080E090E099DE80EEF2
:101D900016C08D3019F011EE01C011EDD701ED9193
:101DA000FC910480F581E02DC7011995812F07C0B2
:101DB00089ED05C086ED03C087ED01C084ED629614
:101DC0000FB6F894DEBF0FBECDBFDF91CF911F914C
:101DD0000F91FF90EF90DF90CF90BF90AF909F90CA
:101DE0007F906F9008952FB7F8946091540270918E
:101DF000550280915602909157022FBF08952F925D
:101E00003F924F925F926F927F928F929F92AF928A
:101E1000BF92CF92DF92EF92FF920F931F93CF93D7
:101E2000DF93CDB7DEB7A2970FB6F894DEBF0FBE33
:101E3000CDBFDC0197962C91222309F4EFC16C01F0
:101E40008C010C571F4FF80180819181A281B381D1
:101E5000892B8A2B8B2B09F497C1C5DFD8018D9074
:101E60009D90AD90BC90DC01CB0188199909AA091D
:101E7000BB09893B9B40A105B10508F085C116014E
:101E8000F0E72F0E311C560103E0A00EB11C360105
:101E900018E2610E711C460120E5820E911CF12CA6
:101EA00081E0260138E8430E511CD601A757BF4FE9
:101EB000B887AF83F601E257FF4FFA87E9878601BB
:101EC00001571F4F1C870B87960120573F4F3E87B6
:101ED0002D871896B88BAF873596FA8BE98B0D5FF7
:101EE0001F4F1C8B0B8B2B5F3F4F3E8B2D8B139605
:101EF000B88FAF8B3496FA8FE98F0C5F1F4F1C8F12
:101F00000B8F2C5F3F4F3E8F2D8F20E230E03A83C6
:101F1000298390E0FC01EE0FFF1F8E0F9F1FF6013B
:101F2000E80FF91FE12C82019E012F5F3F4F428590
:101F3000D60119966C91199717968D919C911897C7
:101F40000E94670789819A81892B09F400C1411495
:101F5000510409F4FCC0F2018081883009F03CC0D2
:101F6000AF81B8858C91F50190818917A9F18083A3
:101F7000882309F4ECC0D6019596ED91FC919697D3
:101F8000309711F01995E3C0FF2049F0B1E0FB163E
:101F900049F0E2E0FE1649F0E4E0F0E008C0E1E0DC
:101FA000F0E005C0E2E0F0E002C0E3E0F0E0E45D74
:101FB000FE4FE491A60148555F4FDA011C9211963D
:101FC0001C9288E011968C931196EC5FE064EC9380
:101FD0006F2DC601F3D4BBC0EF81F88580818111DC
:101FE00013C0F601E557FF4F2081822F837109F45A
:101FF000AEC031968081823208F4A9C090E0922B65
:10200000D1018D939C93A3C0813009F0A0C0F5014C
:102010008081811102C080E88083A985BA852C91D6
:10202000EB85FC85808190E0A0E0B0E0DC019927A1
:102030008827B22BED85FE85408150E0542F442740
:10204000EF85F8892081422B60E070E0842B952B8E
:10205000A62BB72BF30180839183A283B383E989F5
:10206000FA89208130E0322F2227EB89FC894081D8
:10207000242BF40131832083ED89FE89208130E017
:10208000322F2227EF89F88D4081242BF4013383EE
:102090002283E98DFA8D208130E0322F2227EB8DCB
:1020A000FC8D4081242BF40135832483ED8DFE8D3E
:1020B000208130E0322F2227F601E856FF4F408181
:1020C000242BF40137832683F301408951896289E7
:1020D000738984179507A607B707C9F1EE24E3941F
:1020E000F501EB58FF4FE082F101B8978A019B019F
:1020F00000951095209530958901222733270F8F61
:1021000018A329A33AA38D01222733270B831C830D
:102110002D833E8398010F8D18A120233123318315
:102120002083411106C0882321F0F501E358FF4FB9
:10213000E082511107C0992329F021E0F501E75809
:10214000FF4F2083F301808B918BA28BB38BF39491
:10215000F4E0FF1609F462C0B1E0FB1629F0E2E0FA
:10216000FE1621F087E003C083E001C085E0F2E0C5
:102170002F0E311C0FEFA01AB00A14E0610E711C73
:1021800028E0820E911CC1CE2EDED8016D937D9386
:102190008D939C931397F60187A1882309F46FCE42
:1021A000760138EAE30EF11C88E0D7018C93360102
:1021B000B9EA6B0E711CF30110824601FAEA8F0E28
:1021C000911C8FE0D4018C935601BBEAAB0EB11C7D
:1021D00080ECF501808310E0A701612FC601EED3EA
:1021E0001F5F1430C9F7D7011C92F3011082D4018C
:1021F0001C9280E4F50180835601F3E0AF0EB11C20
:1022000010E0D5018D915D01882321F0A701612F98
:10221000C601D4D31F5F1430A1F731CE80E0A2965F
:102220000FB6F894DEBF0FBECDBFDF91CF911F91E7
:102230000F91FF90EF90DF90CF90BF90AF909F9065
:102240008F907F906F905F904F903F902F90089568
:102250001F920F920FB60F9211242F933F938F93DB
:102260009F93AF93BF938091540290915502A09198
:102270005602B09157023091530223E0230F2D37BD
:1022800020F40196A11DB11D05C026E8230F02967A
:10229000A11DB11D209353028093540290935502C7
:1022A000A0935602B0935702809158029091590220
:1022B000A0915A02B0915B020196A11DB11D8093BD
:1022C000580290935902A0935A02B0935B02BF91B7
:1022D000AF919F918F913F912F910F900FBE0F90D3
:1022E0001F901895CF92DF92EF92FF920F931F935A
:1022F000CF938C01C62F7A01FA0180819181A2814E
:10230000B3818130F3E09F07F1E0AF07B105E1F061
:1023100060F48115E1E09E07AE07B10551F181300F
:102320009140A140B10581F087C0833021E0920740
:1023300020E1A207B10509F463C083309340A041B6
:10234000B10509F45DC078C080915202811174C05A
:102350004C2F61E1C801B2D24C2F60E1C801AED26E
:102360004C2F64E0C80100D381E08093520281EBDE
:1023700064C0462F61E1C801A1D24C2F60E1C801C1
:102380009DD210925202D8011A968C911A9787709A
:10239000C770880F880F880FC82B1296ED90FC909D
:1023A0001397CC2309F448C06701B6E5CB0ED11CC6
:1023B00000E010E0F601819191916F010097D1F05A
:1023C000DC01ED91FC910084F185E02D19958C13D1
:1023D00011C0055D1F4F000F111FF701E00FF11F26
:1023E00080819181DC01ED91FC910480F581E02DEB
:1023F000199522C00F5F1F4F00311105D9F61CC07F
:102400004C2F64E1C8015AD24C2F60E1C80156D26A
:1024100064E170E080E090E053DBF8016285D70171
:1024200011962C912695217067704C2F8281938193
:102430000E9418041092520280E0CF911F910F91D8
:10244000FF90EF90DF90CF90089583E093E0BAD8AB
:1024500021E0892B09F420E0822F089585E692E09F
:10246000B1D821E0892B09F420E0822F08951F9232
:102470000F920FB60F9211240BB60F922F933F932A
:102480004F935F936F937F938F939F93AF93BF937C
:10249000EF93FF9383E093E048D9FF91EF91BF91D1
:1024A000AF919F918F917F916F915F914F913F91EC
:1024B0002F910F900BBE0F900FBE0F901F9018958D
:1024C0001F920F920FB60F9211240BB60F922F93FB
:1024D0003F934F935F936F937F938F939F93AF93AC
:1024E000BF93EF93FF9383E093E006D9FF91EF91C1
:1024F000BF91AF919F918F917F916F915F914F911C
:102500003F912F910F900BBE0F900FBE0F901F9019
:1025100018951F920F920FB60F9211240BB60F92BF
:102520002F933F934F935F936F937F938F939F93DB
:10253000AF93BF93EF93FF9385E692E0F6D8FF91B8
:10254000EF91BF91AF919F918F917F916F915F912B
:102550004F913F912F910F900BBE0F900FBE0F9098
:102560001F9018951F920F920FB60F9211240BB661
:102570000F922F933F934F935F936F937F938F931C
:102580009F93AF93BF93EF93FF9385E692E0B4D808
:10259000FF91EF91BF91AF919F918F917F916F913B
:1025A0005F914F913F912F910F900BBE0F900FBEF7
:1025B0000F901F901895CF92DF92EF92FF920F939A
:1025C0001F93CF93DF936C017A018B01C0E0D0E0C1
:1025D000CE15DF0589F0D8016D918D01D601ED9101
:1025E000FC910190F081E02DC6011995892B11F421
:1025F0007E0102C02196ECCFC701DF91CF911F91E0
:102600000F91FF90EF90DF90CF9008950F931F935D
:10261000CF93DF938C01C0E0D0E0F801EC0FFD1FF9
:102620006491662371F0E0916502F0916602019079
:10263000F081E02D85E692E01995892B11F0219625
:10264000ECCFCE01DF91CF911F910F91089588EFCC
:102650000E949A0A807C8034A1F018F4882301F14A
:102660000895803819F0803CB9F0089588ED0E94F3
:102670009A0A81FD0BC069EC88ED0E947D0A82E018
:102680000CC088ED0E949A0A81FDF5CF6BEC88EDB5
:102690000E947D0A83E001C081E080936402089576
:1026A00061ED88ED0E947D0A10926402089590E029
:1026B000FC01EF5BFD4F2491FC01E550FE4F84913E
:1026C000882399F090E0880F991FFC01EF51FE4F8D
:1026D000A591B491FC01E953FE4F859194918FB778
:1026E000F894EC91E22BEC938FBF0895880F991F1B
:1026F000FC01EE7FF170ED55FE4F259134918091F4
:10270000FA039091FB03A901409550954823592362
:102710005093FB034093FA032823392381E0232BB2
:1027200009F480E008958F929F92BF92CF92DF923A
:10273000EF92FF920F931F93CF93DF931F92CDB72A
:10274000DEB74C01B62E690149830E9471027C01FB
:102750004981009709F44BC0DC01ED91FC91119780
:10276000309709F446C013969C9180E0891731F0A8
:102770002081241729F033968F5FF8CFE0E0F0E056
:10278000D601ED93FC933097B1F1228126952695E1
:1027900030E02031310514F02FE030E081E090E0AE
:1027A000A0E0B0E004C0880F991FAA1FBB1F2A95A4
:1027B000D2F70197F801918380836B2D80EE0E9400
:1027C000610388ED0E944005682FD70114968C9113
:1027D000882339F0F401EA58FF4F80818260682B2A
:1027E00001C0697F88ED0E94610380E005C086ED2D
:1027F00003C087ED01C08BED0F90DF91CF911F914A
:102800000F91FF90EF90DF90CF90BF909F908F90AF
:1028100008958F929F92AF92BF92CF92EF920F93B3
:10282000CF931F921F921F921F921F921F92812C73
:10283000912CA12CB12CC12CE42E05E020E040E02D
:102840000E944208C82F6CE271E080E090E038D925
:102850000F900F900F900F900F900F908C2FCF91A3
:102860000F91EF90CF90BF90AF909F908F90089571
:102870008F929F92AF92BF92CF92EF920F931F923F
:102880001F923F932F935F934F934A01A12CB12C3A
:10289000CC24C394E12C06E020E840E00E944208EA
:1028A0000F900F900F900F900F900F900F91EF904F
:1028B000CF90BF90AF909F908F9008958F929F92EE
:1028C000AF92BF92CF92EF920F93A42EB12C1F9292
:1028D0001F921F921F921F921F92812C912CC12C2C
:1028E000E62E01E023E240E0FC01628582819381D3
:1028F0000E9442080F900F900F900F900F900F9032
:102900000F91EF90CF90BF90AF909F908F900895D0
:102910008F929F92AF92BF92CF92EF920F93A62E7B
:10292000B12C1F921F925F934F931F9224E02F931D
:1029300024E0822E912CC12CE12C00E023EA40E01F
:10294000FC016285828193810E9442080F900F9062
:102950000F900F900F900F900F91EF90CF90BF902E
:10296000AF909F908F9008958F929F92AF92BF9259
:10297000CF92EF920F93A42EB12C1F921F921F9211
:102980001F921F921F92812C912CC12CE62E03E0E6
:1029900023E240E0FC016285828193810E9442082B
:1029A0000F900F900F900F900F900F900F91EF904E
:1029B000CF90BF90AF909F908F900895CF92DF926D
:1029C000EF92FF920F931F93CF93DF9300D01F924C
:1029D000CDB7DEB7613039F050F0623031F063309E
:1029E00091F528E005C024E003C026E001C022E004
:1029F0007A01DC0130E0F901EE0FFF1F2E0F3F1FBF
:102A0000FD01E20FF31F428519966C9119971796F5
:102A1000CD90DC9018971C821B821A8219828E013D
:102A20000F5F1F4F9E012D5F3F4FC6017CDE81115E
:102A30000AC049815A816B817C81870124E030E0A2
:102A4000C6010E94B6050F900F900F900F90DF9176
:102A5000CF911F910F91FF90EF90DF90CF9008954D
:102A6000CF93DF9300D01F92CDB7DEB7789484B5B3
:102A7000826084BD84B5816084BD85B5826085BD7A
:102A800085B5816085BD80916E00816080936E0008
:102A900010928100809181008260809381008091FA
:102AA00081008160809381008091800081608093AB
:102AB00080008091B10084608093B1008091B0006B
:102AC00081608093B000809191008260809391003A
:102AD000809191008160809391008091900081604D
:102AE000809390008091A10082608093A1008091EA
:102AF000A10081608093A1008091A00081608093FB
:102B0000A0008091210182608093210180912101A8
:102B10008160809321018091200181608093200158
:102B200080917A00846080937A0080917A0082603C
:102B300080937A0080917A00816080937A008091FE
:102B40007A00806880937A001092C100E0911303AC
:102B5000F091140322E02083E0910F03F091100321
:102B60001082E0911103F09112038FEC8083109298
:102B70001B03E0911703F091180396E09083E09116
:102B80001503F0911603808180618083E091150325
:102B9000F0911603808188608083E0911503F091A5
:102BA0001603808180688083E0911503F0911603FD
:102BB00080818F7D8083E0917502F0917602208381
:102BC000E0917102F09172021082E0917302F09133
:102BD000740280E1808310927D02E0917902F0918D
:102BE0007A029083E0917702F0917802808180618F
:102BF0008083E0917702F091780280818860808301
:102C0000E0917702F0917802808180688083E09182
:102C10007702F091780280818F7D8083209A0E94D4
:102C200041031FB7F89480915C02811121C0E0E359
:102C3000F2E08491E6E7F2E09491E82FF0E0EE0F05
:102C4000FF1FEF51FE4FA591B491EC91E92321F4C0
:102C500061E085E30E941D0C85E329DD8CB5806170
:102C60008CBD8CB580648CBD84E321DD83E31FDDE6
:102C700080915C028F5F80935C021FBF209A0E944C
:102C800041036E9868E188E80E947D0A60E288E767
:102C90000E947D0A60E088E70E947D0A01E010E062
:102CA0000115110509F41BC388E60E949A0A0F5FFB
:102CB0001F4F80FFF5CF61EC88ED0E947D0A60E632
:102CC00080ED0E947D0A64E088EE0E947D0A88EE15
:102CD0000E949A0A82FFFBCFBADC60E288EC0E9475
:102CE0007D0A61E080E80E947D0A8CE891E08EDC3C
:102CF00090E5292E20E9322E00EA10E466990CC0F6
:102D000088EC0E94400585FF03C0A1DC60E201C0A1
:102D100060E088EC0E94610380916402813041F0A0
:102D200058F0823091F0833049F5BB24B3940EC043
:102D300083E18093020322C080910203807F80316F
:102D4000E9F0A1E1A093020319C0B12C8091020324
:102D5000807F8031A1F447D8DC01CB0188539F4F9D
:102D6000AF4FBF4F80935E0290935F02A0936002CB
:102D7000B093610280E28093020301C0B12C87EB23
:102D8000E82E84E0F82E6701F601819191916F01A0
:102D9000009739F0DC01ED91FC910680F781E02D80
:102DA0001995B7EDCB16B4E0DB0671F780910203FD
:102DB000803409F447C050F4803241F18033D9F1B6
:102DC000813109F08EC01092D7040AC0813509F410
:102DD00061C0803809F473C0803509F082C042C0F8
:102DE000F701819191917F01009739F0DC01ED911C
:102DF000FC910480F581E02D1995B7EDEB16B4E058
:102E0000FB0671F782E1809302036BC00E94F30E10
:102E1000C0905E02D0905F02E0906002F09061028C
:102E2000DC01CB018C199D09AE09BF09B7FD59C062
:102E300080E38093020361E088EE0E9461031093B7
:102E400002034FC088EE0E94400580FD4AC088ED15
:102E50000E944005682F686088ED0E9461032092FF
:102E600002033FC088EC0E94400586FF3AC0E1E5BE
:102E7000E09302030E94F30EDC01CB014496A11DF6
:102E8000B11D80935E0290935F02A0936002B093A5
:102E9000610227C00E94F30EC0905E02D0905F02D4
:102EA000E0906002F0906102DC01CB018C199D0979
:102EB000AE09BF09B7FD15C0F0E8F09302032B2D52
:102EC00040E060E081E694E00E941804882339F035
:102ED000823D39F080935D020093020302C030927C
:102EE000020320910404309105042D348DE138074C
:102EF000ACF0C901330FAA0BBB0B9C01AD012C54E4
:102F00003D4141095109AFEFB0E0DED423EB32E699
:102F100040E050E0BDD4CA01B9011CC0243BA2EE80
:102F20003A07E4F4C901330FAA0BBB0B9C01AD01B6
:102F3000215030484F4F5F4FAFEFB0E0C5D423EB87
:102F400032E640E050E0A4D4CA01B9016F5F7109D4
:102F5000810991098AD36B017C0103C0C12CD12C5A
:102F6000760120910804309109042D34BDE13B071E
:102F7000ACF0C901330FAA0BBB0B9C01AD012C5463
:102F80003D4141095109AFEFB0E09ED423EB32E659
:102F900040E050E07DD4CA01B9011CC0243BE2EE00
:102FA0003E07E4F4C901330FAA0BBB0B9C01AD0132
:102FB000215030484F4F5F4FAFEFB0E085D423EB47
:102FC00032E640E050E064D4CA01B9016F5F710994
:102FD000810991094AD34B015C0103C0812C912CDA
:102FE00054016091DA038091DB036B3028F070E0CC
:102FF00080E090E038D30AC0682F70E07195619549
:103000007109072E000C880B990B2FD369837A83E3
:103010008B839C8380E090E069DB882301F1409002
:10302000040250900502609006027090070220E0B2
:1030300030E040E85FE3C301B20111D387FF0FC066
:103040002DEC3CEC4CEC5DE3C301B20179D4609310
:10305000040270930502809306029093070282E0B7
:1030600090E044DB8823F9F0409004025090050280
:10307000609006027090070220E030E0A901C301D1
:10308000B201F3D418167CF42DEC3CEC4CEC5DE36F
:10309000C301B20154D4609304027093050280937B
:1030A00006029093070281E090E020DB882301F183
:1030B0004090000250900102609002027090030262
:1030C00020E030E040E85FE3C301B201C8D287FFEF
:1030D0000FC020E030E040EA50E4C301B20130D438
:1030E00060930002709301028093020290930302A6
:1030F00083E090E0FBDA8823F9F0409000025090E2
:103100000102609002027090030220E030E0A90109
:10311000C301B201AAD418167CF420E030E040EAE2
:1031200050E4C301B2010BD460930002709301021A
:10313000809302029093030280E090E0D7DA882324
:1031400001F14090040250900502609006027090D8
:10315000070220E030E040E85FE3C301B2017FD224
:1031600087FF0FC02DEC3CEC4CEC5DE3C301B201DA
:10317000E7D3609304027093050280930602909354
:103180000702809162029091630201968431910559
:103190002CF4909363028093620298C010926302B1
:1031A0001092620240900402509005026090060264
:1031B00070900702A3019201C501B401B5D24B0181
:1031C0005C01A3019201C701B601AED290581CD494
:1031D0007B0177FF0BC021E030E03093A103209307
:1031E000A003EE24FF24E61AF70A04C01092A103FC
:1031F0001092A0036091A0038091AA030E941D0C6D
:10320000B7018091AC030E949A0CC501B401FCD3B4
:103210007B0177FF0BC021E030E03093A1032093C6
:10322000A003EE24FF24E61AF70A04C01092A103BB
:103230001092A0036091A0038091AE030E941D0C28
:10324000B7018091B0030E949A0C69817A818B81C9
:103250009C81DAD34B015C017B0177FF0BC081E0DD
:1032600090E09093A1038093A003CC24DD24C818A0
:10327000D90805C01092A1031092A0036B016091C0
:10328000A0038091A2030E941D0CB6018091A403AB
:103290000E949A0CF7FE0BC081E090E09093A1038E
:1032A0008093A003EE24FF24E818F90804C01092CC
:1032B000A1031092A0036091A0038091A6030E9435
:1032C0001D0CB7018091A8030E949A0C61E070E088
:1032D00080E090E00E94600D0E94EE0A0FCD88E72A
:1032E00091E094D9FFCFCF93DF9310920603109211
:1032F000050348EE53E060E070E04093070350930D
:1033000008036093090370930A038CE092E09093A2
:103310000403809303032DEC30E0309310032093DB
:103320000F032CEC30E0309312032093110328ECB0
:1033300030E0309314032093130329EC30E03093F2
:103340001603209315032AEC30E0309318032093E2
:1033500017032EEC30E030931A03209319031092D8
:103360001C0310921D0310921E0310921F03109253
:103370006802109267024093690250936A02609358
:103380006B0270936C02909366028093650285ECE9
:1033900090E0909372028093710284EC90E090939D
:1033A00074028093730280EC90E090937602809395
:1033B000750281EC90E0909378028093770282EC22
:1033C00090E090937A028093790286EC90E090935B
:1033D0007C0280937B0210927E0210927F021092F8
:1033E0008002109281028091040184608093040124
:1033F000809105018460809305018CE492E09093B4
:10340000620480936104109266041092690481E062
:1034100080936A0410926B0483E694E090936804AE
:10342000809367041092630488E0809364048CE3C3
:103430008093650480E090E041E023E634E0FC0105
:10344000EF59FB4F158646871786348723870596E5
:103450008B349105A1F71092D70481E18093020388
:1034600086E392E09093DF048093DE0481E694E0AB
:103470009093E1048093E0041092E8041092E90430
:103480001092EA041092EB041092EC041092ED04F6
:103490001092EE041092E20488E08093E3049CE32F
:1034A0009093E40491E09093E5048093E60484E033
:1034B0008093E704E7EBF4E080E090E02191319124
:1034C000232B51F4880F991FFC01E954FB4F8EED1B
:1034D00094E09183808304C001968031910571F757
:1034E0008EE192E09093B3038093B20381E694E07F
:1034F0009093BA038093B9031092BB031092D9033F
:10350000ADEBB3E080E090E0FD01319710820097D1
:1035100011F428E001C020E02C93FC01EE0FFF1F06
:10352000EF01C80FD91FC254DC4F28812E7F2D7F99
:103530002883009711F42FE001C021E0E80FF91F64
:10354000E254FC4F220F220F30813370232B208353
:103550000196139689309105B9F6E7EBF4E080E027
:1035600090E021913191232B51F4880F991FFC0198
:10357000E954FB4F82EB93E09183808304C0019672
:103580008031910571F71092A1031092A00386E19A
:1035900090E09093A3038093A20382E090E0909345
:1035A000A5038093A40388E190E09093A703809300
:1035B000A60383E090E09093A9038093A80388E298
:1035C00090E09093AB038093AA038BE090E09093FC
:1035D000AD038093AC0386E290E09093AF038093B9
:1035E000AE038AE090E09093B1038093B00383E050
:1035F00093E09093DD048093DC048FEF8093D804F4
:103600008093D9041092DA04DF91CF9108958F92BC
:103610009F92AF92BF92CF92EF920F931F931F9200
:103620001F921F930F935F934F934A01A12CB12CCC
:1036300032E0C32EE22E06E020E840E00E9442087D
:103640000F900F900F900F900F900F901F910F9170
:10365000EF90CF90BF90AF909F908F90089540D003
:1036600008F481E00895E89409C097FB3EF4909532
:103670008095709561957F4F8F4F9F4F9923A9F04B
:10368000F92F96E9BB279395F695879577956795DA
:10369000B795F111F8CFFAF4BB0F11F460FF1BC01E
:1036A0006F5F7F4F8F4F9F4F16C0882311F096E9B1
:1036B00011C0772321F09EE8872F762F05C066235F
:1036C00071F096E8862F70E060E02AF09A95660F18
:1036D000771F881FDAF7880F9695879597F90895D1
:1036E000990F0008550FAA0BE0E8FEEF1616170613
:1036F000E807F907C0F012161306E407F50798F07B
:10370000621B730B840B950B39F40A2661F0232B93
:10371000242B252B21F408950A2609F4A140A6950F
:103720008FEF811D811D08950BD078C069D028F0DE
:103730006ED018F0952309F05AC05FC01124A2C0C2
:103740007ED0A0F3959FD1F3950F50E0551F629F57
:10375000F001729FBB27F00DB11D639FAA27F00DEA
:10376000B11DAA1F649F6627B00DA11D661F829F11
:103770002227B00DA11D621F739FB00DA11D621FF6
:10378000839FA00D611D221F749F3327A00D611D13
:10379000231F849F600D211D822F762F6A2F1124F5
:1037A0009F5750408AF0E1F088234AF0EE0FFF1F48
:1037B000BB1F661F771F881F91505040A9F79E3F7F
:1037C000510570F014C05EC05F3FECF3983EDCF32F
:1037D000869577956795B795F795E7959F5FC1F7BC
:1037E000FE2B880F911D9695879597F9089597F967
:1037F0009F6780E870E060E008959FEF80EC089597
:1038000000240A94161617061806090608950024BF
:103810000A9412161306140605060895092E039439
:10382000000C11F4882352F0BB0F40F4BF2B11F4AD
:1038300060FF04C06F5F7F4F8F4F9F4F089557FD0C
:103840009058440F551F59F05F3F71F04795880F0E
:1038500097FB991F61F09F3F79F0879508951216A5
:1038600013061406551FF2CF4695F1DF08C0161651
:1038700017061806991FF1CF869571056105089402
:103880000895E894BB2766277727CB0197F9089519
:10389000052E97FB16F400940FD057FD05D01ED0CF
:1038A00007FC02D046F408C050954095309521950C
:1038B0003F4F4F4F5F4F089590958095709561955C
:1038C0007F4F8F4F9F4F08952BD0A59F900DB49F92
:1038D000900DA49F800D911D11240895A1E21A2E30
:1038E000AA1BBB1BFD010DC0AA1FBB1FEE1FFF1FA4
:1038F000A217B307E407F50720F0A21BB30BE40BF4
:10390000F50B661F771F881F991F1A9469F760953A
:103910007095809590959B01AC01BD01CF010895F4
:10392000A29FB001B39FC001A39F700D811D112400
:10393000911DB29F700D811D1124911D0895505845
:10394000BB27AA270ED06ACF5BDF30F060DF20F004
:1039500031F49F3F11F41EF450CF0EF4E095E7FBD5
:1039600046CFE92F6CDF80F3BA176207730784072D
:10397000950718F071F49EF584CF0EF4E0950B2EA8
:10398000BA2FA02D0B01B90190010C01CA01A001B1
:103990001124FF27591B99F0593F50F4503E68F10C
:1039A0001A16F040A22F232F342F4427585FF3CF4D
:1039B000469537952795A795F0405395C9F77EF41E
:1039C0001F16BA0B620B730B840BBAF09150A1F067
:1039D000FF0FBB1F661F771F881FC2F70EC0BA0FED
:1039E000621F731F841F48F4879577956795B79575
:1039F000F7959E3F08F0B3CF9395880F08F099276D
:103A0000EE0F97958795089504D06894B1113ACF39
:103A100008951DDF88F09F5790F0B92F9927B7516F
:103A2000A0F0D1F0660F771F881F991F1AF0BA9582
:103A3000C9F712C0B13081F024DFB1E0089521CF81
:103A4000672F782F8827B85F39F0B93FCCF3869578
:103A500077956795B395D9F73EF4909580957095D5
:103A600061957F4F8F4F9F4F08953ADE08F48FEF97
:103A70000895EE0FFF1F881F8BBF0790F691E02D72
:103A8000199481E090E0F89407C0DC0101C06D93C7
:0C3A900041505040E0F70895F894FFCF3B
:103A9C00000020420000803F00000000B60BDB124B
:103AAC00B10AFC0BE20AC00AD40A00000000980D0F
:103ABC004E0E460BFF0E770B93025E0B8F028D02A0
:103ACC00740B0000000025099A0277019F079E01E4
:103ADC00C902910299018D020000000071021502C9
:023AEC00EE01E9
:00000001FF
