:1000000044C1000073C1000071C100006FC1000055
:100010006DC100006BC1000069C1000067C1000034
:1000200065C1000063C1000061C100005FC1000044
:100030005DC100005BC1000059C1000057C1000054
:1000400055C1000053C1000051C100004FC1000064
:100050004DC100004BC1000049C100000C94D711F4
:1000600045C100000C944F0C0C94260C3FC10000BD
:100070003DC100003BC1000039C1000037C1000094
:1000800035C1000033C1000031C100002FC10000A4
:100090000C94FD0B0C94D40B29C1000027C1000067
:1000A00025C1000023C1000021C100001FC10000C4
:1000B0001DC100001BC1000019C1000017C10000D4
:1000C00015C1000013C1000011C100000FC10000E4
:1000D0000DC100000BC1000009C1000007C10000F4
:1000E00005C10000A70CAA0C990C9D0CA10CE10CF9
:1000F000AE0CB20CB80CBC0CC00CC60CCA0CCE0CAE
:10010000E10CD40CD80CDC0C1B0D200D250D2F0D93
:10011000390DB20D430D4B0D530D5D0D670D710D76
:10012000800D8A0DB20D940D9E0DA80D0D0A58423A
:100130004F58204C696272617279205374617274F5
:100140006564000D0A4F534320646964206E6F7428
:100150002073746172740000020304050100000A38
:100160000B02090C0D0E080703040100000000003B
:10017000000000000000000000000000000000007F
:10018000000000000000000000121110000000003C
:10019000000000000000000000000000000000005F
:1001A0000000000001000800020004002000100010
:1001B000400080000000000100020020001000400C
:1001C0000080000400080000002200250028002B09
:1001D000002E003100340002010000050108010B6F
:1001E0000100002100240027002A002D00300033E8
:1001F0000001010000040107010A010505050507CA
:100200000508080808020202020A0A080804040491
:1002100004010101010101010103030303030303BD
:1002200003040707070C0C0C0C0C0C0C0C0202024C
:100230000206060606060606060B0B0B0B0B0B0B3F
:100240000B010210202008081020401020408002DE
:10025000010201080402010102040810204080800C
:100260004020100804020180040201804020100890
:100270000402010804020101020408102040800168
:100280000204081020408000F11A11241FBECFEF95
:10029000D1E2DEBFCDBF00E00CBF12E0A0E0B2E0D3
:1002A000E4EAFDE300E00BBF02C007900D92A23527
:1002B000B107D9F724E0A2E5B2E001C01D92AF3E3C
:1002C000B207E1F711E0C5E4D1E000E006C02197F4
:1002D0000109802FFE010E94BD1EC434D10780E0B9
:1002E0000807A9F70E9493150C94D01E89CECF93CE
:1002F000DF93EC018A819B81DC01ED91FC9104800C
:10030000F581E02D6A8519958A85813439F4EA8171
:10031000FB81EA58FF4F8081846080831A861B86A8
:100320001C861D861E861F86188A80E0DF91CF916D
:10033000089581E0693009F080E00895FC0182852C
:100340000895DF92EF92FF920F931F93CF93DF9365
:10035000EC01E62EF12C85E0689FB0011124FE012E
:10036000E60FF71F8085182F177086FF20C001E069
:1003700085E0D82E8FEF800F8F3008F001E0FE016E
:10038000D09EE00DF11D1124808586958695869579
:100390008770811304C0602FCE01D3DFEBCF0F5FD6
:1003A000003169F78D81811302C011501D8385E0F2
:1003B0008E9DF0018F9DF00D1124EC0FFD1F108616
:1003C00081E0818712862296D783C683DF91CF9101
:1003D0001F910F91FF90EF90DF900895FC01613421
:1003E000C1F43F969C01265A3F4F61E0AC014E5F3D
:1003F0005F4FDF0112971C9211966C931082139736
:100400004D935C933596E217F30799F7FC0115823B
:1004100008953D9621E03081361302C0622F91CFBE
:100420002F5F35962031B9F70895CF93DF93FC0104
:10043000862F807809F051C0283008F04FC044233F
:1004400021F09581973009F449C0EF012D96A0E085
:10045000B0E011969881911103C0662331F021C05C
:100460002596AF30B105A9F739C085E08A9FE00134
:100470008B9FD00D1124CE0FDF1F442331F081E478
:10048000888785818F5F858302C081E0888725E02A
:100490002A9FC0012B9F900D1124E80FF91F808522
:1004A0001DC06770660F660F660F442341F06064DD
:1004B00085818F5F85838770687F682B03C0277075
:1004C000687B622B25E02A9FC0012B9F900D112491
:1004D000E80FF91F6087862F01C080E0DF91CF9180
:1004E0000895611102C006960895FC013D9621E031
:1004F0003081361307C035E0239F800D911D1124F4
:10050000069608952F5F3596203191F780E090E0B0
:100510000895089580E090E0089581E0089580E0D6
:10052000089580E00895089580E0089580E008959A
:1005300080E0089580E0089580E00895FC01208126
:100540002EBDDC0131969C01260F371FE217F30701
:1005500041F051910DB407FEFDCF4EB55EBD4D93F8
:10056000F5CF61507109FC01E60FF71F0DB407FECE
:10057000FDCF8EB5808308952898089508958EBD87
:1005800000000DB407FEFDCF8EB508958CBD9DBD56
:1005900008950F931F93CF93DF932115310569F0D1
:1005A000E901042F162F9DDFFC01892B41F01283F6
:1005B000D183C083038380E003C088ED01C086ED52
:1005C000DF91CF911F910F910895289A08950F936D
:1005D0001F93CF93DF93C82FD62F8A0180E591E038
:1005E000D5DFCADF8C2F8260CADFCD2FD0E0209705
:1005F00019F0BE01C801A2DFC00FD11FE6DFCE0196
:10060000DF91CF911F910F9108951F93CF93DF93A7
:1006100000D0CDB7DEB7182F80E591E06B83B6DF51
:10062000ABDF126019836B816A8362E070E0CE01F8
:10063000019684DFCADF0F900F900F90DF91CF916A
:100640001F9108959F92AF92BF92CF92DF92EF9247
:10065000FF920F931F93CF93DF937C01C42F122F30
:10066000992493946C01C60ED11CC60ED11C86E54C
:10067000C80ED11CA42EB12CABE2AA0EB11CAA0C40
:10068000BB1CAE0CBF1CF60180819181DC01ED9199
:10069000FC910280F381E02D202F412F6C2F1995C2
:1006A000803EC1F4C1110AC061E088EEAEDF66E6AB
:1006B00070E080E090E00E94BB0D16C0F5018081E3
:1006C0009181DC01ED91FC910284F385E02D612F95
:1006D00019950AC08D3031F49FEF990D933008F0D1
:1006E0003FC016C081113CC0F60180819181DC01C0
:1006F000ED91FC910190F081E02D202F412F6C2F86
:100700001995D82F8D3061F48FEF890D833050F417
:1007100064E670E080E090E00E94BB0D9394B3CF5C
:100720008823E9F0C1110AC061E088EE6EDF66E659
:1007300070E080E090E00E94BB0D11C0EC2FF0E073
:10074000BB96EE0FFF1FEE0DFF1D80819181DC0136
:10075000ED91FC910284F385E02D612F19958D2F89
:10076000DF91CF911F910F91FF90EF90DF90CF908D
:10077000BF90AF909F9008952F923F924F925F92BB
:100780006F927F928F929F92AF92BF92CF92DF92A1
:10079000EF92FF920F931F93CF93DF93CDB7DEB706
:1007A00066970FB6F894DEBF0FBECDBF1B8A38E048
:1007B0003C8B3CE33D8B8A3F3FEF930711F486ED82
:1007C000EAC0122F442E562E7C01DC011696CD90E5
:1007D000DC901797CE01439617969C938E931697AD
:1007E0001A962C939E012F5F3F4F42E150E060E04C
:1007F000C7010E944A14F701D782C6828111CBC07B
:1008000089849A846B847C843D813E8B2E80670131
:1008100086E5C80ED11C5601312CD5018D919C91D5
:10082000009789F1DC01ED91FC910084F185E02DC8
:100830001995811128C0F50180819181DC01ED912C
:10084000FC910088F189E02D622D19958823D9F05B
:10085000F50180819181DC01ED91FC910484F585A5
:10086000E02DA301B4011995811180C0F5018081AB
:100870009181DC01ED91FC910684F785E02D6E8974
:100880001995811173C03394B2E0AB0EB11CE0E155
:100890003E12C3CFB12CD6018D919C91009799F156
:1008A000DC01ED91FC910084F185E02D1995811119
:1008B0002AC0F60180819181DC01ED91FC910088D4
:1008C000F189E02D622D1995882309F459C0F601AC
:1008D00080819181DC01ED91FC910484F585E02D0E
:1008E000A301B401199581110EC0F6018081918197
:1008F000DC01ED91FC910684F785E02D6E89199558
:10090000882309F43DC0B394B2E0CB0ED11CE0E1E2
:10091000BE12C1CFD70116968D919C911797892B46
:10092000F9F01A961C93242D40E0652DC7017DDD5A
:10093000D82E8823B9F0682FC701D3DD009709F4BA
:100940003ECFFC0114834D2D60E0C7010E941B14B3
:10095000182F882349F06D2DC70140DD812F1BC062
:1009600087ED19C084ED17C080E015C0012F242D3C
:10097000452D632DC70166DE813D09F484CF0BC090
:10098000012F242D452D6B2DC7015CDE982F977FFD
:10099000913D09F4B8CF66960FB6F894DEBF0FBE4E
:1009A000CDBFDF91CF911F910F91FF90EF90DF901E
:1009B000CF90BF90AF909F908F907F906F905F90FF
:1009C0004F903F902F9008951F93CF93DF931F92E6
:1009D000CDB7DEB7182F80E591E0D8DDCDDD812FD2
:1009E000CEDD80E0CCDD8983F0DD89810F90DF9161
:1009F000CF911F9108958F929F92AF92BF92CF9205
:100A0000DF92EF92FF920F931F93CF93DF93862E87
:100A1000942E59010E94A20F6B017C0128E8C20E9E
:100A200023E1D21EE11CF11C00E010E0D0E0C0E0A8
:100A300098280E94A20FDC01CB018C199D09AE09F8
:100A4000BF09B7FF29C0692D80EFDFDD0E94A20F2B
:100A5000DC01CB018C199D09AE09BF09B7FF07C0A6
:100A600088ECB2DF87FFF2CF60E888ECCEDD88EF5C
:100A7000ABDFC82FCF70C43019F0CE3051F00CC0AE
:100A80000F5F1F4FA114B104A1F20A151B0589F6CF
:100A900003C0DF5FD33069F68C2FDF91CF911F91B8
:100AA0000F91FF90EF90DF90CF90BF90AF909F900D
:100AB0008F9008952F923F924F925F926F927F9204
:100AC0008F929F92AF92BF92CF92DF92EF92FF925E
:100AD0000F931F93CF93DF9300D01F921F92CDB738
:100AE000DEB77D836C835A016901FB0121808FEFA2
:100AF000820D803408F06DC00E94A20F2B013C01D2
:100B0000F8E84F0EF3E15F1E611C711CEC81FD8162
:100B1000828180FD02C060E401C060E888EE75DD7E
:100B200020E0312CC114D10409F444C076012C1406
:100B30003D0408F47101EA82A8016E2D80E147DDD1
:100B40006E2D88E362DDEC81FD816081606280EF63
:100B50005CDD88EC39DF87FFFCCF60E888EC55DD91
:100B600088EF32DF282F2F70812C912C19822223BD
:100B700061F02B830E94A20FDC01CB01841995093F
:100B8000A609B7092B81B7FD05C0CE18DF080E0DE9
:100B90001F1DC8CF2630F9F02E3009F44CC0243088
:100BA00049F4FFEF8F1A9F0AA114B10441F18A148E
:100BB0009B0429F588EF2B8307DF85FB882780F9C5
:100BC000EC81FD81928180FB90F992832B81822FB1
:100BD00038C08AED36C088EFF7DE85FB882780F9BC
:100BE00091E08927EC81FD81928180FB90F99283CD
:100BF00090FD02C060E401C060E888EE06DD60E0C0
:100C000088E303DDF801608180E1FFDC6A8188E32D
:100C1000FCDCEC81FD816081606280EFF6DC88ECB9
:100C2000D3DE87FFFCCF60E888ECEFDC88EFCCDE1A
:100C3000282F2F709CCF89818F5F89838330F9F6AD
:100C4000B9CF0F900F900F900F900F90DF91CF9131
:100C50001F910F91FF90EF90DF90CF90BF90AF90DA
:100C60009F908F907F906F905F904F903F902F90CC
:100C700008952F923F924F925F926F927F928F9240
:100C80009F92AF92BF92CF92DF92EF92FF920F931B
:100C90001F93CF93DF93CDB7DEB729970FB6F894A4
:100CA000DEBF0FBECDBF1C01798768875B834A8397
:100CB0006901D9018D909C901197FB01F181F98315
:100CC0001D921C92DB0112968C9181FD02C060E1A5
:100CD00001C060E288EE99DC8E2D90E0A0E0B0E0EB
:100CE0008C839D83AE83BF83482C2A813B81A8855A
:100CF000B9854C9160E0C1017EDEF82EB6E08B1321
:100D000014C088EF61DE8295817091E08927E885C3
:100D1000F985928180FB91F9928391FD02C060E197
:100D200001C060E288EE71DCE0CF81115AC088EC2E
:100D30004BDE82FF54C080E347DE582E90E08816D9
:100D4000990608F4542CD6018D919C91652C712C38
:100D5000F401E81BF90BCF01F7FF02C080E090E03F
:100D60005301861597050CF45C0180E591E00EDCDB
:100D700003DC88E004DCA50160E070E0C8010E94AB
:100D8000C91EA114B10419F0B501C801D7DB0A0DC1
:100D90001B1D1BDC64E088EC38DCD6018D919C9136
:100DA0001197680E791E6D927C92B9815B1618F0CE
:100DB0006814790458F088EF07DE82958170E88521
:100DC000F985928180FB91F992830BC0EE2009F4A2
:100DD0008CCF6C817D818E819F81CDD686CF80EF37
:100DE000F82E8F2D29960FB6F894DEBF0FBECDBF1B
:100DF000DF91CF911F910F91FF90EF90DF90CF90F7
:100E0000BF90AF909F908F907F906F905F904F902A
:100E10003F902F9008958F929F92AF92BF92CF9262
:100E2000DF92EF920F931F93CF93DF9300D01F9227
:100E3000CDB7DEB76C01590148011C821B821A82B2
:100E400019828E010F5F1F4F9E012D5F3F4F0E9441
:100E5000A513811108C049815A816B817C8184016D
:100E60009501C60106DF0F900F900F900F90DF9154
:100E7000CF911F910F91EF90DF90CF90BF90AF90E7
:100E80009F908F900895CF92DF92EF92FF920F93F1
:100E90001F93CF93DF93CDB7DEB72E970FB6F8949D
:100EA000DEBF0FBECDBFFC012089211102C010E0C2
:100EB0007EC06C010E94A20FF6010485158526856F
:100EC0003785DC01CB01801B910BA20BB30BB7FD67
:100ED000EECF81E090E09E878D87E12C8E010F5F41
:100EE0001F4F9E01235F3F4F41E0628582819381C6
:100EF00092DF81114FC001E082E0F82E89818F21BD
:100F0000C1F019861A861B861C86AE01475F5F4FAB
:100F1000602FC6010E94EB1481110BC0AE01475F28
:100F20005F4F602FC6010E942112813B89F1811120
:100F300031C0FF0C0F5F083009F701E0F60183852F
:100F4000801730F119861A861B861C86AE01475F12
:100F50005F4F602FC6010E94EB14811117C0898575
:100F60009A85877091708130914081F48B859C8542
:100F700081609C878B87AE01475F5F4F602FC60102
:100F80000E942112813B21F0811104C00F5FD6CF56
:100F900010E001C0182FD6D7DC01CB018C599F4F30
:100FA000AF4FBF4FF60184879587A687B787812FFC
:100FB0002E960FB6F894DEBF0FBECDBFDF91CF9156
:100FC0001F910F91FF90EF90DF90CF9008952F9297
:100FD0003F924F925F926F927F928F929F92AF92C9
:100FE000BF92CF92DF92EF92FF920F931F93CF9316
:100FF000DF93CDB7DEB762970FB6F894DEBF0FBEB2
:10100000CDBF3C01F42E322E202E5C2D48A459A4D5
:10101000CAA4DBA41E861D861C861B868E01055F66
:101020001F4F9E01235F3F4F598B0E94A513598983
:10103000811197C039822A82EB825C83BE82AD82A5
:1010400098868F82AE014F5F5F4F68E080E2BFDA23
:101050002B853C854F2D60E1C301CDDC182F81111C
:101060007CC0232C221C2224221CC114D10409F48C
:1010700068C0ED85FE858281222009F454C082601B
:101080008283540133243394A114B10409F448C079
:101090005A8649864B855C856D857E85E12C860167
:1010A0009E01275F3F4FC301E4DD182F8630A9F46E
:1010B0002D853E8588EF298B3A8B86DC85FB88273A
:1010C00080F9832529893A89D90112969C91129732
:1010D00080FB91F912969C93D7CF81113EC0ECA56D
:1010E000FDA53097A1F00190F081E02D0190F081F5
:1010F000E02DC4018A199B09988B8F8769857A85B1
:101100009E01215F3F4FA6018CA59DA5199589855C
:101110009A85A81AB90A8415950508F0B5CF11C0AB
:1011200011111BC013C0816082834B855C858601D1
:101130009201BF01C301BEDC811113C02B853C8528
:101140000EC02B853C85211003C009C02B853C8532
:1011500060EA4F2DC3014FDC04C0812F02C060E85C
:10116000F8CF62960FB6F894DEBF0FBECDBFDF9109
:10117000CF911F910F91FF90EF90DF90CF90BF9094
:10118000AF909F908F907F906F905F904F903F9027
:101190002F9008953F924F925F926F927F928F921D
:1011A0009F92AF92BF92CF92DF92EF92FF920F93F6
:1011B0001F93CF93DF93CDB7DEB7E8970FB6F894C0
:1011C000DEBF0FBECDBFDC011296ED90FC901397F1
:1011D0001A963C9131110FC1822E342E962E3C016D
:1011E000D701ED91FC910190F081E02D60E0C70105
:1011F00019958C01009709F400C1FC01C080D180D1
:10120000C114D10409F4FBC05301F4E0AF0EB11CCA
:10121000DC011196BC92AE9214968C92FE0131962E
:101220002F019F0148E050E060E0D30112968D91BC
:101230009C9113970E944A14F80114828111E5C011
:1012400089808D81893009F0DCC0D701ED91FC9156
:101250000280F381E02D232D41E0692DC70119950E
:10126000F3018287882309F4CEC098859583482F9F
:1012700060E0828193810E941B14982E882391F054
:10128000D801CD92DC92D701ED91FC910480F581DB
:10129000E02DD3011A966C91C7011995F3011286BE
:1012A000192DB7C0482D413208F040E2D801CD9247
:1012B000DC9241110AC0950142E0F301628582810E
:1012C000938167D98111A4C00FC050E09201D3016E
:1012D0001A966C911A9712968D919C9113970E9471
:1012E0004A14811195C0E7CF1F921F925F924F92CF
:1012F0001F9288E08F9388E0882E912CA12CB12C2E
:1013000099E2C92EE12C06E020EA40E0F301628573
:10131000828193815CDE182F0F900F900F900F90B9
:101320000F900F90811175C08B81D3011B968C9308
:101330001B97820120E048E050E01A966C911A97C2
:1013400012968D919C9113970E94851C811160C00B
:101350004B815C8120E0F3016285828193810E9450
:10136000851C811155C0498150E08E010F5D1F4FD2
:1013700020E0D3011A966C911A9712968D919C9148
:1013800013970E94851C811143C01F921F921F92C8
:101390001F921F921F92812C912CC12CEE8009E08C
:1013A00020E040E0F30162858281938110DE182FF6
:1013B0000F900F900F900F900F900F90811129C0F8
:1013C00001E0D3011B968C911B97801738F0402FBA
:1013D00068E0C3010E9417150F5FF3CF1296ED91DD
:1013E000FC911397EA58FF4F80818460808381E0ED
:1013F00050968C930EC019ED0CC016ED0AC017ED77
:1014000008C011ED06C014ED04C0F801D182C082FD
:10141000182F812FE8960FB6F894DEBF0FBECDBF10
:10142000DF91CF911F910F91FF90EF90DF90CF90C0
:10143000BF90AF909F908F907F906F905F904F90F4
:101440003F9008951F93CF93DF9300D0CDB7DEB7C1
:10145000182F80E591E06B8399D88ED8126019839C
:101460006B816A8362E070E0CE01019667D8ADD8E7
:101470000F900F900F90DF91CF911F9108951F93C0
:10148000CF93DF931F92CDB7DEB7182F80E591E0A1
:101490007DD872D8812F73D880E071D8898395D890
:1014A00089810F90DF91CF911F910895FC01A08950
:1014B000B1898C91A689B78982FD0FC09C91818DDD
:1014C0008F5F8F73228D821749F0218DDF01A20F6C
:1014D000B11D5D969C93818F08958C910895FC01B8
:1014E000538D448D252F30E0842F90E0821B930B89
:1014F000541710F0CF96089501970895FC01918D2F
:10150000828D981761F0828DDF01A80FB11D5D9665
:101510008C91928D9F5F9F73928F90E008958FEFD3
:101520009FEF0895FC01918D828D981731F0828D87
:10153000E80FF11D858D90E008958FEF9FEF0895DE
:10154000FC01918D228D892F90E0805C9F4F821B42
:1015500091098F739927089583E093E0F1DF21E0EB
:10156000892B09F420E0822F089585E692E0E8DFD8
:1015700021E0892B09F420E0822F0895FC01848D5D
:10158000DF01A80FB11DA35ABF4F2C91848D90E0AD
:1015900001968F739927848FA689B7892C93A08988
:1015A000B1898C9180648C93938D848D981306C03F
:1015B0000288F389E02D80818F7D80830895EF92EA
:1015C000FF920F931F93CF93DF93EC0181E0888FFD
:1015D0009B8D8C8D981305C0E889F989808185FDE4
:1015E00023C0F62E0B8D10E00F5F1F4F0F731127D6
:1015F000E02E8C8DE8120BC00FB607FCFACFE889FD
:10160000F989808185FFF5CFCE01B8DFF2CF8B8DD0
:10161000FE01E80FF11DE35AFF4FF0820B8FEA89BC
:10162000FB898081806207C0EE89FF896083E88939
:10163000F98980818064808381E090E0DF91CF919F
:101640001F910F91FF90EF900895CF93DF93EC01DE
:10165000888D8823C1F0EA89FB89808185FD05C0DA
:10166000A889B9898C9186FD0EC00FB607FCF5CF0D
:10167000808185FFF2CFA889B9898C9185FFEDCF54
:10168000CE017CDFE8CFDF91CF91089580E090E03C
:10169000892B19F06ADF811120C080E090E0892B4E
:1016A00019F05ADF81111CC080E090E0892B41F0D5
:1016B00080E090E0892B21F00E940000811113C08E
:1016C00080E090E0892BA1F080E090E0892B81F010
:1016D0000E94000081110AC008950E940000DDCF21
:1016E0000E940000E1CF0E940000EACF0C940000AD
:1016F00008953FB7F8948091600290916102A091A3
:101700006202B091630226B5A89B05C02F3F19F075
:101710000196A11DB11D3FBFBA2FA92F982F882771
:10172000820F911DA11DB11DBC01CD0142E0660FCC
:10173000771F881F991F4A95D1F70895CF93DF939C
:10174000EC011A821B821C821D821E828F81988569
:10175000DC01ED91FC910480F581E02D69851995FE
:1017600019861FA280E0DF91CF9108956E3584E045
:10177000780739F06D3A9BE1790719F06E327641BE
:1017800041F481E0493197E0590729F0413952404D
:1017900011F080E008950895FC0187A10895FC01EF
:1017A000818508950E94C51E1F920F920FB60F9259
:1017B00011240BB60F922F933F934F935F936F9328
:1017C0007F938F939F93AF93BF93EF93FF9383E0A8
:1017D00093E0D4DEFF91EF91BF91AF919F918F91F4
:1017E0007F916F915F914F913F912F910F900BBE21
:1017F0000F900FBE0F901F9018951F920F920FB66B
:101800000F9211240BB60F922F933F934F935F9338
:101810006F937F938F939F93AF93BF93EF93FF93B8
:1018200083E093E043DEFF91EF91BF91AF919F91F1
:101830008F917F916F915F914F913F912F910F9079
:101840000BBE0F900FBE0F901F9018951F920F9216
:101850000FB60F9211240BB60F922F933F934F9315
:101860005F936F937F938F939F93AF93BF93EF9308
:10187000FF9385E692E082DEFF91EF91BF91AF91F9
:101880009F918F917F916F915F914F913F912F9198
:101890000F900BBE0F900FBE0F901F9018951F92C8
:1018A0000F920FB60F9211240BB60F922F933F9306
:1018B0004F935F936F937F938F939F93AF93BF9358
:1018C000EF93FF9385E692E0F1DDFF91EF91BF91F9
:1018D000AF919F918F917F916F915F914F913F91C8
:1018E0002F910F900BBE0F900FBE0F901F90189569
:1018F000362F90E0FC01E35AFE4F4491FC01EF5B70
:10190000FD4F2491FC01E550FE4F9491992309F479
:101910006BC0442309F455C050E0FA013197E2311D
:10192000F10508F04EC08827EE58FF4F8F4F0C94FA
:10193000BD1E809180008F7707C0809180008F7DD1
:1019400003C080918000877F809380003AC084B577
:101950008F7702C084B58F7D84BD33C08091B00085
:101960008F7703C08091B0008F7D8093B00029C035
:10197000809190008F7707C0809190008F7D03C089
:1019800080919000877F809390001BC08091A00081
:101990008F7707C08091A0008F7D03C08091A00049
:1019A000877F8093A0000DC0809120018F7707C0B2
:1019B000809120018F7D03C080912001877F8093DB
:1019C0002001E92FF0E0EE0FFF1FE953FE4FA59134
:1019D000B4918FB7F894EC91311103C020952E2368
:1019E00001C02E2B2C938FBF08951F93CF93DF93AD
:1019F000182FEB016CD6209711F460E004C0CF3FA4
:101A0000D10531F461E0812FDF91CF911F9170CF2B
:101A1000E12FF0E0E35AFE4FE4914E2F50E0FA013F
:101A20003197E231F10508F09DC08827EC57FF4F50
:101A30008F4F0C94BD1E84B5806884BDC7BD97C010
:101A400084B5806284BDC8BD92C0809180008068EA
:101A500080938000D0938900C093880088C08091D3
:101A60008000806280938000D0938B00C0938A00B6
:101A70007EC080918000886080938000D0938D002C
:101A8000C0938C0074C08091B00080688093B000D7
:101A9000C093B3006CC08091B00080628093B000AE
:101AA000C093B40064C080919000806880939000DF
:101AB000D0939900C09398005AC0809190008062A2
:101AC00080939000D0939B00C0939A0050C0809167
:101AD0009000886080939000D0939D00C0939C00FC
:101AE00046C08091A00080688093A0008091A000F3
:101AF0008F7B8093A000D093A900C093A80037C02B
:101B00008091A00080628093A000D093AB00C0932E
:101B1000AA002DC08091A00088608093A000D0937F
:101B2000AD00C093AC0023C08091200180688093F9
:101B30002001D0932901C093280119C08091200170
:101B4000806280932001D0932B01C0932A010FC0A3
:101B500080912001886080932001D0932D01C09353
:101B60002C0105C0C038D1050CF04CCF46CFDF9119
:101B7000CF911F9108958F929F92AF92BF92CF9273
:101B8000DF92EF92FF926B017C01B3DD4B015C01B0
:101B9000C114D104E104F104E9F0ABDDDC01CB01B7
:101BA00088199909AA09BB09883E9340A105B10586
:101BB00078F321E0C21AD108E108F10888EE880E16
:101BC00083E0981EA11CB11CC114D104E104F104EE
:101BD00021F7DECFFF90EF90DF90CF90BF90AF90D6
:101BE0009F908F9008958F929F92AF92BF92CF92C5
:101BF000DF92EF92FF920F931F93CF93DF93EC014D
:101C0000022FEF80F884D701ED91FC910190F081D3
:101C1000E02D6985C70119956C01892B11F486EDBA
:101C20008BC06CE271E080E090E0A5DF498560E068
:101C30008F81988500D6182F882319F0F601148219
:101C400073C0D60114961C92D701ED91FC910190BE
:101C5000F081E02D6985C7011995009701F3FC011A
:101C600004836E01FAE0CF0ED11C960141E0698534
:101C70008F8198850E94C902182F811155C0FF24B9
:101C8000F394FD8633E027E090E29E8784E08F871F
:101C9000F88A998B8A8B3B8B9C8B8D8B3E8B9F8B91
:101CA000888F35E0398F9A8F8B8F3C8F9D8F8E8FE9
:101CB0002F8F98A389A32AA39BA38CA3960149E005
:101CC00069858F8198850E94C902182F81112CC0C7
:101CD00068EC70E080E090E04EDF1F921F921F9250
:101CE0001F921F921F92812C912CA12CB12CC12CE0
:101CF000EE24E39409E020E04A8569858F81988588
:101D000066D9182F0F900F900F900F900F900F9093
:101D100081110AC0FA82FFA2CC57DF4F18821982C4
:101D20001A821B8280E008C0E881F9810480F58175
:101D3000E02DCE011995812FDF91CF911F910F9149
:101D4000FF90EF90DF90CF90BF90AF909F908F90DB
:101D500008956F927F929F92AF92BF92CF92DF923F
:101D6000EF92FF920F931F93CF93DF93CDB7DEB720
:101D700062970FB6F894DEBF0FBECDBFDC01179699
:101D8000AD90BC90189719963C9131116CC0122FF0
:101D9000942E062F7C01D501ED91FC910190F081EC
:101DA000E02D60E0C50119956C01009709F45DC054
:101DB000FC01608071806114710409F458C0C7018E
:101DC0000A969183808314839E012F5F3F4F42E1E7
:101DD00050E060E0D70117968D919C9118975AD5E5
:101DE000182FF6017182608281112EC089859A8533
:101DF0002B853C858E35F4E09F0739F08D3A4BE119
:101E0000940719F08E32964119F52931B7E03B0756
:101E100019F021393240E1F4D501ED91FC910280B5
:101E2000F381E02D292D40E0602FC5011995F701C0
:101E300081878823F1F08885838764E170E080E002
:101E400090E099DE80EE16C08D3019F011EE01C0E1
:101E500011EDD701ED91FC910480F581E02DC701D2
:101E60001995812F07C089ED05C086ED03C087ED68
:101E700001C084ED62960FB6F894DEBF0FBECDBFF1
:101E8000DF91CF911F910F91FF90EF90DF90CF9056
:101E9000BF90AF909F907F906F900895CF92DF9208
:101EA000FF920F931F93CF93DF9300D01F92CDB774
:101EB000DEB78C01F62E19821A821B821C82462FF5
:101EC00061E15FD54F2D60E1C8015BD54F2D64E026
:101ED000C801ADD583E0C82ED12CAE014F5F5F4F56
:101EE0006F2DC80178D58823C9F04F2D64E1C80152
:101EF00048D54F2D60E1C80144D564E170E080E031
:101F000090E039DE0F900F900F900F90DF91CF91FE
:101F10001F910F91FF90DF90CF90089589819A8152
:101F2000AB81BC819D7F83309140A041B105E9F236
:101F300064E670E080E090E01EDE81E0C81AD1081F
:101F400061F6D3CF2FB7F89460915C0270915D0277
:101F500080915E0290915F022FBF08952F923F9271
:101F60004F925F926F927F928F929F92AF92BF92A9
:101F7000CF92DF92EF92FF920F931F93CF93DF9355
:101F8000CDB7DEB7A2970FB6F894DEBF0FBECDBFB8
:101F9000DC0197962C91222309F4EFC16C018C018E
:101FA0000C571F4FF80180819181A281B381892B49
:101FB0008A2B8B2B09F497C1C5DFD8018D909D909A
:101FC000AD90BC90DC01CB0188199909AA09BB0925
:101FD000893B9B40A105B10508F085C11601F0E7DA
:101FE0002F0E311C560103E0A00EB11C360118E281
:101FF000610E711C460120E5820E911CF12C81E0DE
:10200000260138E8430E511CD601A757BF4FB887A9
:10201000AF83F601E257FF4FFA87E9878601015740
:102020001F4F1C870B87960120573F4F3E872D87F8
:102030001896B88BAF873596FA8BE98B0D5F1F4FDB
:102040001C8B0B8B2B5F3F4F3E8B2D8B1396B88FCA
:10205000AF8B3496FA8FE98F0C5F1F4F1C8F0B8F5D
:102060002C5F3F4F3E8F2D8F20E230E03A83298353
:1020700090E0FC01EE0FFF1F8E0F9F1FF601E80F8F
:10208000F91FE12C82019E012F5F3F4F4285D6014F
:1020900019966C91199717968D919C9118970E949B
:1020A0000B0789819A81892B09F400C141145104DD
:1020B00009F4FCC0F2018081883009F03CC0AF8196
:1020C000B8858C91F50190818917A9F180838823C7
:1020D00009F4ECC0D6019596ED91FC919697309756
:1020E00011F01995E3C0FF2049F0B1E0FB1649F06B
:1020F000E2E0FE1649F0E4E0F0E008C0E1E0F0E0E4
:1021000005C0E2E0F0E002C0E3E0F0E0E95AFE4F93
:10211000E491A60148555F4FDA011C9211961C927A
:1021200088E011968C931196EC5FE064EC936F2D30
:10213000C601A7D4BBC0EF81F8858081811113C08F
:10214000F601E557FF4F2081822F837109F4AEC05D
:1021500031968081823208F4A9C090E0922BD1019F
:102160008D939C93A3C0813009F0A0C0F5018081BC
:10217000811102C080E88083A985BA852C91EB8506
:10218000FC85808190E0A0E0B0E0DC019927882701
:10219000B22BED85FE85408150E0542F4427EF851A
:1021A000F8892081422B60E070E0842B952BA62BD0
:1021B000B72BF30180839183A283B383E989FA89E2
:1021C000208130E0322F2227EB89FC894081242BAB
:1021D000F40131832083ED89FE89208130E0322FA4
:1021E0002227EF89F88D4081242BF4013383228349
:1021F000E98DFA8D208130E0322F2227EB8DFC8D86
:102200004081242BF40135832483ED8DFE8D2081C4
:1022100030E0322F2227F601E856FF4F4081242B71
:10222000F40137832683F3014089518962897389D8
:1022300084179507A607B707C9F1EE24E394F501C3
:10224000EB58FF4FE082F101B8978A019B0100959E
:102250001095209530958901222733270F8F18A3D9
:1022600029A33AA38D01222733270B831C832D83B7
:102270003E8398010F8D18A12023312331832083C1
:10228000411106C0882321F0F501E358FF4FE08299
:10229000511107C0992329F021E0F501E758FF4FBC
:1022A0002083F301808B918BA28BB38BF394F4E0AA
:1022B000FF1609F462C0B1E0FB1629F0E2E0FE1659
:1022C00021F087E003C083E001C085E0F2E02F0E3B
:1022D000311C0FEFA01AB00A14E0610E711C28E047
:1022E000820E911CC1CE2EDED8016D937D938D930D
:1022F0009C931397F60187A1882309F46FCE76018A
:1023000038EAE30EF11C88E0D7018C933601B9EA74
:102310006B0E711CF30110824601FAEA8F0E911CBC
:102320008FE0D4018C935601BBEAAB0EB11C80EC5C
:10233000F501808310E0A701612FC601A2D31F5FC2
:102340001430C9F7D7011C92F3011082D4011C92FA
:1023500080E4F50180835601F3E0AF0EB11C10E07C
:10236000D5018D915D01882321F0A701612FC60160
:1023700088D31F5F1430A1F731CE80E0A2960FB64C
:10238000F894DEBF0FBECDBFDF91CF911F910F91AB
:10239000FF90EF90DF90CF90BF90AF909F908F9085
:1023A0007F906F905F904F903F902F9008951F9275
:1023B0000F920FB60F9211242F933F938F939F93F9
:1023C000AF93BF9380915C0290915D02A0915E02F9
:1023D000B0915F0230915B0223E0230F2D3720F490
:1023E0000196A11DB11D05C026E8230F0296A11D6F
:1023F000B11D20935B0280935C0290935D02A093D9
:102400005E02B0935F028091600290916102A091A0
:102410006202B09163020196A11DB11D809360021A
:1024200090936102A0936202B0936302BF91AF9157
:102430009F918F913F912F910F900FBE0F901F9002
:102440001895CF92DF92EF92FF920F931F93CF9345
:102450008C01C62F7A01FA0180819181A281B3811A
:102460008130F3E09F07F1E0AF07B105E1F060F4E0
:102470008115E1E09E07AE07B10551F18130914031
:10248000A140B10581F087C0833021E0920720E1AF
:10249000A207B10509F463C083309340A041B105A0
:1024A00009F45DC078C080915A02811174C04C2F2C
:1024B00061E1C80166D24C2F60E1C80162D24C2FA5
:1024C00064E0C801B4D281E080935A0281EB64C019
:1024D000462F61E1C80155D24C2F60E1C80151D2AD
:1024E00010925A02D8011A968C911A978770C77069
:1024F000880F880F880FC82B1296ED90FC901397C9
:10250000CC2309F448C06701B6E5CB0ED11C00E02E
:1025100010E0F601819191916F010097D1F0DC01FB
:10252000ED91FC910084F185E02D19958C1311C07B
:10253000055D1F4F000F111FF701E00FF11F808194
:102540009181DC01ED91FC910480F581E02D1995DC
:1025500022C00F5F1F4F00311105D9F61CC04C2F50
:1025600064E1C8010ED24C2F60E1C8010AD264E1D7
:1025700070E080E090E0FFDAF8016285D701119603
:102580002C912695217067704C2F828193810E9437
:10259000BC0310925A0280E0CF911F910F91FF90DF
:1025A000EF90DF90CF900895CF92DF92EF92FF925D
:1025B0000F931F93CF93DF936C017A018B01C0E0DF
:1025C000D0E0CE15DF0589F0D8016D918D01D601DF
:1025D000ED91FC910190F081E02DC6011995892BB8
:1025E00011F47E0102C02196ECCFC701DF91CF919B
:1025F0001F910F91FF90EF90DF90CF900895809101
:10260000A203882379F08091A4039091A503DC01B3
:10261000ED91FC910190F081E02D6091A30319955B
:102620001092A3030895CF93C82F8091A403909193
:10263000A503DC01ED91FC910190F081E02D6C2F60
:1026400019958091A203882389F09091A3038C2F80
:10265000892798E041E980FD8427282F30E03595CF
:102660002795822F9150B9F72093A303CF91089516
:10267000CF93DF93EC018F77D6DFCE01880F892FC0
:10268000881F990B91958F77DF91CF91CCCFCF9306
:102690009091A0039F3F49F0C82F8AEAC4DF809140
:1026A000A0038F77C0DF8C2F8F77CF91BCCF1F9384
:1026B000CF93DF93182FEB0184E8E9DF812F8F7729
:1026C000B2DFCE01D5DFDF91CF911F9198CF90E09F
:1026D000FC01EF5BFD4F2491FC01E550FE4F84911E
:1026E000882399F090E0880F991FFC01EF51FE4F6D
:1026F000A591B491FC01E953FE4F859194918FB758
:10270000F894EC91E22BEC938FBF0895880F991FFA
:10271000FC01EE7FF170ED55FE4F25913491E62FCF
:10272000F0E0EE0FFF1FE050FC4F80819181A90186
:1027300040955095482359235183408328233923BA
:1027400081E0232B09F480E008958F929F92BF923D
:10275000CF92DF92EF92FF920F931F93CF93DF936D
:102760001F92CDB7DEB74C01B62E690149830E9496
:1027700071027C014981009709F44BC0DC01ED91A5
:10278000FC911197309709F446C013969C9180E014
:10279000891731F02081241729F033968F5FF8CF05
:1027A000E0E0F0E0D601ED93FC933097B1F12281A7
:1027B0002695269530E02031310514F02FE030E0E9
:1027C00081E090E0A0E0B0E004C0880F991FAA1F4C
:1027D000BB1F2A95D2F70197F801918380836B2D57
:1027E00080EE0E94050388ED0E94E404682FD70163
:1027F00014968C91882339F0F401EA58FF4F8081B8
:102800008260682B01C0697F88ED0E94050380E02B
:1028100005C086ED03C087ED01C08BED0F90DF9101
:10282000CF911F910F91FF90EF90DF90CF90BF90CD
:102830009F908F9008958F929F92AF92BF92CF9268
:10284000EF920F93CF931F921F921F921F921F928E
:102850001F92812C912CA12CB12CC12CE42E05E0CF
:1028600020E040E00E94E707C82F6CE271E080E0C2
:1028700090E081D90F900F900F900F900F900F90D4
:102880008C2FCF910F91EF90CF90BF90AF909F90F2
:102890008F9008958F929F92AF92BF92CF92EF92B6
:1028A0000F931F921F923F932F935F934F934A0171
:1028B000A12CB12CCC24C394E12C06E020E840E00C
:1028C0000E94E7070F900F900F900F900F900F90BE
:1028D0000F91EF90CF90BF90AF909F908F90089501
:1028E00088EF0E943F0A807C8034A1F018F488238E
:1028F00001F10895803819F0803CB9F0089588ED11
:102900000E943F0A81FD0BC069EC88ED0E94220AFB
:1029100082E00CC088ED0E943F0A81FDF5CF6BEC90
:1029200088ED0E94220A83E001C081E08093640266
:10293000089561ED88ED0E94220A109264020895C4
:102940000F931F93CF93DF938C01C0E0D0E0F80189
:10295000EC0FFD1F6491662371F0E0916502F09128
:1029600066020190F081E02D85E692E01995892BB1
:1029700011F02196ECCFCE01DF91CF911F910F91F5
:1029800008958F929F92AF92BF92CF92EF920F9342
:10299000A42EB12C1F921F921F921F921F921F9262
:1029A000812C912CC12CE62E01E023E240E0FC01B9
:1029B0006285828193810E94E7070F900F900F90AC
:1029C0000F900F900F900F91EF90CF90BF90AF901E
:1029D0009F908F9008958F929F92AF92BF92CF92C7
:1029E000EF920F93A62EB12C1F921F925F934F93DD
:1029F0001F9224E02F9324E0822E912CC12CE12CF5
:102A000000E023EA40E0FC016285828193810E941C
:102A1000E7070F900F900F900F900F900F900F916E
:102A2000EF90CF90BF90AF909F908F9008958F922E
:102A30009F92AF92BF92CF92EF920F93A42EB12CA0
:102A40001F921F921F921F921F921F92812C912CF6
:102A5000C12CE62E03E023E240E0FC016285828186
:102A600093810E94E7070F900F900F900F900F90A7
:102A70000F900F91EF90CF90BF90AF909F908F905D
:102A80000895CF92DF92EF92FF920F931F93CF930F
:102A9000DF9300D01F92CDB7DEB7613039F050F030
:102AA000623031F0633091F528E005C024E003C0C6
:102AB00026E001C022E07A01DC0130E0F901EE0FEE
:102AC000FF1F2E0F3F1FFD01E20FF31F42851996D6
:102AD0006C9119971796CD90DC9018971C821B82E9
:102AE0001A8219828E010F5F1F4F9E012D5F3F4F8B
:102AF000C6012BDE81110AC049815A816B817C811C
:102B0000870124E030E0C6010E945A050F900F9023
:102B10000F900F90DF91CF911F910F91FF90EF9049
:102B2000DF90CF900895CF93DF93CDB7DEB7649752
:102B30000FB6F894DEBF0FBECDBF789484B5826027
:102B400084BD84B5816084BD85B5826085BD85B551
:102B5000816085BD80916E00816080936E001092CF
:102B6000810080918100826080938100809181004A
:102B700081608093810080918000816080938000DB
:102B80008091B10084608093B1008091B000816039
:102B90008093B00080919100826080939100809139
:102BA000910081608093910080919000816080937A
:102BB00090008091A10082608093A1008091A1008B
:102BC00081608093A1008091A00081608093A0002B
:102BD0008091210182608093210180912101816097
:102BE0008093210180912001816080932001809158
:102BF0007A00846080937A0080917A00826080936A
:102C00007A0080917A00816080937A0080917A00C6
:102C1000806880937A001092C100E0911303F091D4
:102C2000140322E02083E0910F03F091100310823F
:102C3000E0911103F09112038FEC808310921B033B
:102C4000E0911703F091180396E09083E09115034B
:102C5000F0911603808180618083E0911503F091EB
:102C60001603808188608083E0911503F09116033C
:102C7000808180688083E0911503F0911603808144
:102C80008F7D8083E0917502F09176022083E09140
:102C90007102F09172021082E0917302F09174025D
:102CA00080E1808310927D02E0917902F0917A02B6
:102CB0009083E0917702F091780280818061808337
:102CC000E0917702F0917802808188608083E091C2
:102CD0007702F0917802808180688083E0917702AA
:102CE000F091780280818F7D8083209A0E94E50296
:102CF0001FB7F89480915202811121C0E0E3F2E005
:102D00008491E6E7F2E09491E82FF0E0EE0FFF1FE8
:102D1000EF51FE4FA591B491EC91E92321F461E0CC
:102D200085E30E94780C85E3D2DC8CB580618CBD94
:102D30008CB580648CBD84E3CADC83E3C8DC8091FD
:102D400052028F5F809352021FBF209A0E94E502B9
:102D50006E9868E188E80E94220A60E288E70E9493
:102D6000220A60E088E70E94220A01E010E00115D3
:102D7000110509F432C488E60E943F0A0F5F1F4F15
:102D800080FFF5CF61EC88ED0E94220A60E680EDBD
:102D90000E94220A64E088EE0E94220A88EE0E94C5
:102DA0003F0A82FFFBCF9CDD60E288EC0E94220A92
:102DB00061E080E80E94220A8CE291E0C1DD89E8AE
:102DC00066DC80E030DC8AE090E052DC18DC87E8EA
:102DD0005EDC80E028DC80E090E04ADC10DC60E72C
:102DE00077E180E064DC89E852DC81E01CDC8AE089
:102DF00090E03EDC04DC87E84ADC81E014DC80E023
:102E000090E036DCFCDB60E777E181E050DC40E518
:102E1000242E50E9352E63EB462E62E6562E612CA9
:102E2000712C66990CC088EC0E94E40485FF03C0F5
:102E300057DD60E201C060E088EC0E9405038091EC
:102E40006402813041F058F0823091F0833049F5CE
:102E5000DD24D3940EC083E18093020322C08091CD
:102E60000203807F8031E9F091E19093020319C061
:102E7000D12C80910203807F8031A1F463D8DC01E2
:102E8000CB0188539F4FAF4FBF4F80935402909315
:102E90005502A0935602B093570280E2809302033A
:102EA00001C0D12C0DEB14E07801D7018D919D91DB
:102EB0007D01009739F0DC01ED91FC910680F781EE
:102EC000E02D1995BDEDEB16B4E0FB0671F780918E
:102ED0000203803409F444C050F4803229F1803375
:102EE000B9F1813109F08CC01092DD040AC081353E
:102EF00009F45EC0803809F470C0803509F080C0E4
:102F00003FC0F801819191918F01009739F0DC0168
:102F1000ED91FC910480F581E02D1995B4E00D3D13
:102F20001B0779F782E119C00DD800915402109166
:102F300055022091560230915702DC01CB01801BD3
:102F4000910BA20BB30BB7FD5BC080E38093020330
:102F500061E088EE0E94050380E48093020350C084
:102F600088EE0E94E40480FD4BC088ED0E94E404DA
:102F7000682F686088ED0E9405032092020340C01C
:102F800088EC0E94E40486FF3BC081E58093020345
:102F90000E94A20FDC01CB014496A11DB11D8093BC
:102FA000540290935502A0935602B093570228C042
:102FB0000E94A20F009154021091550220915602D6
:102FC00030915702DC01CB01801B910BA20BB30B9C
:102FD000B7FD16C0E0E8E09302032D2D40E060E06D
:102FE00087E694E00E94BC03882341F0823D41F0D3
:102FF00080935302F0EAF093020302C0309202037E
:1030000020910A0430910B042D348DE138079CF097
:10301000C901330FAA0BBB0B9C01AD012C543D41E0
:1030200041095109AFEFB0E0CDD5A3019201AED572
:10303000CA01B9011AC0243B92EE3907E4F4C90170
:10304000330FAA0BBB0B9C01AD01215030484F4FF1
:103050005F4FAFEFB0E0B6D5A301920197D5CA019B
:10306000B9016F5F7109810991097DD46D837E83F8
:103070008F83988704C01D821E821F82188620912C
:103080000E0430910F042D34ADE13A079CF0C901D4
:10309000330FAA0BBB0B9C01AD012C543D414109E0
:1030A0005109AFEFB0E08ED5A30192016FD5CA01EF
:1030B000B9011AC0243BB2EE3B07D4F4C901330F67
:1030C000AA0BBB0B9C01AD01215030484F4F5F4F05
:1030D000AFEFB0E077D5A301920158D5CA01B9018D
:1030E0006F5F7109810991093ED44B015C0103C0F6
:1030F000812C912C540160E080E090E007DB882374
:1031000001F1C0900402D0900502E0900602F09018
:10311000070220E030E040E85FE3C701B6011DD4BC
:1031200087FF0FC02DEC3CEC4CEC5DE3C701B60112
:103130008BD56093040270930502809306029093EE
:10314000070260E082E090E0E1DA8823F9F0C090C5
:103150000402D0900502E0900602F090070220E001
:1031600030E0A901C701B60104D618167CF42DEC95
:103170003CEC4CEC5DE3C701B60165D560930402FD
:1031800070930502809306029093070260E081E04D
:1031900090E0BCDA882301F1C0900002D0900102D7
:1031A000E0900202F090030220E030E040E85FE3AC
:1031B000C701B601D2D387FF0FC020E030E040EA5C
:1031C00050E4C701B60140D560930002709301023C
:1031D000809302029093030260E083E090E096DA2D
:1031E0008823F9F0C0900002D0900102E090020222
:1031F000F090030220E030E0A901C701B601B9D583
:1032000018167CF420E030E040EA50E4C701B60133
:103210001AD560930002709301028093020290938A
:10322000030260E080E090E071DA882301F1C09051
:103230000402D0900502E0900602F090070220E020
:1032400030E040E85FE3C701B60187D387FF0FC0D6
:103250002DEC3CEC4CEC5DE3C701B601F5D460937A
:103260000402709305028093060290930702609116
:10327000E0038091E1036B3028F070E080E090E0A3
:1032800070D30AC0682F70E0719561957109072E9F
:10329000000C880B990B67D36D877E878F87988B7F
:1032A00061E08FE090E032DA882309F4D2C080E058
:1032B00090E8ABEBB5E489839A83AB83BC836C0164
:1032C0007D018091580290915902019684319105B7
:1032D0002CF49093590280935802B2C01092590274
:1032E000109258028091040290910502A09106026A
:1032F000B091070289879A87AB87BC879C01AD0193
:10330000C501B4018FD34B015C0129853A854B85FA
:103310005C856D817E818F81988584D39058F8D4A7
:103320008B0177FF0BC021E030E03093A70320939F
:10333000A60300271127061B170B04C01092A70332
:103340001092A6036091A6038091B0030E94780CAE
:10335000B8018091B2030E94F50CC501B401D8D424
:103360008B0177FF0BC021E030E03093A70320935F
:10337000A60300271127061B170B04C01092A703F2
:103380001092A6036091A6038091B4030E94780C6A
:10339000B8018091B6030E94F50C6D857E858F85FE
:1033A0009889B6D49B01AC015B0177FF0BC081E02B
:1033B00090E09093A7038093A60388249924821A0F
:1033C000930A05C01092A7031092A6034B016091C7
:1033D000A6038091A803298B3A8B4B8B5C8B0E94B0
:1033E000780CB4018091AA030E94F50C29893A89CE
:1033F000B7FE0BC081E090E09093A7038093A603F3
:10340000AA24BB24A21AB30A04C01092A7031092E4
:10341000A6036091A6038091AC030E94780CB501CD
:103420008091AE030E94F50C69817A818B819C8129
:1034300074D481E03CD9C701B6016FD480E037D99C
:1034400061E070E080E090E00E94BB0D0E94460BBE
:10345000E8CC20911204309113042D349DE13907FA
:10346000BCF0C901330FAA0BBB0B9C01AD012C545E
:103470003D4141095109A0EABFE0A4D3A301920153
:1034800085D3CA01B9016059784E8F4F9F4F1AC03A
:10349000243BE2EE3E07E4F4C901330FAA0BBB0B59
:1034A0009C01AD01215030484F4F5F4FA0EABFE073
:1034B00089D3A30192016AD3CA01B9016053784F3D
:1034C0008F4F9F4F50D269837A838B839C8308C030
:1034D00080E090E8ABEBB5E489839A83AB83BC834F
:1034E00020911604309117042D349DE13907BCF06A
:1034F000C901330FAA0BBB0B9C01AD012C543D41FC
:1035000041095109A0EABFE05DD3A30192013ED376
:10351000CA01B9016059784E8F4F9F4F1AC0243BA2
:10352000A2EE3A07D4F4C901330FAA0BBB0B9C01DE
:10353000AD01215030484F4F5F4FA0EABFE042D36A
:10354000A301920123D3CA01B9016053784F8F4F71
:103550009F4F09D26B017C0107C0C12C30E8D32EEC
:103560003BEBE32E35E4F32E8091E4039091E503E9
:10357000A091E603B091E7038B3068F09927AA2762
:10358000BB279C01AD012A50310941095109A0EA2C
:10359000BFE018D313C0892F9A2FAB2FBB278B30D6
:1035A00008F48FCE9927AA27BB279C01AD012A508A
:1035B000310941095109A0E6B0EF10D325EF30E001
:1035C00040E050E0E3D2CA01B9016059784E8F4F14
:1035D0009F4FC9D16B017C0174CE83E491E0B0D9D7
:1035E000FFCFCF93DF93109206031092050348EEAE
:1035F00053E060E070E0409307035093080360934A
:10360000090370930A038CE092E090930403809383
:1036100003032DEC30E03093100320930F032CECC8
:1036200030E0309312032093110328EC30E0309304
:1036300014032093130329EC30E0309316032093F6
:1036400015032AEC30E030931803209317032EEC77
:1036500030E030931A032093190310921C03109248
:103660001D0310921E0310921F0310926802109205
:1036700067024093690250936A0260936B027093F1
:103680006C02909366028093650285EC90E09093C3
:1036900072028093710284EC90E0909374028093A4
:1036A000730280EC90E0909376028093750281EC37
:1036B00090E0909378028093770282EC90E0909370
:1036C0007A028093790286EC90E090937C0280935A
:1036D0007B0210927E0210927F0210928002109262
:1036E000810280910401846080930401809105012E
:1036F0008460809305018CE492E090936804809349
:10370000670410926C0410926F0481E0809370043F
:103710001092710489E694E090936E0480936D0496
:103720001092690488E080936A048CE380936B04B0
:1037300080E090E041E029E634E0FC01E959FB4FEC
:103740001586468717863487238705968B3491051F
:10375000A1F71092DD0481E18093020386E392E0F9
:103760009093DF048093DE0487E694E09093E10475
:103770008093E0041092E8041092E9041092EA04A5
:103780001092EB041092EC041092ED041092EE04EF
:103790001092E20488E08093E3049CE39093E404B5
:1037A00091E09093E5048093E60484E08093E7043D
:1037B000EDEBF4E080E090E021913191232B51F486
:1037C000880F991FFC01E354FB4F8EED94E0918329
:1037D000808304C001968031910571F78EE192E0FB
:1037E0009093B9038093B80387E694E09093C00365
:1037F0008093BF031092C1031092DF03A3ECB3E0E8
:1038000080E090E0FD0131971082009711F428E0EC
:1038100001C020E02C93FC01EE0FFF1FEF01C80F49
:10382000D91FCC53DC4F28812E7F2D7F2883009712
:1038300011F42FE001C021E0E80FF91FEC53FC4F19
:10384000220F220F30813370232B20830196139691
:1038500089309105B9F6EDEBF4E080E090E021913C
:103860003191232B51F4880F991FFC01E354FB4F36
:1038700088EB93E09183808304C0019680319105A9
:1038800071F71092A7031092A60386E190E090933F
:10389000A9038093A80382E090E09093AB03809308
:1038A000AA0388E190E09093AD038093AC0383E09A
:1038B00090E09093AF038093AE0388E290E0909302
:1038C000B1038093B0038BE090E09093B3038093B7
:1038D000B20386E290E09093B5038093B4038AE04C
:1038E00090E09093B7038093B60383E093E09093C6
:1038F000A5038093A4038FEF8093A0038093A1037B
:103900001092A203DF91CF9108958F929F92AF9270
:10391000BF92CF92EF920F931F931F921F921F930C
:103920000F935F934F934A01A12CB12C32E0C32E29
:10393000E22E06E020E840E00E94E7070F900F909B
:103940000F900F900F900F901F910F91EF90CF90CD
:10395000BF90AF909F908F90089540D008F481E081
:103960000895E89409C097FB3EF490958095709572
:1039700061957F4F8F4F9F4F9923A9F0F92F96E9BB
:10398000BB279395F695879577956795B795F11130
:10399000F8CFFAF4BB0F11F460FF1BC06F5F7F4FCD
:1039A0008F4F9F4F16C0882311F096E911C07723DF
:1039B00021F09EE8872F762F05C0662371F096E8E8
:1039C000862F70E060E02AF09A95660F771F881FB7
:1039D000DAF7880F9695879597F90895990F00085B
:1039E000550FAA0BE0E8FEEF16161706E807F907D1
:1039F000C0F012161306E407F50798F0621B730B6C
:103A0000840B950B39F40A2661F0232B242B252BEC
:103A100021F408950A2609F4A140A6958FEF811D8F
:103A2000811D08950BD078C069D028F06ED018F0B1
:103A3000952309F05AC05FC01124A2C07ED0A0F324
:103A4000959FD1F3950F50E0551F629FF001729F33
:103A5000BB27F00DB11D639FAA27F00DB11DAA1F52
:103A6000649F6627B00DA11D661F829F2227B00D9F
:103A7000A11D621F739FB00DA11D621F839FA00D2A
:103A8000611D221F749F3327A00D611D231F849F7A
:103A9000600D211D822F762F6A2F11249F575040D1
:103AA0008AF0E1F088234AF0EE0FFF1FBB1F661F6C
:103AB000771F881F91505040A9F79E3F510570F025
:103AC00014C05EC05F3FECF3983EDCF386957795BB
:103AD0006795B795F795E7959F5FC1F7FE2B880F20
:103AE000911D9695879597F9089597F99F6780E8B6
:103AF00070E060E008959FEF80EC089500240A9440
:103B00001616170618060906089500240A941216B8
:103B10001306140605060895092E0394000C11F4EB
:103B2000882352F0BB0F40F4BF2B11F460FF04C098
:103B30006F5F7F4F8F4F9F4F089557FD9058440FF1
:103B4000551F59F05F3F71F04795880F97FB991FFC
:103B500061F09F3F79F087950895121613061406B9
:103B6000551FF2CF4695F1DF08C016161706180646
:103B7000991FF1CF86957105610508940895E89421
:103B8000BB2766277727CB0197F90895052E97FB6A
:103B900016F400940FD057FD05D024D007FC02D0B6
:103BA00046F408C050954095309521953F4F4F4FB2
:103BB0005F4F089590958095709561957F4F8F4FD9
:103BC0009F4F089531D0A59F900DB49F900DA49F55
:103BD000800D911D11240895B7FFF4CFF3DF821BF0
:103BE000930B0895A1E21A2EAA1BBB1BFD010DC069
:103BF000AA1FBB1FEE1FFF1FA217B307E407F5079D
:103C000020F0A21BB30BE40BF50B661F771F881F78
:103C1000991F1A9469F760957095809590959B010E
:103C2000AC01BD01CF010895A29FB001B39FC001B7
:103C3000A39F700D811D1124911DB29F700D811DD8
:103C40001124911D08955058BB27AA270ED064CF88
:103C500055DF30F05ADF20F031F49F3F11F41EF4AD
:103C60004ACF0EF4E095E7FB40CFE92F66DF80F303
:103C7000BA17620773078407950718F071F49EF569
:103C80007ECF0EF4E0950B2EBA2FA02D0B01B901BB
:103C900090010C01CA01A0011124FF27591B99F0C2
:103CA000593F50F4503E68F11A16F040A22F232FCE
:103CB000342F4427585FF3CF469537952795A7951E
:103CC000F0405395C9F77EF41F16BA0B620B730BC5
:103CD000840BBAF09150A1F0FF0FBB1F661F771F36
:103CE000881FC2F70EC0BA0F621F731F841F48F4EB
:103CF000879577956795B795F7959E3F08F0B3CF71
:103D00009395880F08F09927EE0F9795879508955A
:103D100004D06894B11134CF089517DF88F09F570D
:103D200090F0B92F9927B751A0F0D1F0660F771F07
:103D3000881F991F1AF0BA95C9F712C0B13081F0E7
:103D40001EDFB1E008951BCF672F782F8827B85F5B
:103D500039F0B93FCCF3869577956795B395D9F748
:103D60003EF490958095709561957F4F8F4F9F4F52
:103D7000089534DE08F48FEF0895EE0FFF1F881FBB
:103D80008BBF0790F691E02D199481E090E0F894B4
:103D900007C0DC0101C06D9341505040E0F7089529
:043DA000F894FFCFC5
:103DA400000020420000803F00000000DF0AD4121F
:103DB4006F0A250BA00A7E0A920A00000000F30D88
:103DC400A90E9E0BAE0FCF0B9302B60B8F028D0282
:103DD400CC0B00000000CA089A02770143079E0139
:103DE4004E0F910299018D0200000000710215022C
:023DF400EE01DE
:00000001FF
